:020000040800F2
:10000000E0070020F1010008455400084F4B0008AC
:1000100041540008650A00086B62000800000000F7
:100020000000000000000000000000001D59000852
:10003000090C0008000000005F570008FD5B000885
:100040000B0200080B0200080B0200080B0200085C
:100050000B0200080B0200080B0200080B0200084C
:100060000B0200080B0200080B0200080B0200083C
:100070000B0200080B0200080B0200080B0200082C
:100080000B0200080B020008E10800080B02000840
:100090000B0200080B0200080B0200080B0200080C
:1000A0000B0200080B0200080B0200080B020008FC
:1000B0000B020008855C00080B0200080B02000818
:1000C0000B0200080B0200080B0200080B020008DC
:1000D0000B0200080B0200080B0200080B020008CC
:1000E0000B0200080B0200080B0200080B020008BC
:1000F0000B0200080B0200080B0200080B020008AC
:100100000B0200080B0200080B0200080B0200089B
:100110000B0200080B020008955C0008A55C0008B3
:100120000B0200080B0200080B0200080B0200087B
:100130000B0200080B0200080B0200080B0200086B
:100140000B0200080B0200080B0200080B0200085B
:100150000B0200080B0200080B0200080B0200084B
:100160000B0200080B0200080B0200080B0200083B
:100170000B0200080B0200080B0200080B0200082B
:100180000B0200080B0200080B0200080B0200081B
:100190000B020008000000000B0200080B02000820
:1001A0000B0200080B0200080B0200080B020008FB
:1001B0000B0200080B0200080B0200080B020008EB
:1001C0000B0200080B0200080B0200080B020008DB
:1001D0000B0200080B020008DFF810D000F022FB31
:1001E0000048004711730008AFF30080E0070020CB
:1001F0000648804706480047FEE7FEE7FEE7FEE7C1
:10020000FEE7FEE7FEE7FEE7FEE7FEE7715C0008BB
:10021000D9010008D2B201E000F8012B491EFBD23F
:1002200070470022F6E710B513460A460446194601
:10023000FFF7F0FF204610BD2DE9FE4F804681EA12
:100240000300C00F0C46009021F0004123F0004550
:10025000B8EB0200A94105D24046214690461C4613
:100260000B46024623F00040104347D0270DC7F34A
:100270000A00C3F30A510290401A019040286BDA39
:10028000C3F3130040F4801B0098924620B1002372
:10029000D2EB030A63EB0B0B01985946C0F1400205
:1002A000504600F09EF906460D4650465946019AC2
:1002B00000F0A6F910EB08006141002487EA115212
:1002C00084EAE7731A4340D0009A62B3019A012A84
:1002D0004FEA075215DC001B61EB02014FF00042B0
:1002E00002EA0752CDE90042001C41F58011324676
:1002F0002B4600F006FA03B0BDE8F08F40462146D9
:10030000F9E7001B61EB0201001C41F580130018A6
:100310005B412018A2F5001747EB030140EAD570B6
:10032000B6196D4111E06D084FEA360645EAC07511
:100330004FEA0752001B61EB0201001C41F58011DE
:1003400049084FEA30000019514132462B4603B0AC
:10035000BDE8F04F00F0C6B900980122400000232C
:10036000D0EB020263EBE073009821464FEAE074A1
:10037000B8EB000061EB0401E9E783F000435BE7C1
:1003800081F0004158E72DE9FE4F81EA030404F0B3
:10039000004421F0004100944FF0000B23F0004393
:1003A00050EA01045ED052EA03045BD0C3F30A545E
:1003B000C1F30A552C44A4F2F3340194A0FB025477
:1003C000C1F3130141F48011C3F3130343F4801309
:1003D00001FB024400FB034E840A970A44EA81545D
:1003E00047EA8357A4FB076802958D0A05FB07853A
:1003F0004FEA932C04FB0C542705029D4FEA065844
:1004000047EA1637B5EB08056EEB070C870E920E20
:1004100047EA811742EA8312A7FB0201B6EB0B0100
:1004200064EB00042B0D43EA0C335E1844EB1C50C4
:10043000DA465146E7FB0201C5F313044FEA0B33DA
:1004400043EA14534FEA0432019C43EA0603A4F141
:100450000C040294009CCDE900B400F052F903B002
:10046000BDE8F08F00200146F9E72DE9F04D81EA63
:10047000030404F0004B21F0004514464FF0000A3D
:1004800023F0004150EA050220D054EA01021DD0B9
:10049000C5F30A570246C5F31303C1F31300C1F3B2
:1004A0000A5640F4801543F48013A7EB0608101B8E
:1004B000D64608F2FD3873EB050002D308F10108B7
:1004C00001E092185B41B8F1000F03DA0020014609
:1004D000BDE8F08D00204FF48011064684460EE002
:1004E000171B73EB050705D3121B63EB05030643CC
:1004F0004CEA010C49084FEA300092185B4150EA7F
:100500000107EDD152EA030012D082EA040083EA27
:100510000501084305D0101BAB4106D20122002380
:1005200006E000224FF0004302E06FF0010253109A
:100530001AEB06004CEB085110EB0A0041EB0B01E3
:10054000BDE8F04D00F0CEB80EB5C10F80EAE07006
:100550000844CA07002140F233438DE80E000A46E2
:100560000B4600F0CEF803B000BD0EB540F23341AB
:1005700002910021CDE900110A460B4600F0C1F8B6
:1005800003B000BD00F0004230F000400AD0C10DC1
:1005900001F56071C0F3160042EA0151C20840073C
:1005A0001143704700200146704701F0004330B40A
:1005B00021F0004150EA010206D00A0DA2F5607256
:1005C000C1F31301002A02DC30BC00207047440F45
:1005D00044EAC104C100E01830BC00EBC25000F096
:1005E00021B8202A04DB203A00FA02F100207047EB
:1005F0009140C2F1200320FA03F319439040704761
:10060000202A06DBCB17203A41FA02F043EAE073D6
:1006100006E041FA02F3D040C2F1200291400843C3
:10062000194670470029A8BF7047401C490008BF01
:1006300020F00100704710B4B0FA80FC00FA0CF012
:1006400050EA010404BF10BC704749B1CCF120044A
:1006500021FA04F411FA0CF118BF012121430843D7
:10066000A3EB0C01CB1D4FEA00614FEA102042BF03
:10067000002010BC704700EBC35010440029A4BFF9
:1006800010BC7047401C490008BF20F0010010BC9E
:100690007047F0B400F0004221F0004120F000402B
:1006A000CE0DC30DC1F3160141F40001C0F31600D5
:1006B0004C42154640F40000761E09E010EB440061
:1006C00002D582F0004240428842F7D840005B1ECB
:1006D000B342F9DA18B1F0BC0021FFF7ACBF2846ED
:1006E000F0BC704710B5141E73F1000408DA401C0A
:1006F00041F1000192185B411A4301D120F0010041
:1007000010BD2DE9F04D92469B4611B1B1FA81F230
:1007100002E0B0FA80F220329046FFF762FF044612
:100720000F4640EA0A0041EA0B0153465A46084385
:1007300013D0114653EA010019D0C8F140025046C7
:1007400000F082F805460E46504659464246FFF7ED
:1007500048FF084305D0012004E020463946BDE8A3
:10076000F08D0020054346EAE0762C4337430A9893
:100770006305E40AA0EB08000022FD0A44EA47549E
:100780000A3002D500200146E9E701051019694148
:10079000DDE9084500196941BDE8F04DA2E72DE902
:1007A000FE4FC3F30A5701F000450024C1F30A5677
:1007B000C3F31303C1F3130143F4801312EB020AD2
:1007C000A64641F48011009543EB030CA7F1010B01
:1007D00016E0B0EB0A0061EB0C01071E71F1000797
:1007E00007DA4FF00008D0EB080085F0004568EB11
:1007F0000101171A73EB0107EBD3761E001849416C
:100800005E45F6DA50EA010209D0CDE900E50022A2
:1008100013460296FFF775FF03B0BDE8F08F204640
:100820000099F9E7064C074D06E0E06840F0010347
:1008300094E8070098471034AC42F6D3FFF7D0FC99
:10084000E075000800760008202A04DB203A21FA2F
:1008500002F00021704721FA02F3D040C2F12002D9
:10086000914008431946704770B5C1F30A5201F030
:1008700000450024C1F3130140F2FF3341F480111D
:100880009A4201DA002070BD40F233439A42A2F24C
:10089000334203DC5242FFF7D7FF00E090402C4385
:1008A000F1D0404270BD30B58C1810F8012B12F019
:1008B0000F0301D110F8013B120906D110F8012BEA
:1008C00003E010F8015B01F8015B5B1EF9D101E068
:1008D00001F8013B521EFBD1A142E6D3002030BDFE
:1008E00010B5024801F0D6FC10BD000090010020B8
:1008F00070B50446206804F0BFFA0646206804F08C
:10090000C0FA98B396BB2068806800F00D000128FB
:100910000AD1206881681A4A1140891C816000BF91
:1009200003202168086009E0E06D40F01000E065F8
:10093000206E40F001002066012070BD02F0D8F961
:10094000054614E002F0D4F9401B02280FD92068B4
:10095000806800F0010050B1E06D40F01000E065EB
:10096000206E40F0010020660120E6E705E02068E7
:10097000806800F001000028E4D10020DDE70000DD
:10098000C0FFFF7F38B5044600200090206804F0C7
:1009900078FA002858D1206880682C49084048B16E
:1009A000E06D40F01000E065206E40F00100206630
:1009B000012038BD206804F017FA2168B1F1A04F7A
:1009C00003D0234A2168914201D1224900E0224903
:1009D000084604F011FA00F4000080B11F480068D6
:1009E0001F49B0FBF1F0401C00EB4000800000907C
:1009F00002E00098401E009000980028F9D102F013
:100A000077F905461AE0206804F03BFA10B920682F
:100A100004F0EAF902F06CF9401B02280ED92068B4
:100A2000006800F0010048B9E06D40F01000E0659A
:100A3000206E40F0010020660120BAE720680068BF
:100A400000F001000028DED00020B2E73F00008067
:100A5000000100500003005000070050D4000020A7
:100A6000400D030000BFFEE790ED000A80ED030A91
:100A700090ED000ADFED060A20EE200AD0ED010A13
:100A80009FED041A01EE200A80ED040A7047000071
:100A90003ACD133F3ACD933FDFED561AB0EE611ACF
:100AA000D1ED001A90ED052A71EEC21AC1ED021ABD
:100AB000D1ED011A90ED062A71EEC21AC1ED031AAA
:100AC000D1ED061A91ED022A71EE821AC1ED061AD5
:100AD000D1ED071A91ED032A71EE821AC1ED071AC2
:100AE000D1ED061A9FED442AF4EEC21AF1EE10FA87
:100AF00003DDDFED411AC1ED061AD1ED061A9FEDB7
:100B00003F2AF4EEC21AF1EE10FA03D2DFED3B1ADF
:100B1000C1ED061AD1ED071A9FED392AF4EEC21A7B
:100B2000F1EE10FA03DDDFED361AC1ED071AD1ED53
:100B3000071A9FED342AF4EEC21AF1EE10FA03D22E
:100B4000DFED301AC1ED071AD1ED051A91ED022A39
:100B500061EE821A91ED042AD1ED062AB0EE610A07
:100B600002EE220AD1ED051A91ED032A61EE821AF6
:100B700091ED042AD1ED072AF0EE610A42EE220A35
:100B800080ED070AC0ED080AD0ED071AB2EE0A2A76
:100B9000F4EEC21AF1EE10FA03DDF2EE0A1AC0ED1D
:100BA000071AD0ED071ABAEE0A2AF4EEC21AF1EECD
:100BB00010FA03D2FAEE0A1AC0ED071AD0ED081A9D
:100BC000B2EE0A2AF4EEC21AF1EE10FA03DDF2EEEA
:100BD0000A1AC0ED081AD0ED081ABAEE0A2AF4EE85
:100BE000C21AF1EE10FA03D2FAEE0A1AC0ED081A90
:100BF00070470000000000000000C8420000C8C2AA
:100C000000001643000016C3704700002DE9F047AE
:100C10002DED0C8B074688461646002500249FEDD7
:100C2000580AB0EE408A5748007840457ED1308857
:100C3000002806DD30884FF47A6101FB0077002040
:100C4000308051480760006850490968401A50498F
:100C500008604FF47A6090FBF8F94846FFF774FC9F
:100C600041EC1D0B9FED4B0B53EC102BFFF78BFB57
:100C700041EC1B0B46480068FFF777FC41EC1C0B6E
:100C800053EC1B2BFFF77FFB41EC1A0B9FED430B43
:100C900053EC102BFFF7E9FB41EC190BFFF785FC38
:100CA00040490A780978491C3E4B19703E4941F881
:100CB00022003548006835490860184600780A283F
:100CC0004FD10A252DE0002427E0374800EB8400AF
:100CD00090ED000A3449601C01EB8000D0ED000A61
:100CE000B4EEE00AF1EE10FA15DD084600EB8400E0
:100CF00090ED000AB0EE408A601C01EB800090EDA0
:100D0000000A084600EB840080ED000A601C01EB3D
:100D1000800080ED008A601CC4B2681EA042D4DC52
:100D2000C5B2012DCFDA9FED160A00E01CE0B0EE4F
:100D3000408A02250AE01C4800EB850090ED000A7D
:100D400030EE080AB0EE408A681CC5B2082DF2DB0E
:100D5000B1EE080AC8EE000AB0EE608A0020114920
:100D6000087000200749087006480078401C0549B3
:100D700008700E4890ED000ABDEC0C8BBDE8F087C2
:100D800000000000780100207C010020800100208C
:100D9000840100200000000000004E400000000020
:100DA0000040AF4079010020B403002088010020FA
:100DB00072B600BFFEE70000F8B504460D460020FD
:100DC000009000BF94F85800012801D10220F8BD1E
:100DD000012084F8580000BF2046FFF789FD064631
:100DE0008EBBE06D20F4885040F00200E065206882
:100DF00081681B4A114005F0804242F000421143D5
:100E0000816000BF13E00098401C009015490098D5
:100E100088420CD3E06D20F0020040F01000E06545
:100E200000BF002084F8580000BF0120CFE72068F1
:100E30008168C90F0029E6D1E06D20F0020040F082
:100E40000100E06504E0FFE7E06D40F01000E065C0
:100E500000BF002084F8580000BF3046B7E700000C
:100E6000C0FFFF3F02DE0400704700002DE9FC5F79
:100E700005460C460020019000900027686900B1EB
:100E800000BFFE49E068884200D000E000BF00BF1C
:100E900095F85800012802D10220BDE8FC9F0120EE
:100EA00085F8580000BF686910B1206A01281ED17A
:100EB000606809284ED1A06A60B194F8280000F05B
:100EC0007C002168C1F3846140EA4120E16A40EA84
:100ED000010703E02068C0F3846047022868C06C03
:100EE000E749084038432968C8646F6632E0A86E55
:100EF00090B9216AA96600206866A06A50B1206A8C
:100F0000401E94F8281001F07C010843E16A40EA91
:100F1000010701E0206A471E207900F01F01002030
:100F2000884087432068C0F38460217901F01F0165
:100F300088400743A86E401EA866686E38436866FE
:100F4000A86E38B92868C06CCD490840696E08435E
:100F50002968C864286803F07FFFD8B994F8250091
:100F600070B994F82600400594F8241040EA015026
:100F70002968C96821F4401108432968C86009E05C
:100F80002868C06820F4401094F8261040EA4150C8
:100F90002968C860286803F088FF8246286803F043
:100FA0005BFF8146BAF1000F7ED1B9F1000FFBD192
:100FB000A06A08B1E06A88B994F82500012806D132
:100FC0002868C06840F000702968C86017E0286889
:100FD000C06820F000702968C86010E094F825000F
:100FE000012806D1E86D40F02000E865012001905D
:100FF00005E02868C06820F000702968C86094F88F
:10100000300001280CD1606B40F00200A16B084356
:101010002968096921F4FF7108432968086105E01E
:101020002868006920F0020029680861A068B0F112
:10103000004F0AD121680022286803F061FF4FF0B9
:101040000041286803F098FF08E0A268216828683A
:1010500003F056FF0021286803F08EFF60692968BD
:10106000C968C1F3C101490000FA01F820690428E8
:1010700040D028682268216900F1600C0CEB8103E4
:10108000D3F800C0DFF8FCB10CEA0B0C02F0F84B0F
:101090004BF0004B4BEA080B4CEA0B0CC3F800C0BA
:1010A00000BF2868A26900E0CCE0216900F1600C73
:1010B0000CEB8103D3F800C02CF0807C4CEA020CCE
:1010C000C3F800C000BF2868227F2169012A01D12E
:1010D000520600E00022134600F1600C0CEB810286
:1010E000D2F800C02CF0007C4CEA030CC2F800C01F
:1010F00000BFA7E00021286803F09BFEC0F31200A8
:1011000030B90021286803F094FEC0F3846007E042
:101110000021286803F08DFE90FAA0F0B0FA80F06C
:101120002168C1F3120119B92168C1F3846104E097
:10113000216891FAA1F1B1FA81F1884204D100222B
:101140001146286803F007FF0121286803F071FEAB
:10115000C0F3120030B90121286803F06AFEC0F321
:10116000846007E00121286803F063FE90FAA0F094
:10117000B0FA80F02168C1F3120119B92168C1F3F6
:10118000846104E0216891FAA1F1B1FA81F1884209
:1011900004D100220121286803F0DDFE0221286825
:1011A00003F047FEC0F3120030B90221286803F0B3
:1011B00040FEC0F3846007E00221286803F039FE96
:1011C00090FAA0F0B0FA80F02168C1F3120119B9C9
:1011D0002168C1F3846104E0216891FAA1F1B1FAB8
:1011E00081F1884204D100220221286803F0B3FE75
:1011F0000321286803F01DFEC0F3120030B903215B
:10120000286803F016FEC0F3846007E00321286815
:1012100003F00FFE90FAA0F0B0FA80F02168C1F35D
:10122000120119B92168C1F3846104E0216891FABF
:10123000A1F1B1FA81F1884204D10022032128688A
:1012400003F089FE286803F021FE002873D1286886
:10125000E2682168D0F8B030C1F3120C23EA0C0325
:1012600002F0180BDFF820C02CFA0BFC0CEA010C82
:1012700043EA0C03C0F8B03000BF07E000007F4035
:101280000040100400F0FF03FFFF07009249E068F0
:10129000884250D12368C3F312031BB92368C3F3F8
:1012A000846304E0236893FAA3F3B3FA83F35B1C2B
:1012B00003F01F03092B3FD82368C3F312031BB9A4
:1012C0002368C3F3846304E0236893FAA3F3B3FAB7
:1012D00083F35B1C03F01F034FF0010C0CFA03FCBB
:1012E0002368C3F312031BB92368C3F3846304E0C8
:1012F000236893FAA3F3B3FA83F35B1C03F01F0391
:101300004CEA836C2368C3F312031BB92368C3F34D
:10131000846304E0236893FAA3F3B3FA83F35B1CBA
:1013200003F01F0303EB43034FF0000B4BEA03539F
:101330004CEA03033FE043E02368C3F312031BB905
:101340002368C3F3846304E0236893FAA3F3B3FA36
:1013500083F35B1C03F01F034FF0010C0CFA03FC3A
:101360002368C3F312031BB92368C3F3846304E047
:10137000236893FAA3F3B3FA83F35B1C03F01F0310
:101380004CEA836C2368C3F312031BB92368C3F3CD
:10139000846304E0236893FAA3F3B3FA83F35B1C3A
:1013A00003F01F030A3B03EB43034FF0007B4BEAC0
:1013B00003534CEA03031946A268286803F0A0FD12
:1013C00046492068084000287FD02968B1F1A04F25
:1013D00003D0434A2968914201D1424900E0424981
:1013E0000846816801F0E07600BF404920688842E5
:1013F00003D03F49206888422CD106F4000048BB46
:101400002868B0F1A04F03D03A49286888425CD1DF
:101410002A68B2F1A04F03D0314B2A689A4201D119
:10142000304A00E0304A104646F4000103F082FDE5
:10143000314800683149B0FBF1F0801C00EB4000FE
:101440008000009002E00098401E00900098002864
:10145000F9D13AE02A49206888421BD106F0807011
:10146000C0B91F492868884203D1264928688842A4
:101470002BD02A68B2F1A04F03D0194B2A689A42A8
:1014800001D1184A00E0184A104646F0807103F076
:1014900051FD1AE01C492068884216D106F48000EC
:1014A00098B90F49286888420FD02A68B2F1A04F36
:1014B00003D00B462A689A4201D10A4A00E00A4A40
:1014C000104646F4800103F035FD00BF002085F88A
:1014D000580000BF0198E0E400007F400000088051
:1014E000000100500003005000070050000021C31D
:1014F0001000C09000060050D4000020400D0300F2
:10150000000052C700050050000084CB10B504460F
:10151000FE4884424DD1FE48007800284AD1FD485B
:101520000078401CFB490870F8480068D0F880003B
:10153000F9490880F5480068D0F88400F749088028
:10154000F2480068D0F88800F5490880F54800881E
:10155000F14909880844F3490880F3480088EF49B5
:1015600009880844F0490880F0480088EC49098857
:101570000844EE490880E74800780A2862DBE94819
:1015800000880A2190FBF1F0E6490880E6480088CF
:101590000A2190FBF1F0E4490880E44800880A2120
:1015A00090FBF1F0E14908800120D9490870E04939
:1015B000087047E0D5480068D0F88000D649088018
:1015C000D2480068D0F88400D4490880CF48006829
:1015D000D0F88800D2490880CF480088D1490988CE
:1015E000401A00EE100AB8EEC00AB1EE400ADFED74
:1015F000D10A20EE200AD04880ED000AC7480088B2
:10160000C9490988401A00EE100AB8EEC00AB1EEC6
:10161000400ADFEDC80A20EE200AC84880ED000A23
:10162000BF480088C1490988401A00EE100AB8EE88
:10163000C00AB1EE400ADFEDBF0A20EE200AC04822
:1016400080ED000ABA48007800285DD0BD480078D7
:10165000002859D1BC4890ED000ABC48D0ED000AE2
:1016600030EE200AB84880ED000A90ED000A03F041
:10167000EBFEB54880ED000AB5480188B548D0EDCD
:10168000000AB14890ED000AB34803F091FAB3485C
:1016900080ED000AB048807B03287DD1B0480078F7
:1016A00098BBAE4890ED002AAE48D0ED001AA44891
:1016B00090ED001AA148D0ED000A9F4890ED000A75
:1016C000A949AA4804F080F8A9480088401CA84904
:1016D000088008460088002816DB0120A049087011
:1016E0000020A44908709FEDA40AA44880ED040AD4
:1016F0009C4890ED000AA24880ED000A9B4890EDBE
:10170000140AA04880ED000AA2E0FFE7994800789B
:10171000401C98490870084600780A2855DB0020CC
:101720000870984890ED000A9748D0ED000AB4EE92
:10173000E00AF1EE10FA18D2924890ED000AF0EEAD
:10174000080A30EE200A80ED000A90ED000A8E486B
:10175000D0ED000AB4EEE00AF1EE10FA2ADD90EDC9
:10176000000A884880ED000A24E0864890ED000ACF
:101770008548D0ED000AB4EEE00AF1EE10FA19DD6A
:10178000804890ED000AF0EE080A30EE600A80ED25
:10179000000A90ED000A00E02BE07B48D0ED000A43
:1017A000B4EEE00AF1EE10FA04D290ED000A7548AA
:1017B00080ED000A734890ED000A704880ED000A41
:1017C0006F4A0146694804F0ABF8644890ED002A7E
:1017D0006B48D0ED001A5A4890ED001A5748D0EDEA
:1017E000000A554890ED000A5F49604803F0ECFF9D
:1017F0002EE000205A4908705E4908705C49088054
:101800009FED5D0A5D4880ED040A564890ED000AA0
:101810005B4880ED000A9FED580A5A4880ED000AA7
:101820004E4890ED002A4F48D0ED001A444890ED04
:10183000001A4248D0ED000A3F4890ED000A4A499C
:101840004A4803F086F942480088401C4049088015
:10185000464890ED042AF0EE421A90ED032AB0EECD
:10186000421A90ED0A2AF0EE420A90ED092AB0EEF3
:10187000420A4649464803F0DBFF364880ED000A3D
:10188000424890ED070A434880ED000ADFED420A26
:1018900090ED000A414803F075FB414880ED000AD5
:1018A00090ED000A314880ED140A90ED070A3D489A
:1018B00080ED000A2D4890ED080A3B4880ED000AB3
:1018C0002A4890ED090A394880ED000A274890ED32
:1018D0000A0A374880ED000A244890ED050A354889
:1018E00080ED000A214890ED060A334880ED000A99
:1018F0001E4890ED030A314880ED000A1B4890ED28
:10190000040A2F4880ED000A10BD0000900100205D
:1019100024000020B4000020020000200400002069
:1019200006000020280000202A0000202C000020B3
:101930002500002023B9003C180000201C000020D6
:10194000200000202600002030000020340000206D
:10195000B60000204C000020600100206000002044
:10196000BC0000209C000020800300202C030020ED
:10197000BA000020B800002000000000A0030020F2
:10198000A0000020A8000020A400002034010020B6
:10199000FC000020540000200AD7A33CAC0000202B
:1019A0005800002064000020680000206C00002027
:1019B0007000002074000020780000207C000020CF
:1019C00080000020704700002DE9F04104462168A6
:1019D000B1F1A04F03D05B4A2168914201D15A492D
:1019E00000E05A49084603F016FA0546206803F05D
:1019F00033FA10B10220BDE8F0812068C06800F021
:101A000000472068C06C00F4C07030B92FB9E06D99
:101A100040F02000E0650120EDE700BF94F8580099
:101A2000012801D10220E6E7012084F8580000BF18
:101A30002046FEF7A7FF0646002E7CD1E06D00F49D
:101A4000807020B1206E20F00800206601E00020A8
:101A50002066E06D42F20101884340F48050E06569
:101A600038492068884202D14FF0A04006E038494A
:101A70002068884201D1374800E020682168884208
:101A800000D01DB9E06D20F48010E0656020216871
:101A9000086000BF002084F8580000BF2068C068BC
:101AA00000F4001028B12068406840F4806021688C
:101AB0004860A06908280CD12068406820F0200008
:101AC000216848602068406840F040002168486014
:101AD0000CE02068406820F04000216848602068E1
:101AE000406840F020002168486000BF00BF1549F1
:101AF0002068884202D14FF0A04006E014492068D7
:101B0000884201D1134800E020682168884204D04F
:101B10001DB1062D01D0072D08D1206803F092F9E0
:101B200070B9206803F09EF90AE004E0E06D40F42B
:101B30008010E06504E000BF002084F8580000BF7A
:101B4000304658E7000100500003005000070050E5
:101B50000005005000040050704770472DE9F04325
:101B60009BB004460E464FF00008306800B100BF3D
:101B700000BF94F85800012803D102201BB0BDE833
:101B8000F083012084F8580000BF002017901890BF
:101B90002068B0F1A04F02D15848009008E05849A1
:101BA0002068884202D15748009001E00020009050
:101BB000009850B9E06D40F02000E06500BF0020C3
:101BC00084F8580000BF0120D8E7009803F06DF9B1
:101BD0000746206803F069F900287DD1002F7FD1E6
:101BE0002068B0F1A04F03D044492068884201D159
:101BF000454800E0454805463068D8B394F83800B9
:101C0000716841EA4030A96821F460410843A86046
:101C10002068B0F1A04F03D038492068884201D134
:101C2000394800E03948384988420AD14FF0A0408D
:101C300003F02CF98146314803F028F949EA000005
:101C40000DE02F4803F022F981462E4803F01EF9DB
:101C500049EA00092E4803F019F949EA0000E0BBFF
:101C6000B16830680843A96840F61F729143084381
:101C7000A8603BE0FFE7A86820F46040A860206807
:101C8000B0F1A04F03D01D492068884201D11E4801
:101C900000E01E481C4988420AD14FF0A04003F0E2
:101CA000F5F88146154803F0F1F849EA00000DE027
:101CB000134803F0EBF88146124803F0E7F849EACD
:101CC0000009134803F0E2F849EA000028B9A868BF
:101CD00040F61F71884301E002E007E0A86005E0DC
:101CE000E06D40F02000E0654FF0010800BF0020EB
:101CF00084F8580000BF404640E700000001005053
:101D00000004005000050050000300500007005080
:101D1000000600502DE9F84F05460C464FF0000A2A
:101D200000200090FE49E068884200D000E000BF3B
:101D300000BF95F85800012802D10220BDE8F88FB5
:101D4000012085F8580000BF286803F0A9F8002892
:101D50007DD12968D4E9002001F1300CC0F3012BBA
:101D60000CEB8B03D3F800C000F01F0E4FF01F0BDD
:101D70000BFA0EFB2CEA0B0C00F01F0BC2F3846E67
:101D80000EFA0BFE4CEA0E0CC3F800C000BF286828
:101D900003F086F88146286803F059F88046B9F1C7
:101DA000000F64D1B8F1000FFBD1A068B0F1004F73
:101DB0000AD121680022286803F08EF84FF0004114
:101DC000286803F0D3F808E0A2682168286803F0C7
:101DD00083F80021286803F0C9F860692968C96898
:101DE000C1F3C101490000FA01F7206904283FD07E
:101DF00028682268216900F1600C0CEB8103D3F89C
:101E000000C0DFF820B30CEA0B0C02F0F84B4BF0EB
:101E1000004B4BEA070B4CEA0B0CC3F800C000BFA9
:101E20002868A269216900F1600C0CEB8103D3F8EA
:101E300000C02CF0807C4CEA020CC3F800C000BF4C
:101E40002868227F2169012A02D1520601E0F6E1C9
:101E50000022134600F1600C0CEB8102D2F800C0A6
:101E60002CF0007C4CEA030CC2F800C000BFA7E0D5
:101E70000021286802F0D4FFC0F3120030B900211D
:101E8000286802F0CDFFC0F3846007E000212868D5
:101E900002F0C6FF90FAA0F0B0FA80F02168C1F31A
:101EA000120119B92168C1F3846104E0216891FA33
:101EB000A1F1B1FA81F1884204D1002211462868CB
:101EC00003F03EF80121286802F0AAFFC0F31200D7
:101ED00030B90121286802F0A3FFC0F3846007E055
:101EE0000121286802F09CFF90FAA0F0B0FA80F07F
:101EF0002168C1F3120119B92168C1F3846104E0BA
:101F0000216891FAA1F1B1FA81F1884204D100224D
:101F10000121286803F014F80221286802F080FFEC
:101F2000C0F3120030B90221286802F079FFC0F333
:101F3000846007E00221286802F072FF90FAA0F0A6
:101F4000B0FA80F02168C1F3120119B92168C1F318
:101F5000846104E0216891FAA1F1B1FA81F188422B
:101F600004D100220221286802F0EAFF0321286838
:101F700002F056FFC0F3120030B90321286802F0C6
:101F80004FFFC0F3846007E00321286802F048FF98
:101F900090FAA0F0B0FA80F02168C1F3120119B9EB
:101FA0002168C1F3846104E0216891FAA1F1B1FADA
:101FB00081F1884204D100220321286802F0C0FF89
:101FC000286802F05EFF002870D12868E268216866
:101FD000D0F8B0C0C1F312032CEA030C02F0180BC6
:101FE000514B23FA0BF30B404CEA030CC0F8B0C082
:101FF00000BF4B49E068884258D12368C3F31203FD
:102000001BB92368C3F3846304E0236893FAA3F342
:10201000B3FA83F35B1C03F01F03092B3ED823683C
:10202000C3F312031BB92368C3F3846304E023687A
:1020300093FAA3F3B3FA83F35B1C03F01F034FF08F
:10204000010C0CFA03FC2368C3F312031BB92368C9
:10205000C3F3846304E0236893FAA3F3B3FA83F32E
:102060005B1C03F01F034CEA836C2368C3F3120369
:102070001BB92368C3F3846304E0236893FAA3F3D2
:10208000B3FA83F35B1C03F01F0303EB43034FF02E
:10209000000B4BEA03534CEA03033FE02368C3F30E
:1020A000120323B92368C3F3846305E042E0236885
:1020B00093FAA3F3B3FA83F35B1C03F01F034FF00F
:1020C000010C0CFA03FC2368C3F312031BB9236849
:1020D000C3F3846304E0236893FAA3F3B3FA83F3AE
:1020E0005B1C03F01F034CEA836C2368C3F31203E9
:1020F0001BB92368C3F3846304E0236893FAA3F352
:10210000B3FA83F35B1C03F01F030A3B03EB4303A7
:102110004FF0007B4BEA03534CEA0303194605E0FA
:1021200000007F4000F0FF03FFFF0700A26828685F
:1021300002F0D2FE484920680840002842D02968B1
:10214000B1F1A04F03D0454A2968914201D14449D9
:1021500000E04449084602F04FFE06464249206826
:10216000884203D04149206888422CD106F40000FF
:1021700048BB2868B0F1A04F03D03D492868884289
:1021800063D12A68B2F1A04F03D0344B2A689A4237
:1021900001D1334A00E0334A104646F4000102F010
:1021A000C3FE344800683449B0FBF1F0401C00EB3A
:1021B00040008000009002E00098401E00900098CF
:1021C0000028F9D141E02D49206888421BD106F052
:1021D0008070C0B921492868884203D128492868FD
:1021E000884232D02A68B2F1A04F03D01B4B2A6834
:1021F0009A4201D11A4A00E01A4A104646F080710C
:1022000002F092FE21E01F49206888421DD106F4A9
:102210008000D0B911492868884216D02A68B2F1E6
:10222000A04F03D00B462A689A4201D10C4A00E025
:102230000C4A104646F4800102F076FE05E0E86D97
:1022400040F02000E8654FF0010A00BF002085F84B
:10225000580000BF504671E50000088000010050A2
:102260000003005000070050000021C31000C09080
:1022700000060050D4000020400D0300000052C7AB
:1022800000050050000084CB704770470146086885
:10229000006C70472DE9F84F04460020009020683C
:1022A0000568206846682168B1F1A04F03D0DA4A7A
:1022B0002168914201D1D94900E0D949084602F08C
:1022C000A5FD074605F00200022811D106F0020024
:1022D00002280DD1E06D00F0100018B9E06D40F457
:1022E0000060E0652046FEF7BFFD0220216808601F
:1022F00005F00400042803D106F00400042807D0E8
:1023000005F0080008286BD106F00800082867D1FE
:10231000E06D00F0100018B9E06D40F40070E06569
:10232000206802F0C7FD002854D0BB4920688842CD
:1023300002D14FF0A04006E0BA492068884201D19E
:10234000B94800E020682168884204D01FB1052FF9
:1023500001D0092F03D12068D0F80C8010E0AE49DD
:102360002068884202D14FF0A04006E0AD492068C5
:10237000884201D1AC4800E020688346DBF80C803D
:1023800008F40050B0F5005F24D02068006800F029
:10239000080008281ED1206802F082FD90B920684C
:1023A000406820F00C0021684860E06D20F48070E7
:1023B000E065E06D00F4805018B9E06D40F0010078
:1023C000E06507E0E06D40F01000E065206E40F051
:1023D000010020662046FFF757FF0C2021680860A7
:1023E00005F02000202803D106F02000202807D087
:1023F00005F0400040287FD106F0400040287BD106
:10240000E06D00F0100018B9E06D40F40050E06598
:102410002068C16C01F4C07109B9012100E00021FC
:102420008A4600BF206802F045FD81467A4920684F
:10243000884202D14FF0A04006E07A4920688842E5
:1024400001D1794800E020682168884204D01FB19A
:10245000062F01D0072F03D12068D0F80C8010E0A0
:102460006D492068884202D14FF0A04006E06D49D6
:102470002068884201D16C4800E020688346DBF880
:102480000C80BAF1000F31D008F0007028B1B9F11A
:10249000000F2BD008F4005040BB2068006800F00B
:1024A0004000402822D108F40010F8B9206802F05A
:1024B000CEFC98B92068406820F060002168486030
:1024C000E06D20F48050E065E06D00F4807068B944
:1024D000E06D40F00100E06508E00DE0E06D40F0E7
:1024E0001000E065206E40F0010020662046FFF7F6
:1024F0000DF860202168086005F0800080280DD16B
:1025000006F08000802809D1E06D40F48030E0655D
:10251000204600F0E7F980202168086005F480700B
:10252000B0F5807F0FD106F48070B0F5807F0AD1BE
:10253000E06D40F40030E0652046FFF70DFB4FF4FE
:1025400080702168086005F40070B0F5007F0FD13D
:1025500006F40070B0F5007F0AD1E06D40F48020F1
:10256000E0652046FFF7F9FA4FF400702168086033
:1025700005F01000102833D106F0100010282FD1DC
:10258000E06B10B90120009019E08FB12168B1F122
:10259000A04F03D0204A2168914201D11F4900E099
:1025A0001F49084602F02DFC48B10120009006E0CA
:1025B0002068C06800F0010008B101200090009878
:1025C00001280AD1E06D40F48060E065206E40F0A3
:1025D000020020662046FFF758FE102021680860A0
:1025E00005F48060B0F5806F13D106F48060B0F51B
:1025F000806F0ED1E06D40F48040E065206E40F0C9
:10260000080020664FF48060216808602046FFF7CC
:10261000D9F9BDE8F88F0000000100500003005018
:102620000007005000050050000400502DE9F84359
:1026300004464FF000080020009014B90120BDE8C6
:10264000F883606920B194F82400012800D100BF0C
:10265000E06D30B9204600F047F90020206684F88C
:10266000580020688168C1F3407131B120688168E9
:10267000914A1140816000BF00BF206802F00BFC4E
:10268000B0B9206881688D4A114041F08051816065
:1026900000BF8B4800688B49B0FBF1F0401C400044
:1026A000009002E00098401E009000980028F9D1A8
:1026B000206802F0F0FB48B9E06D40F01000E065E2
:1026C000206E40F0010020664FF00108206802F003
:1026D000E7FB0646E06D00F0100000287ED1002EDA
:1026E000FCD1E06D20F4807040F00200E0652068CD
:1026F00002F0C7FB88BB2068B0F1A04F03D072493D
:102700002068884201D1714800E071486F498842D1
:102710000AD14FF0A04002F0B4FB81466A4802F0B3
:10272000B0FB49EA00000DE06A4802F0AAFB8146CE
:10273000694802F0A6FB49EA0009684802F0A1FBDB
:1027400049EA000048B92268B2F1A04F03D05E4BBD
:1027500022689A4202D15D4A01E009E05C4A1046D3
:102760006168826822F47C120A43826000BF00BF65
:10277000607FE16B41EA4030E1680843A1680843AB
:1027800094F8241040EA014594F82400012803D16C
:10279000208D401E45EA4045E06A28B1A08D00F436
:1027A0007870216B084305432068C0684C49084095
:1027B00028432168C8602068006920F04060616B90
:1027C000084321680861206802F041FB0746EEBB20
:1027D000E7BB207F002141EA803100E064E094F80B
:1027E000380041EA40052068C06844F2020188438D
:1027F00028432168C860206980B12068006940F4DE
:102800008030216808612068D0F8C0006FF30D00A7
:10281000216908432168C1F8C0000DE02068006903
:1028200020F48030216808612068D0F8C0006FF380
:102830000D002168C1F8C00094F84000012813D1B0
:10284000606C40F00101A06C084300E012E0E16C14
:102850000843216D08432168096940F2FC729143E5
:1028600008432168086105E02068006920F0010044
:10287000216808616069012809D12068006B20F097
:102880000F00216A491E08432168086305E020689B
:10289000006B20F00F0021680863E06D20F002005B
:1028A00040F00100E06505E0E06D40F01000E065FB
:1028B0004FF001084046C2E6C0FFFF5FC0FFFF7F48
:1028C000D4000020400D0300000100500003005020
:1028D00000070050000400500005005000060050A2
:1028E0000740F0FF7047000010B59CB0044614216B
:1028F00017A8FDF796FC542102A8FDF792FC20686A
:10290000B0F1A04F4FD14FF40040029080031390DC
:1029100002A800F059FB08B1FEF74AFA00BF2348AD
:10292000C06C40F400502149C8640846C06C00F4F3
:102930000050019000BF00BF00BF0846C06C40F0CF
:102940000400C8640846C06C00F00400019000BF99
:1029500000BF00BF0846C06C40F00100C8640846D4
:10296000C06C00F00100019000BF00BF0E20179066
:10297000032018900020199017A90D4800F0CCF8FA
:1029800008201790032018900020199017A94FF0E5
:10299000904000F0C1F800221146122000F02CFAFD
:1029A000122000F015FA1CB010BD0000001002400B
:1029B000000800482DE9F04104462168B1F1A04F1C
:1029C00003D0504A2168914201D14F4900E04F495C
:1029D000084602F01BFA0546206802F061FA00285A
:1029E00073D100BF94F85800012802D10220BDE83D
:1029F000F081012084F8580000BF2046FDF7C2FF97
:102A00000646002E76D1E06D40F60161884340F421
:102A10008070E0653B492068884202D14FF0A040B9
:102A200006E03B492068884201D13A4800E020682E
:102A30002168884200D01DB9E06D20F48010E06567
:102A4000E06D00F48050B0F5805F04D1206E20F07E
:102A50000600206601E0002020661C202168086036
:102A600000BF002084F8580000BF26492068884233
:102A700002D14FF0A04006E025492068884201D1EC
:102A8000244800E020682168884204D01DB1052D4B
:102A900001D0092D0ED12068C06800F0007028B167
:102AA000E06D20F4005040F48050E065206802F0B2
:102AB0000BFA25E0E06D40F48010E06511492068D4
:102AC000884203D14FF0A04007E018E01049206889
:102AD000884201D10F4800E020680746F86800F0FE
:102AE000007068B1E06D20F4005040F48050E06563
:102AF00006E0FFE700BF002084F8580000E002264F
:102B0000304674E7000100500003005000070050F9
:102B1000000500500004005078B502460B46002125
:102B2000CAE001268E401D6805EA0604002C73D019
:102B30001D7905F00305012D04D01D7905F003056D
:102B4000022D13D190684E000325B540A8434E00D6
:102B5000DD68B54028439060506801258D40A8434A
:102B60001D79C5F300158D40284350601D7905F08F
:102B70000305032D09D0D0684E000325B540A843B6
:102B80004E009D68B5402843D0601D7905F00305CF
:102B9000022D13D1CE0802F1200555F826004D076D
:102BA000EE0E0F25B540A8434E07F60E1D69B54041
:102BB0002843CE0802F1200545F8260010684E0093
:102BC0000325B540A8431D7905F003054E00B54027
:102BD000284310605D6805F44035002D6BD000BFC0
:102BE000384D2D6E45F00105364E356635462D6E55
:102BF00005F00105009500BF00BF4FEAB6358E080D
:102C000055F826008D072E0F0F25B540A843B2F1C9
:102C1000904F02D100251AE04DE02B4DAA4201D180
:102C2000012514E0294DAA4201D102250FE0284DCB
:102C3000AA4201D103250AE0264DAA4201D104256A
:102C400005E0254DAA4201D1052500E006258E07A5
:102C5000360FB5402843214D8E0845F82600204DFB
:102C60002868A0435D6805F4801505B120431C4D1C
:102C700028602D1D2868A0435D6805F4001505B186
:102C80002043174D2D1D2860154D2D1F2868A0438A
:102C90005D6805F4003505B12043114D2D1F2860F6
:102CA0002D1F2868A0435D6805F4803505B12043D9
:102CB0000B4D083D2860491C1D68CD40002D7FF458
:102CC00030AF78BD00100240000400480008004802
:102CD000000C0048001000480014004808000140A3
:102CE000080401400AB1816100E081627047000080
:102CF0000148006870470000C800002003480068D1
:102D0000034909680844014908607047C800002069
:102D1000D000002010B50024032000F0ABF80F20F5
:102D200000F008F808B1012401E000F02FF8204677
:102D300010BD000070B50446002511480068D8B1E8
:102D40000F4800684FF47A71B1FBF0F00D49096843
:102D5000B1FBF0F6304600F04FFF58B9102C07D207
:102D600000222146501E00F047F80748046004E0A6
:102D7000012502E0012500E00125284670BD000084
:102D8000D0000020D4000020CC00002008B500BFF7
:102D90000E48006E40F001000C4908660846006EBF
:102DA00000F00100009000BF00BF00BF0846806D2A
:102DB00040F0805088650846806D00F0805000909B
:102DC00000BF00BF00F0F6F808BD00000010024090
:102DD0000146084600280DDB00BF00BF00F01F03BE
:102DE00001229A4043099B0003F1E023C3F800212C
:102DF00000BF00BF00BF70472DE9F05F80460D4661
:102E0000164603F05FFA074639462A46334601F074
:102E10000700C0F1070ABAF1040F02D94FF0040A03
:102E200001E0C0F1070AD14600F1040ABAF1070F28
:102E300002D24FF0000A01E0A0F1030AD4464FF09D
:102E4000010A0AFA09FAAAF1010A0AEA020A0AFAC6
:102E50000CFA4FF0010B0BFA0CFBABF1010B0BEA78
:102E6000030B4AEA0B042146404603F033FABDE85F
:102E7000F09F000000BF00F00702064B19684FF6F4
:102E8000FF031940044B0B4343EA0221014B196035
:102E900000BF70470CED00E00000FA0502468ABB57
:102EA0004148006800F4C060B0F5806F2BD13E4807
:102EB0008030006820F480703B4BC3F880001846D7
:102EC000006820F4C06040F4007018603748006863
:102ED00032235843364BB0FBF3F0411C00E0491E4F
:102EE0003148406900F48060B0F5806F01D100295D
:102EF000F5D12D48406900F48060B0F5806F51D164
:102F00000320704708E028488030006820F4807073
:102F1000254BC3F8800045E0B2F5007F3AD1224846
:102F2000006800F4C060B0F5806F2AD11E48803080
:102F3000006840F480701C4BC3F88000184600689D
:102F400020F4C06040F40070186018480068322314
:102F50005843174BB0FBF3F0411C00E0491E1248E8
:102F6000406900F48060B0F5806F01D10029F5D18F
:102F70000D48406900F48060B0F5806F12D10320E5
:102F8000BFE709488030006840F48070064BC3F802
:102F9000800007E00448006820F4C06040F48060CE
:102FA000014B18600020ACE700700040D400002006
:102FB00040420F000348806840F480400149886027
:102FC00070470000007000402DE9F84304460027D8
:102FD000B846206800F40020B0F5002F73D1B94640
:102FE000FD48806D00F0805078B900BFFA48806DD0
:102FF00040F08050F84988650846806D00F08050A8
:10300000009000BF00BF4FF00109F448006840F491
:103010008070F2490860FFF76BFE064606E0FFF796
:1030200067FE801B022801D9032705E0EB480068F2
:1030300000F480700028F2D000BF002F46D1E6488F
:103040009030006800F44075CDB1206DA84216D0D4
:10305000E1489030006820F44075DF48D0F89000D7
:1030600040F48030DC49C1F890000846D0F8900068
:1030700020F48030C1F890000846C0F8905005F068
:103080000100A0B1FFF734FE064608E0FFF730FE6E
:10309000801B41F28831884201D9032706E0CE48DF
:1030A0009030006800F002000028EFD000BF5FB948
:1030B000C9489030006820F44070216D0843C6492B
:1030C000C1F8900003E00CE0B84600E0B846B9F162
:1030D000010F05D1C048806D20F08050BE49886541
:1030E00000BF207800F0010048B1BB48883000687C
:1030F00020F0030061680843B749C1F888002078D0
:1031000000F00200022809D1B3488830006820F09E
:103110000C00A1680843B049C1F88800207800F08D
:103120000400042809D1AC488830006820F0300041
:10313000E1680843A849C1F88800207800F0080039
:10314000082809D1A4488830006820F0C00021690F
:103150000843A149C1F88800207800F01000102829
:1031600009D19D488830006820F4407061690843A7
:103170009949C1F88800207800F02000202809D162
:1031800095488830006820F44060A169084392495E
:10319000C1F88800207800F04000402809D18E480E
:1031A0008830006820F44050E16908438A49C1F83A
:1031B0008800207800F08000802809D18648883077
:1031C000006820F44040216A08438349C1F8880020
:1031D000208800F48070B0F5807F09D17E48883067
:1031E000006820F44030616A08437B49C1F88800D8
:1031F000206800F40030B0F5003F09D176489C30DB
:10320000006820F00300A16A08437349C1F89C00DC
:10321000208800F40070B0F5007F09D16E48883036
:10322000006820F44020E16A08436B49C1F8880037
:10323000208800F48060B0F5806F13D16648883034
:10324000006820F44010216B08436349883108600E
:10325000206BB0F5801F05D15F48C06840F4801036
:103260005D49C860208800F40060B0F5006F13D19C
:1032700059488830006820F44000616B0843564983
:1032800088310860606BB0F5800F05D15248C06886
:1032900040F480105049C860208800F48050B0F598
:1032A000805F13D14C488830006820F04070A16BDB
:1032B0000843494988310860A06BB0F1807F05D18F
:1032C0004548C06840F480104349C860208800F435
:1032D0000050B0F5005F13D13F488830006820F0FF
:1032E0004060E16B08433C4988310860E06BB0F115
:1032F000006F05D13848C06840F480103649C86076
:10330000208800F48040B0F5804F13D132488830D7
:10331000006820F04060216C08432F498831086024
:10332000206CB0F1006F05D12B48C06840F48010CC
:103330002949C860208800F40040B0F5004F13D13F
:1033400025488830006820F04050616C08432249CD
:1033500088310860606CB0F1805F05D11E48C0689C
:1033600040F480301C49C860206800F48030B0F51B
:10337000803F13D118488830006820F04040A16C8D
:103380000843154988310860A06CB0F1804F05D121
:103390001148C06840F480300F49C860206800F4CC
:1033A0008020B0F5802F13D10B489C30006820F4AA
:1033B0004010E16C084308499C310860E06CB0F5AE
:1033C000001F05D10448C06840F480100249C8605D
:1033D0004046BDE8F8830000001002400070004045
:1033E0002DE9F04104460D464FF0000814B90120C4
:1033F000BDE8F0817D48006800F00F00A8420ED2C1
:103400007A48006820F00F00284378490860084691
:10341000006800F00F00A84201D00120E8E7207802
:1034200000F00100002864D06068032823D17048B0
:10343000006800F0007008B90120D9E702F090F9A7
:1034400006466C48864237D96948806800F0F0002B
:1034500030B1207800F0020002282DD1A06858BBBE
:103460006348806820F0F00040F080006049886088
:103470004FF0800820E06068022806D15C480068B0
:1034800000F4003040B90120B2E75948006800F468
:10349000806008B90120ABE700F0B4F80646554853
:1034A000864209D95248806820F0F00040F0800040
:1034B0004F4988604FF080084D48806820F0030035
:1034C000616808434A498860FFF712FC074608E034
:1034D000FFF70EFCC01B41F28831884201D903205E
:1034E00086E74348806800F00C006168B0EB810F0C
:1034F000EED1207800F00200022820D1207800F0E0
:103500000400042805D13A48806840F4E060384956
:103510008860207800F00800082807D134488068C7
:1035200020F4605040F4E0603149886030488068A1
:1035300020F0F000A16808432D49886008E0B8F148
:10354000800F05D12A48806820F0F0002849886063
:103550002648006800F00F00A84219D923480068E7
:1035600020F00F00284321490860FFF7C1FB074600
:1035700008E0FFF7BDFBC01B41F28831884201D94A
:10358000032035E71948006800F00F00A842F0D189
:10359000207800F00400042807D11548806820F442
:1035A000E060E168084312498860207800F0080074
:1035B000082808D10E48806820F46050216940EA4C
:1035C000C1000B49886000F01DF809498968C1F302
:1035D0000311094A515C01F01F01C8400749086006
:1035E00007480068FFF7A6FB02E700000020024042
:1035F0000010024000B4C40484740008D400002009
:10360000CC00002070B5224DAD6805F00C05042DEE
:1036100001D120483AE01E4DAD6805F00C05082D9B
:1036200001D11D4832E01A4DAD6805F00C050C2D96
:103630002BD1174DED6805F00304154DED68C5F36A
:1036400003156A1C022C0CD0032C09D1124DB5FBBA
:10365000F2F50F4EF668C6F3062605FB06F10AE002
:1036600000BF0C4DB5FBF2F5094EF668C6F3062611
:1036700005FB06F100BF00BF054DED68C5F34165D0
:103680006D1C6B00B1FBF3F000E0002070BD00008A
:10369000001002400024F40000127A002DE9F843E3
:1036A000044614B90120BDE8F883207800F0010039
:1036B000002865D0FC48806800F00C07FA48C06814
:1036C00000F003060C2F01D1032E01D0082F0AD1E0
:1036D000F548006800F40030002851D060680028E8
:1036E0004ED10120DFE700BF6068B0F5803F06D112
:1036F000ED48006840F48030EB4908601AE06068EB
:10370000B0F5A02F0BD1E848006840F48020E649CE
:1037100008600846006840F4803008600AE0E2482B
:10372000006820F48030E04908600846006820F412
:103730008020086000BF606888B1FFF7D9FA0546AD
:1037400006E0FFF7D5FA401B642801D90320AAE759
:10375000D548006800F400300028F2D010E0FFF7F0
:10376000C7FA054606E0FFF7C3FA401B642801D9F3
:10377000032098E7CC48006800F400300028F2D11C
:10378000207800F00200022860D1C748806800F06D
:103790000C07C548C06800F003060C2F01D1022EAB
:1037A00001D0042F18D1C048006800F4806018B11F
:1037B000E06808B9012076E7BB48406820F0FE4089
:1037C000217C40EA0160B8494860B8480068FFF7CA
:1037D000B1FA18B3012066E7E06800B3B2480068A8
:1037E00040F48070B0490860FFF782FA054606E0B1
:1037F000FFF77EFA401B022801D9032053E7AA48AD
:10380000006800F480600028F2D0A748406820F0EB
:10381000FE40217C40EA0160A349486016E0A248CE
:10382000006820F48070A0490860FFF761FA05463F
:1038300006E0FFF75DFA401B022801D9032032E7BA
:103840009948006800F480600028F2D1207800F0E8
:103850000800082836D16069D0B1934894300068D8
:1038600040F001009049C1F89400FFF741FA054685
:1038700006E0FFF73DFA401B022801D9032012E7BA
:1038800089489430006800F002000028F1D019E067
:1038900085489430006820F001008349C1F8940005
:1038A000FFF726FA054606E0FFF722FA401B02283A
:1038B00001D90320F7E67C489430006800F002004C
:1038C0000028F1D1207800F00400042872D14FF0D4
:1038D00000087548806D012121EA107078B100BFA1
:1038E0007148806D40F080506F4988650846806D52
:1038F00000F08050009000BF00BF4FF001086C48FE
:10390000006800F48070B0B96948006840F48070C5
:1039100067490860FFF7ECF9054606E0FFF7E8F9AC
:10392000401B022801D90320BDE66148006800F46D
:1039300080700028F2D000BFA068012808D15A4842
:103940009030006840F001005749C1F8900021E034
:10395000A06805280FD154489030006840F004005A
:103960005149C1F890000846D0F8900040F001009D
:10397000C1F890000EE04C489030006820F0010043
:103980004949C1F890000846D0F8900020F00400A2
:10399000C1F8900000BFA068A8B1FFF7A9F90546DB
:1039A00009E0FFF7A5F9401B41F28831884202D9AE
:1039B000032078E625E03C489030006800F00200E3
:1039C0000028EED013E0FFF793F9054608E0FFF773
:1039D0008FF9401B41F28831884201D9032062E609
:1039E00031489030006800F002000028EFD1B8F1B3
:1039F000010F05D12C48806D20F080502A49886540
:103A000000BF207800F02000202836D1A069D0B176
:103A100025489830006840F001002349C1F898001B
:103A2000FFF766F9054606E0FFF762F9401B02283A
:103A300001D9032037E61C489830006800F00200E6
:103A40000028F1D019E018489830006820F00100F3
:103A50001549C1F89800FFF74BF9054606E0FFF756
:103A600047F9401B022801D903201CE60E48983074
:103A7000006800F002000028F1D1E069002860D061
:103A80000948806800F00C000C287AD0E069022810
:103A900058D10548006820F0807003490860FFF79E
:103AA00027F905460DE0000000100240CC00002080
:103AB00000700040FFF71CF9401B022801D90320C9
:103AC000F1E54A48006800F000700028F2D1D4E91E
:103AD0000810401E41EA0011A06A41EA0021208E30
:103AE0000122C2EB500041EA40513420005DC2EB9C
:103AF000500041EA40612C20005D41EAC0603B4932
:103B0000C9683B4A114008433849C8600846006804
:103B100040F0807008600846C06840F08070C8605F
:103B2000FFF7E6F8054606E0FFF7E2F8401B02283B
:103B300001D90320B7E52D48006800F00070002887
:103B4000F2D051E02948006820F0807027490860D1
:103B5000FFF7CEF8054606E0FFF7CAF8401B02283B
:103B600001D903209FE52148006800F0007000287B
:103B7000F2D11E48C0681F4908401C49C86033E0A4
:103B8000FFE7E069012800D18DE51848C66806F016
:103B90000301206A814225D106F0F001606A401ECF
:103BA000B1EB001F1ED106F4FE41A06AB1EB002F5D
:103BB00018D106F078412C20005DB1EBC06F11D117
:103BC00006F4C001208E0122C2EB5000B1EB405F31
:103BD00008D106F0C0613420005DC2EB5000B1EBAB
:103BE000406F01D001205EE500205CE5001002403E
:103BF0000C809F01FCFFEEFE70B504462546681E52
:103C0000B0F1807F01D301200FE0681E4FF0E0216A
:103C100048610F214FF0FF3002F05CFB00204FF0B5
:103C2000E021886107200861002070BD704770475F
:103C30007047000010B50346002200BF93F83C0017
:103C4000012801D1022010BD012083F83C0000BFF3
:103C500022F0FF00CC6840EA040222F440708C6835
:103C600040EA040222F480604C6840EA040222F434
:103C700000600C6840EA040222F480500C6940EABB
:103C8000040222F400504C6940EA040222F480400D
:103C90000C6B40EA040222F470200C8B40EA0442D0
:103CA00022F08050CC6940EA0402144C1868A0420B
:103CB00007D0134C1868A04203D0124C1868A042D9
:103CC00013D122F470000C8D40EA045222F080706F
:103CD0000C6A40EA040222F000704C6A40EA0402D6
:103CE00022F00050CC6A40EA04021868426400BF27
:103CF000002083F83C0000BF00BFA4E7002C014077
:103D00000034014000500140704770477047000088
:103D100030B502460B4600BF92F83C00012801D1A5
:103D2000022030BD012082F83C0000BF022082F852
:103D30003D001068416810688468234D1068A842EF
:103D400007D0224D1068A84203D0214D1068A84228
:103D500003D121F47001586801431E4801401868DE
:103D6000014310684160184D1068A8421BD01068CC
:103D7000B0F1804F17D0184D1068A84213D0174DDE
:103D80001068A8420FD0164D1068A8420BD00F4DF6
:103D90001068A84207D0134D1068A84203D00C4DFC
:103DA0001068A84205D124F0800498680443106884
:103DB0008460012082F83D0000BF002082F83C00B2
:103DC00000BF00BFADE70000002C014000340140FF
:103DD000005001408FFFFFFD00040040000800403C
:103DE000000C00400040014070B504460D4615B976
:103DF00094F844000BE0042D02D14520005D06E05C
:103E0000082D02D14620005D01E04720005D012819
:103E100001D0012070BD1DB9022084F844000EE0DD
:103E2000042D03D102214520015508E0082D03D1BE
:103E300002214620015502E00221472001550422BB
:103E40002946206801F0BFFF2068406C40F4004024
:103E5000216848641C49206888421BD02068B0F162
:103E6000804F17D019492068884213D0184920681C
:103E700088420FD01749206888420BD01649206825
:103E8000884207D015492068884203D01449206829
:103E9000884210D120688068124900EA0106062E87
:103EA0000FD0B6F5803F0CD02068006840F00100CC
:103EB0002168086005E02068006840F00100216882
:103EC00008600020A6E70000002C0140000400402C
:103ED00000080040000C0040003401400040014058
:103EE0000050014007000100704710B504460CB9AE
:103EF000012010BD94F83D0028B9002084F83C0052
:103F0000204600F029F8022084F83D00211D206899
:103F100001F0D0FE012084F8480000BF84F83E0084
:103F200001213F20015540200155412001554220EB
:103F300001554320015500BF00BF012084F8440013
:103F400045200155462001554720015500BF01205D
:103F500084F83D000020CCE738B5044623492068AA
:103F600088420DD100BF2248006E40F40060204915
:103F700008660846006E00F40060009000BF34E060
:103F80001C492068884216D100BF1948806D40F056
:103F90001000174988650846806D00F010000090F9
:103FA00000BF00BF002202213620FEF725FF362089
:103FB000FEF70EFF19E010492068884215D100BFB6
:103FC0000B48806D40F02000094988650846806DE7
:103FD00000F02000009000BF00BF00220221372027
:103FE000FEF70AFF3720FEF7F3FE38BD002C014034
:103FF000001002400010004000140040014691F8FB
:104000003D00012801D001207047022081F83D00C9
:104010001C4B086898421BD00868B0F1804F17D03D
:10402000194B0868984213D0184B086898420FD073
:10403000174B086898420BD0164B0868984207D077
:10404000154B0868984203D0144B0868984210D169
:1040500008688068124B00EA0302062A0FD0B2F506
:10406000803F0CD00868006840F001000B681860C1
:1040700005E00868006840F001000B681860002047
:10408000C2E70000002C014000040040000800408E
:10409000000C00400034014000400140005001404D
:1040A00007000100014691F83D00012801D00120E0
:1040B0007047022081F83D000868C06840F00100A8
:1040C0000B68D8601C4B086898421BD00868B0F198
:1040D000804F17D0194B0868984213D0184B0868C6
:1040E00098420FD0174B086898420BD0164B0868BF
:1040F000984207D0154B0868984203D0144B0868C3
:10410000984210D108688068124B00EA0302062A20
:104110000FD0B2F5803F0CD00868006840F0010075
:104120000B68186005E00868006840F001000B6843
:1041300018600020BCE70000002C01400004004093
:1041400000080040000C00400034014000400140E5
:1041500000500140070001002DE9F04104460D46E2
:10416000002700BF94F83C00012802D10220BDE8DE
:10417000F081012084F83C0000BF022084F83D005B
:10418000206886684248064026F47F46206886609C
:104190002868B0F5005F33D015DC402851D008DC2A
:1041A000002858D0102857D0202856D0302862D167
:1041B00054E0502831D0602839D0702813D0B0F5A1
:1041C000805F58D10EE000F00F01002953D100119B
:1041D000A0F5803008284ED2DFE800F04142434489
:1041E0004546474849E0D5E902136A68206801F06E
:1041F000FBFD2068866846F07706206886603CE014
:10420000D5E902136A68206801F0EEFD2068806835
:1042100040F48040216888602FE0EA68696820687F
:1042200001F0FCFF5021206801F0EAFD25E0EA687A
:104230006968206802F005F86021206801F0E0FD5F
:104240001BE0EA686968206801F0E8FF4021206807
:1042500001F0D6FD11E000BF00BF00BF00BF00BFEE
:1042600000BF00BF00BF00BF00BF00BF29682068BB
:1042700001F0C6FD01E0012700BF00BF012084F866
:104280003D0000BF002084F83C0000BF38466EE7C8
:1042900088FFCEFF2DE9F04104460D4614B90120F8
:1042A000BDE8F08194F83D0028B9002084F83C0076
:1042B000204600F055F8022084F83D002068806810
:1042C0002649084021688860211D206801F0F2FC21
:1042D0002068D0F80880206886692068076A286806
:1042E00040EA080840F203308643A969A86840EA1A
:1042F0000120064340F60C4086434FF2F00086430F
:10430000E969E86840EA0120064328690001296A52
:1043100040EA0130064327F0220727F08807696941
:10432000686840EA011007432068C0F808802068E8
:10433000866120680762012084F8480084F83E0006
:1043400001213F200155012084F8440045200155FA
:10435000012084F83D000020A2E70000F8BFFEFF26
:1043600010B586B00446142101A8FBF75AFF1B497B
:104370002068884230D100BF1948806D40F00200AB
:10438000174988650846806D00F00200009000BF64
:1043900000BF00BF0846C06C40F00100C86408467A
:1043A000C06C00F00100009000BF00BFC020019071
:1043B000022002900020039004900220059001A9A1
:1043C0004FF09040FEF7A8FB002201211D20FEF7D0
:1043D00013FD1D20FEF7FCFC06B010BD00040040DC
:1043E0000010024030B504460D4615B1042D0CD125
:1043F00005E000221146206801F0D4FC10E0002204
:104400000421206801F0CEFC0AE000221146206859
:1044100001F0C8FC00220421206801F0C3FC00BFA9
:1044200000BF00BF2068006A41F21111084050B976
:104430002068006A8900084028B92068006820F0D8
:1044400001002168086000BF0DB1042D34D11DB9F1
:10445000012084F83E001AE0042D03D101213F2001
:10446000015514E0082D03D10121402001550EE033
:104470000C2D03D101214120015508E0102D03D15D
:1044800001214220015502E00121432001551DB9BF
:10449000012084F844001AE0042D03D101214520B5
:1044A000015514E0082D03D10121462001550EE0ED
:1044B0000121472001550AE0012084F83E00012136
:1044C0003F200155012084F844004520015500207B
:1044D00030BD704770B504462068C668206805691D
:1044E00005F00200022819D106F00200022815D1B9
:1044F000401F21680861012020772068806900F052
:10450000030018B12046FFF7E4FF05E0204600F065
:104510004BF9204600F039FA0020207705F004001E
:10452000042819D106F00400042815D1C0432168DD
:104530000861022020772068806900F4407018B17B
:104540002046FFF7C6FF05E0204600F02DF9204683
:1045500000F01BFA0020207705F00800082819D188
:1045600006F00800082815D1C0432168086104201E
:1045700020772068C06900F0030018B12046FFF7DB
:10458000A8FF05E0204600F00FF9204600F0FDF9F5
:104590000020207705F01000102819D106F0100037
:1045A000102815D1C04321680861082020772068B1
:1045B000C06900F4407018B12046FFF78AFF05E09B
:1045C000204600F0F1F8204600F0DFF900202077C7
:1045D00005F0010048B106F0010030B16FF00100B4
:1045E00021680861204600F087FA05F080008028E5
:1045F00004D005F40050B0F5005F0AD106F0800049
:10460000802806D16FF40250216808612046FFF728
:104610000EFB05F48070B0F5807F0AD106F08000B3
:10462000802806D16FF48070216808612046FFF76A
:10463000FDFA05F04000402809D106F0400040286E
:1046400005D1C04321680861204600F07FFA05F0DB
:104650002000202809D106F02000202805D1C043E1
:10466000216808612046FFF7E3FA05F48010B0F5F1
:10467000801F0BD106F48010B0F5801F06D16FF4B7
:104680008010216808612046FFF73FFB05F4001009
:10469000B0F5001F0BD106F40010B0F5001F06D1D5
:1046A0006FF40010216808612046FFF72DFB05F428
:1046B0008000B0F5800F0BD106F48000B0F5800FBC
:1046C00006D16FF48000216808612046FFF71EFBC9
:1046D00005F40000B0F5000F0BD106F40000B0F5B2
:1046E000000F06D16FF40000216808612046FFF733
:1046F000FBFB70BD10B586B00446142101A8FBF782
:1047000090FD26492068884245D100BF2448C06CEE
:1047100040F002002249C8640846C06C00F0020064
:10472000009000BF00BF00BF0846C06C40F0010011
:10473000C8640846C06C00F00100009000BF00BFD4
:104740004FF4C0400190022002900020039004909A
:104750000620059001A91348FEF7DEF94FF400404A
:104760000190022002900020039004900420059004
:1047700001A90C48FEF7D0F94FF4E0600190022047
:1047800002900020039004900620059001A94FF0AC
:104790009040FEF7C1F906B010BD0000002C0140AA
:1047A000001002400004004870472DE9F041044623
:1047B0000D461646002700BF94F83C00012802D1A0
:1047C0000220BDE8F081012084F83C0000BF0C2EDF
:1047D00051D005DC4EB1042E1ED0082E7AD133E024
:1047E000102E60D0142EF9D175E02946206801F012
:1047F00013FB2068806940F0080021688861206808
:10480000806920F004002168886120688069296936
:1048100008432168886178E02946206801F05AFB46
:104820002068806940F400602168886120688069A0
:1048300020F480602168886120688069296940EAE5
:1048400001202168886160E02946206801F0A6FB0C
:104850002068C06940F008002168C8612068C0690C
:1048600020F004002168C8612068C06929690843F4
:104870002168C86149E02946206801F0F1FB206801
:10488000C06940F400602168C8612068C06920F4F4
:1048900080602168C8612068C069296940EA0120F8
:1048A0002168C86131E02946206801F03DFC20689C
:1048B000006D40F00800216808652068006D20F058
:1048C0000400216808652068006D29690843216893
:1048D00008651AE017E02946206801F061FC2068AD
:1048E000006D40F40060216808652068006D20F4C8
:1048F0008060216808652068006D296940EA012010
:104900002168086501E0012700BF00BF00BF00204B
:1049100084F83C0000BF384653E710B504460CB994
:10492000012010BD94F83D0028B9002084F83C0017
:10493000204600F029F8022084F83D00211D20685F
:1049400001F0B8F9012084F8480000BF84F83E0067
:1049500001213F20015540200155412001554220B1
:1049600001554320015500BF00BF012084F84400D9
:1049700045200155462001554720015500BF012023
:1049800084F83D000020CCE77047704770B50446BE
:104990000D4615B994F83E0015E0042D02D13F20D4
:1049A000005D10E0082D02D14020005D0BE00C2DD1
:1049B00002D14120005D06E0102D02D14220005DB1
:1049C00001E04320005D012801D0012070BD1DB928
:1049D000022084F83E001AE0042D03D102213F207A
:1049E000015514E0082D03D10221402001550EE0AD
:1049F0000C2D03D102214120015508E0102D03D1D7
:104A000002214220015502E00221432001550122EA
:104A10002946206801F0C6F92D492068884213D044
:104A20002C49206888420FD02B49206888420BD03F
:104A30002A492068884207D029492068884203D043
:104A400028492068884201D1012000E0002028B1D7
:104A50002068406C40F40040216848641C4920688C
:104A600088421BD02068B0F1804F17D01E492068C3
:104A7000884213D01D49206888420FD01C49206805
:104A800088420BD013492068884207D01249206819
:104A9000884203D013492068884210D1206880687A
:104AA000144900EA0106062E0FD0B6F5803F0CD05F
:104AB0002068006840F001002168086005E0206877
:104AC000006840F001002168086000207EE70000D7
:104AD000002C0140003401400040014000440140EE
:104AE0000048014000500140000400400008004020
:104AF000000C00400700010010B504460D49206875
:104B000088420DD10C480068406A0C4908800C4A64
:104B10000A210A480088FCF779F80A4880ED000A63
:104B200009492068884204D105480088401C04498E
:104B3000088010BD0014004048020020BE00002084
:104B4000440000204000002000040040704700BFE7
:104B5000FEE770B52DED068B04460D46B0EE408A9B
:104B6000F0EE608AB0EE419AF0EE619AB0EE42AAA1
:104B700084ED008AC4ED018A84ED029AC5ED019AA4
:104B80002046FBF771FFB0EE4A0A204600F04EFDCA
:104B900029462046FBF780FFB0EE4A0A204600F087
:104BA0008BF8204600F012FFBDEC068B70BD0000B4
:104BB00070B52DED048B0446B0EE408AF0EE608AAD
:104BC0000D4678EEC80A9FED391A70EE810AB0EEF4
:104BD000600ADFED370A01F021FDDFED360A30EE25
:104BE000600AB0EE409AA07B30B101280CD00228B8
:104BF00024D0032854D150E084ED058AE088A842EF
:104C000001DC0120A0734BE084ED058AB0EEC90AF7
:104C1000D4ED000AB4EEE00AF1EE10FA0BD260898E
:104C2000401C60816089A188884206DB0020608189
:104C30000220A07301E00020608131E0A089401CC7
:104C4000A081A08900EE100AF8EE400A208900EE4B
:104C5000100AB8EE400A80EE801A84ED041A94ED32
:104C6000040AF7EE000AB4EEE00AF1EE10FA07DBF0
:104C7000B7EE000A84ED040A2089A0810320A07306
:104C800094ED041AF0EE480A41EE090AB0EE600A0B
:104C900000F0DAFB84ED050A02E0C4ED058A00BFEE
:104CA00000BF94ED050ABDEC048B70BDE4CB16414A
:104CB000DB0FC940DB0F494010B52DED0E8B0446CC
:104CC000B0EE408A18EE100AFBF75CFC41EC1E0BBC
:104CD000B0EE4E0AF0EE6E0A01F0FAFCB0EE40CAF9
:104CE000F0EE60CA94ED080A10EE101A0846FBF7C1
:104CF00049FC41EC1D0B53EC1C2BFBF744FB41EC36
:104D00001A0B18EE100AFBF73DFC41EC1E0BB0EE3F
:104D10004E0AF0EE6E0A01F0F3FAB0EE40CAF0EE81
:104D200060CA94ED070A10EE101A0846FBF72AFC39
:104D300041EC1D0B53EC1C2BFBF725FB41EC1B0B33
:104D400053EC1A2BFBF719FB41EC190BFBF72DFC6D
:104D5000606218EE100AFBF715FC41EC1E0BB0EE7A
:104D60004E0AF0EE6E0A01F0CBFAB0EE40CAF0EE59
:104D700060CA94ED080A10EE101A0846FBF702FC10
:104D800041EC1D0B53EC1C2BFBF7FDFA41EC1A0B0D
:104D900018EE100AFBF7F6FB41EC1E0BB0EE4E0AC4
:104DA000F0EE6E0A01F094FCB0EE40CAF0EE60CA7C
:104DB00094ED070A10EE101A0846FBF7E3FB41ECEE
:104DC0001D0B53EC1C2BFBF7DEFA41EC1B0B53ECD9
:104DD0001A2BFBF731FA41EC190BFBF7E6FBA0624B
:104DE000BDEC0E8B10BD00008168024A1140491CC9
:104DF00081607047C0FFFF7F0146886800F0E07067
:104E000070470146886800F4604070470146886832
:104E100000F01F0070470146886800F01F007047CF
:104E2000024602F1600000EB8103186800F0F840D0
:104E30007047024602F1600000EB8103186800F041
:104E4000F84070470146C86800F00070704701469E
:104E50008868C0F3C000704701468868C0F3C0008E
:104E6000704700008168034A114041F008018160E9
:104E700070470000C0FFFF7F01468868C0F3400014
:104E800070470146886800F0010070470146886855
:104E900000F00100704701468868C0F30070704759
:104EA00001468868C0F38000704701468868C0F3F7
:104EB000800070470146C86800F4406008B90120CE
:104EC00070470020FCE700008168024A1140091D7C
:104ED00081607047C0FFFF7F70B500F11404C1F31B
:104EE000406504EB85031C68C1F304560725B540F3
:104EF000AC43C1F3045502FA05F52C431C6070BDA8
:104F000070B500F11404C1F3406504EB85031C681F
:104F1000C1F304560725B540AC43C1F3045502FA6A
:104F200005F52C431C6070BD826822F0E0720A43D4
:104F300082607047826822F0E0720A4382607047A4
:104F400010B500F1600404EB81031C6824F00044F8
:104F500014431C6010BD10B500F1600404EB810324
:104F60001C6824F0004414431C6010BD426922F008
:104F700000420A4342617047426922F000420A43FC
:104F800042617047B0EE401A10B9B0EE410A704766
:104F9000F5EEC00AF1EE10FA04D29FED150AF0EE1C
:104FA000400A0AE0B7EE000AF4EEC00AF1EE10FA89
:104FB00003DDB7EE000AF0EE400A017931B980ED69
:104FC000001A01210171B0EE410AE0E7B7EE000AD4
:104FD00030EE600A90ED002A20EE020AF0EE401A50
:104FE00040EE811AC0ED001AB0EE610ACFE7000072
:104FF0000000000000B59BB00020189019901A9096
:10500000202110A8FBF70DF93C2101A8FBF709F9B5
:105010004FF0A0403D4908604FF440304860002107
:105020003A488160C16001610121416104218161CF
:1050300000210177012141770162002180F82410CD
:10504000C162016380F83810C16380F84010FDF739
:10505000EDFA08B1FBF7ACFE0020189018A92B4818
:10506000FCF77CFD08B1FBF7A3FE29481090062051
:105070001190002012907F201390042014900020A3
:10508000159010A92148FCF745FE08B1FBF790FEEA
:105090002048019009200290002003907F20049076
:1050A00004200590002006900320099000208DF830
:1050B00028008DF829008DF82A0084200B9080208C
:1050C0000C9000208DF8340001A91048FBF7CEFEAB
:1050D00008B1FBF76DFE1048019040F20F100290EE
:1050E00001A90A48FBF7C2FE08B1FBF761FE0B48B5
:1050F000019040F21520029001A90448FBF7B6FE8A
:1051000008B1FBF755FE1BB000BD00009001002068
:105110001000C0108000501D000180210002B02549
:1051200000B587B0142102A8FBF77BF800BF2F4819
:10513000C06C40F020002D49C8640846C06C00F0E7
:105140002000019000BF00BF00BF0846C06C40F0C7
:105150000400C8640846C06C00F00400019000BF61
:1051600000BF00BF0846C06C40F00100C86408469C
:10517000C06C00F00100019000BF00BF00BF0846F6
:10518000C06C40F01000C8640846C06C00F010000D
:10519000019000BF00BF00BF0846C06C40F0020095
:1051A000C8640846C06C00F00200019000BF00BF58
:1051B000002203210E48FDF795FD4FF4E0400290D8
:1051C000002003900120049002A90948FDF7A4FCE7
:1051D000032002900120039004900020059002A972
:1051E0000348FDF799FC07B000BD00000010024025
:1051F0000010004800B59BB000201790189019903F
:105200001A901490159016901C210DA8FBF709F820
:1052100034216846FBF705F8404841490860012001
:10522000486060213E48816040F6AB51C16000217A
:1052300001610121416100218161FEF756FE08B143
:10524000FBF7B6FD4FF48050179017A93448FEF7CE
:1052500083FF08B1FBF7ACFD3148FFF75EFB08B1F7
:10526000FBF7A6FD7020149000201590169014A94D
:105270002B48FEF74DFD08B1FBF79AFD60200D901D
:1052800000200E900F901090119012901390002219
:105290000DA92348FFF789FA08B1FBF789FD04221D
:1052A0000DA91F48FFF781FA08B1FBF781FD08221D
:1052B0000DA91B48FFF779FA08B1FBF779FD7020BB
:1052C0000D9040F6AA500E900C220DA91448FFF73D
:1052D0006CFA08B1FBF76CFD002000900190029081
:1052E00046200390002004904FF4005005900020C9
:1052F0000690079008904FF00070099000200A90E7
:105300000B900C9069460648FEF794FC08B1FBF739
:105310004FFD0348FFF7EEF91BB000BD002C014024
:10532000FC01002000B58DB0242104A8FAF779FF14
:10533000002001900290039019481A49086000204B
:1053400048600021174881604FF47A61C1600021F4
:1053500001618161032004900020059001200690E6
:1053600000200790052008900020099001200A9055
:1053700000200B9005200C9004A90A48FEF78AFF34
:1053800008B1FBF715FD00200190039001A9054825
:10539000FEF7BEFC08B1FBF70BFD0DB000BD000031
:1053A00000040040480200200EB50020009001904B
:1053B00002900E480E4908600420486000210C4805
:1053C000816040F6EF21C16000218161FEF78DFD13
:1053D00008B1FBF7EDFC00200090029069460448FC
:1053E000FEF796FC08B1FBF7E3FC0EBD0010004091
:1053F000940200200EB500200090019002900E480B
:105400000E4908601320486000210C48816041F675
:105410005831C16000218161FEF767FD08B1FBF7DB
:10542000C7FC00200090029069460448FEF770FC1B
:1054300008B1FBF7BDFC0EBD00140040E0020020E7
:1054400000BFFEE700BFFEE710B52DED068BB0EE06
:10545000408A18EE100AFBF795F841EC1A0B9FED05
:10546000101BB0EE4A0AF0EE6A0A01F055F8B0EEF1
:10547000409AF0EE609A51EC190BFBF796F808EEA3
:10548000900AF5EEC08AF1EE10FA04DDB0EE680A7B
:10549000BDEC068B10BD9FED040A38EE800AF7E7DD
:1054A00000000060FB211940DB0FC94010B52DED55
:1054B000048B0446B0EE408AF0EE608A9FED550AF8
:1054C000B0EE409A9FED530AF0EE409AD4ED080AF0
:1054D000B0EE600A01F060F9B0EE409AD4ED080A2F
:1054E000B0EE600A00F070FFF0EE409AB1EE480AAC
:1054F00020EE290A08EEC90A84ED050A94ED050A92
:10550000DFED450AB4EEE00AF1EE10FA02DD9FEDA0
:10551000420A01E094ED050A84ED050A94ED050ABE
:10552000DFED3E0AB4EEE00AF1EE10FA02D29FED92
:105530003B0A01E094ED050A84ED050A94ED050AA5
:10554000D4ED000A20EE200A84ED020A94ED030A4D
:10555000D4ED050A94ED011A00EE810A84ED030AE8
:1055600094ED030ADFED2E0AB4EEE00AF1EE10FA34
:1055700003DD9FED2B0A84ED030A94ED030ADFEDB2
:10558000290AB4EEE00AF1EE10FA03D29FED250AE3
:1055900084ED030A94ED020AD4ED030A30EE200AEA
:1055A00084ED060A94ED060ADFED1D0AB4EEE00A6A
:1055B000F1EE10FA03DD9FED1A0A84ED060A94ED70
:1055C000060ADFED180AB4EEE00AF1EE10FA03D293
:1055D0009FED140A84ED060A94ED060ADFED120A27
:1055E00020EE200A84ED070A94ED080AD4ED060A9D
:1055F00094ED041A00EE810A84ED080AD4ED080A3D
:10560000B0EE600AFFF720FF84ED080ABDEC048BC2
:1056100010BD000000000000A60A063FA60A06BF53
:1056200000401C4500401CC58CB94B3F10B52DED0A
:105630000E8B0446B0EE408A18EE100AFAF7A2FF6D
:1056400041EC1E0BB0EE4E0AF0EE6E0A01F040F88F
:10565000B0EE40CAF0EE60CA94ED040A10EE101AE3
:105660000846FAF78FFF41EC1D0B53EC1C2BFAF7A1
:105670008AFE41EC1A0B18EE100AFAF783FF41EC90
:105680001E0BB0EE4E0AF0EE6E0A00F039FEB0EEE0
:1056900040CAF0EE60CA94ED030A10EE101A0846F4
:1056A000FAF770FF41EC1D0B53EC1C2BFAF76BFE65
:1056B00041EC1B0B53EC1A2BFAF7BEFD41EC190B16
:1056C000FAF773FF606118EE100AFAF75BFF41EC1E
:1056D0001E0BB0EE4E0AF0EE6E0A00F011FEB0EEB8
:1056E00040CAF0EE60CA94ED040A10EE101A0846A3
:1056F000FAF748FF41EC1D0B53EC1C2BFAF743FE65
:1057000041EC1A0B18EE100AFAF73CFF41EC1E0BA5
:10571000B0EE4E0AF0EE6E0A00F0DAFFB0EE40CACC
:10572000F0EE60CA94ED030AB1EE400A10EE101AD2
:105730000846FAF727FF41EC1D0B53EC1C2BFAF738
:1057400022FE41EC1B0B53EC1A2BFAF775FD41ECD2
:10575000190BFAF72AFFA061BDEC0E8B10BD704744
:1057600070B5164DED6805F00304144DED68C5F3F2
:1057700003156B1C022C0CD0032C09D1104DB5FB6A
:10578000F3F50E4EF668C6F3062605FB06F10AE0B1
:1057900000BF0C4DB5FBF3F5084EF668C6F30626C0
:1057A00005FB06F100BF00BF044DED68C5F3416580
:1057B0006D1C6A00B1FBF2F070BD000000100240E9
:1057C00000127A000024F40070B52DED068B04461B
:1057D0000D46B0EE408AB0EE609AB0EE41AAF0EE0F
:1057E000618AF0EE429A84ED008A84ED019A84ED9C
:1057F00002AAC5ED018A9FED0D0A85ED000A20463B
:10580000FBF732F9B0EE690A2046FFF70FFF294691
:105810002046FBF741F9B0EE690A2046FFF74CFA43
:10582000204600F0D3F8BDEC068B70BD00000000F0
:1058300070B52DED048B04460D46B0EE408AF0EEB7
:10584000608AB0EE419AF0EE619AD4ED070A70EEEC
:10585000C90AB0EE600A01F0FDFDD4ED020A20EEA7
:10586000200A84ED0C0AD4ED0C0AB0EE600ADFEDDC
:10587000280A2848FFF786FB84ED0C0A94ED000AFD
:10588000D4ED070A20EE200AD4ED010A94ED0C1A9B
:1058900038EE411A00EE810A84ED070AD4ED080AB9
:1058A00070EEE90AB0EE600A01F0D4FDD4ED020A10
:1058B00020EE200A84ED0D0AD4ED0D0AB0EE600A48
:1058C000DFED130A1448FFF75DFB84ED0D0A94ED3C
:1058D000000AD4ED080A20EE200AD4ED010A94ED66
:1058E0000D1A38EEC11A00EE810A84ED080A94ED13
:1058F0000D1AF0EE410A94ED0C1AB0EE410A28465A
:10590000FFF7D4FD95ED080ABDEC048B70BD0000D7
:105910006666263FD8000020E000002070470000A7
:10592000D1ED000A90ED141A70EEC10AC1ED010A22
:10593000D1ED040A91ED011A70EE810AC1ED040A5D
:10594000D1ED040A9FED1F1AF4EEC10AF1EE10FA30
:1059500003DDDFED1C0AC1ED040AD1ED040A9FED61
:105960001A1AF4EEC10AF1EE10FA03D2DFED160AAC
:10597000C1ED040AD1ED030A91ED011A60EE810A2E
:1059800091ED021AD1ED041AB0EE600A01EE210A7F
:10599000F2EE080AB4EEE00AF1EE10FA03DDF2EEE0
:1059A000080AB0EE600AFFEE000AB4EEE00AF1EE7B
:1059B00010FA03D2FFEE000AB0EE600A82ED000A90
:1059C0007047000000409C4600409CC670B5D0ED7A
:1059D0000A5AB0EE654AD0ED095A9FED826A65EE2B
:1059E000865A90ED0A6AF6EE006A46EE665AF0EEC6
:1059F000654AD0ED095A9FED7C6A65EE865A90EDB6
:105A00000A6AF6EE006A46EE665AB0EE655AB5EEE0
:105A1000C04AF1EE10FA01DD012500E000252A461A
:105A2000F5EEC04AF1EE10FA01DD012500E0002597
:105A30002B46B5EEC05AF1EE10FA01DD012500E06B
:105A400000252C46A500022606FB03551544E9B2A5
:105A5000DFED665A64EE252AF1EE455A9FED636A42
:105A600025EE863AF1EE645A9FED606A65EE863A5D
:105A70009FED5F1ADFED5E1A07292FD2DFE801F0F4
:105A80002E040910171E2500B0EE631AF0EE431A1B
:105A900024E0B0EE431AF1EE625AF0EE651A1DE012
:105AA000F1EE635AB0EE651AF0EE621A16E0F1EE0E
:105AB000625AB0EE651AF0EE631A0FE0B0EE621AA9
:105AC000F1EE435AF0EE651A08E0F1EE435AB0EEFB
:105AD000651AF1EE635AF0EE651A00BF00BF71EE71
