:020000040800F2
:10000000F06A0020B102000875570008A34B0008F1
:10001000F9560008E50B0008A3680008000000007E
:10002000000000000000000000000000F1010008D6
:10003000E50E0008000000004D020008E96200081B
:10004000CB020008F9590008CB020008CB020008D7
:10005000CB020008CB020008CB020008CB0200084C
:10006000CB020008CB020008CB020008C90D000833
:10007000CB020008CB020008CB020008CB0200082C
:10008000CB020008CB020008A10A0008CB0200083E
:10009000CB020008CB020008CB020008CB0200080C
:1000A000CB020008CB020008CB020008CB020008FC
:1000B000CB02000879630008CB020008CB020008DD
:1000C000CB020008CB020008CB020008655B0008E9
:1000D000CB020008CB020008CB020008CB020008CC
:1000E000CB020008CB020008CB020008CB020008BC
:1000F000CB020008CB020008CB020008CB020008AC
:10010000CB020008CB020008CB020008CB0200089B
:10011000CB020008CB020008856300089163000849
:10012000CB020008CB020008CB020008CB0200087B
:10013000CB020008CB020008CB020008CB0200086B
:10014000CB020008CB020008CB020008CB0200085B
:10015000CB020008CB020008CB020008CB0200084B
:10016000CB020008CB020008CB020008CB0200083B
:10017000CB020008CB020008CB020008CB0200082B
:10018000CB020008CB020008CB020008CB0200081B
:10019000CB02000800000000CB020008CB020008E0
:1001A000CB020008CB020008CB020008CB020008FB
:1001B000CB020008CB020008CB020008CB020008EB
:1001C000CB020008CB020008CB020008CB020008DB
:1001D000CB020008CB020008DFF810D000F08EFB45
:1001E0000048004735730008AFF30080F06A002034
:1001F0002C4B19680868B0E8F04F80F30988BFF30A
:100200006F8F4FF0000080F31188704700000000EE
:1002100008480068006880F308884FF0000080F309
:10022000148862B661B6BFF34F8FBFF36F8F00DFE4
:1002300000BF00BF08ED00E0DFF80C00016841F4EA
:1002400070010160704700BF88ED00E0EFF30980A6
:10025000BFF36F8F134B1A681EF0100F08BF20ED0D
:10026000108A20E9F04F106009B44FF0500080F37D
:100270001188BFF34F8FBFF36F8F08F033F94FF042
:10028000000080F3118809BC19680868B0E8F04FD5
:100290001EF0100F08BFB0EC108A80F30988BFF37E
:1002A0006F8F70478C010020EFF3058070470000CE
:1002B0000648804706480047FEE7FEE7FEE7FEE700
:1002C000FEE7FEE7FEE7FEE7FEE7FEE769630008FC
:1002D000D901000840EA01039B0703D009E008C9DF
:1002E000121F08C0042AFAD203E011F8013B00F8FB
:1002F000013B521EF9D27047D2B201E000F8012B47
:10030000491EFBD270470022F6E710B513460A4695
:1003100004461946FFF7F0FF204610BD2DE9FE4FB9
:10032000804681EA0300C00F0C46009021F0004196
:1003300023F00045B8EB0200A94105D24046214612
:1003400090461C460B46024623F00040104347D01F
:10035000270DC7F30A00C3F30A510290401A019017
:1003600040286BDAC3F3130040F4801B00989246D8
:1003700020B10023D2EB030A63EB0B0B0198594623
:10038000C0F14002504600F0ABF906460D4650461B
:100390005946019A00F0B3F910EB080061410024BE
:1003A00087EA115284EAE7731A4340D0009A62B395
:1003B000019A012A4FEA075215DC001B61EB02018A
:1003C0004FF0004202EA0752CDE90042001C41F51D
:1003D000801132462B4600F013FA03B0BDE8F08FCF
:1003E00040462146F9E7001B61EB0201001C41F584
:1003F000801300185B412018A2F5001747EB03019A
:1004000040EAD570B6196D4111E06D084FEA360625
:1004100045EAC0754FEA0752001B61EB0201001C60
:1004200041F5801149084FEA300000195141324628
:100430002B4603B0BDE8F04F00F0D3B9009801227D
:1004400040000023D0EB020263EBE07300982146EA
:100450004FEAE074B8EB000061EB0401E9E783F0D8
:1004600000435BE781F0004158E72DE9FE4F81EA48
:10047000030404F0004421F0004100944FF0000B0D
:1004800023F0004350EA01045ED052EA03045BD03B
:10049000C3F30A54C1F30A552C44A4F2F334019473
:1004A000A0FB0254C1F3130141F48011C3F3130301
:1004B00043F4801301FB024400FB034E840A970AB5
:1004C00044EA815447EA8357A4FB076802958D0AE2
:1004D00005FB07854FEA932C04FB0C542705029D6E
:1004E0004FEA065847EA1637B5EB08056EEB070CDE
:1004F000870E920E47EA811742EA8312A7FB020198
:10050000B6EB0B0164EB00042B0D43EA0C335E18D1
:1005100044EB1C50DA465146E7FB0201C5F31304D5
:100520004FEA0B3343EA14534FEA0432019C43EA87
:100530000603A4F10C040294009CCDE900B400F081
:100540005FF903B0BDE8F08F00200146F9E72DE91F
:10055000F04D81EA030404F0004B21F000451446FD
:100560004FF0000A23F0004150EA050220D054EA7F
:1005700001021DD0C5F30A570246C5F31303C1F3A8
:100580001300C1F30A5640F4801543F48013A7EB1F
:100590000608101BD64608F2FD3873EB050002D39F
:1005A00008F1010801E092185B41B8F1000F03DA8D
:1005B00000200146BDE8F08D00204FF48011064672
:1005C00084460EE0171B73EB050705D3121B63EB84
:1005D000050306434CEA010C49084FEA3000921823
:1005E0005B4150EA0107EDD152EA030012D082EAE2
:1005F000040083EA0501084305D0101BAB4106D275
:100600000122002306E000224FF0004302E06FF0D9
:10061000010253101AEB06004CEB085110EB0A00D4
:1006200041EB0B01BDE8F04D00F0DBB800F00042FB
:1006300030F000400AD0C10D01F56071C0F3160022
:1006400042EA0151C20840071143704700200146A9
:10065000704730B50B46014600202022012409E0F6
:1006600021FA02F59D4205D303FA02F5491B04FA6B
:1006700002F52844151EA2F10102F1DC30BD2DE97E
:10068000F05F0546002092469B4688460646814616
:1006900040241BE0284641464746224600F040F9E8
:1006A00053465A46C01A914110D311461846224665
:1006B00000F016F82D1A67EB01084F46224601207C
:1006C000002100F00DF817EB00094E41201EA4F1A7
:1006D0000104DFDC484631462A464346BDE8F09F28
:1006E000202A04DB203A00FA02F1002070479140F2
:1006F000C2F1200320FA03F3194390407047202AE7
:1007000006DBCB17203A41FA02F043EAE07306E039
:1007100041FA02F3D040C2F1200291400843194649
:1007200070470029A8BF7047401C490008BF20F04F
:100730000100704710B4B0FA80FC00FA0CF050EAE7
:10074000010404BF10BC704749B1CCF1200421FA68
:1007500004F411FA0CF118BF012121430843A3EB63
:100760000C01CB1D4FEA00614FEA102042BF002070
:1007700010BC704700EBC35010440029A4BF10BC4C
:100780007047401C490008BF20F0010010BC7047B2
:10079000F0B400F0004221F0004120F00040CE0D06
:1007A000C30DC1F3160141F40001C0F316004C4221
:1007B000154640F40000761E09E010EB440002D517
:1007C00082F0004240428842F7D840005B1EB342AC
:1007D000F9DA18B1F0BC0021FFF7ACBF2846F0BC35
:1007E000704710B5141E73F1000408DA401C41F183
:1007F000000192185B411A4301D120F0010010BDA5
:100800002DE9F04D92469B4611B1B1FA81F202E01A
:10081000B0FA80F220329046FFF762FF04460F469E
:1008200040EA0A0041EA0B0153465A46084313D0F6
:10083000114653EA010019D0C8F14002504600F0B9
:100840006FF805460E46504659464246FFF748FFA8
:10085000084305D0012004E020463946BDE8F08D6C
:100860000020054346EAE0762C4337430A986305A7
:10087000E40AA0EB08000022FD0A44EA47540A30CB
:1008800002D500200146E9E7010510196941DDE9BB
:10089000084500196941BDE8F04DA2E7C1F30A52CD
:1008A000C1F3130140F2FF3341F480119A4202DA9E
:1008B00000200146704740F233439A42A2F233428D
:1008C00002DC524200F02CB8FFF70ABF30B5041E1C
:1008D00071F1000404DB4FF00044404264EB01017D
:1008E000141E73F1000405DB1C464FF00043524216
:1008F00063EB0403994208BF904230BD064C074D9C
:1009000006E0E06840F0010394E8070098471034DF
:10091000AC42F6D3FFF764FCD0A10008F0A10008B8
:10092000202A04DB203A21FA02F00021704721FA44
:1009300002F3D040C2F120029140084319467047AB
:1009400030B58C1810F8012B12F00F0301D110F8FC
:10095000013B120906D110F8012B03E010F8015BEE
:1009600001F8015B5B1EF9D101E001F8013B521E69
:10097000FBD1A142E6D3002030BD000080B59FED41
:10098000441A9FED443A20EE011AB0EEC11ABDEEB2
:10099000C12AB8EEC22A31EE421A21EE031ABDEE88
:1009A000C12A12EE102A02F1800E6FF35F2249F67F
:1009B000CC1CC0F6000C02EE102A6FF35F2E0CEB7D
:1009C0008203B8EE422A0CEB8E0231EE421A92ED0F
:1009D000002A92ED013A93ED004A93ED015A9FED02
:1009E0002E7A33EE426A74EE050A20EE877A76EEAE
:1009F000060A74EE041ADFED292A37EE607AF0EE6B
:100A0000080A75EE211A26EE206A61EEA21A21EE7E
:100A1000077A36EE216A36EE076A21EE066A24EE80
:100A2000227A36EE476A21EE066A32EE066A81EDD8
:100A3000006A35EE445A32EE036A26EE226A35EE3B
:100A4000057A36EE476A32EE027A33EE073A25EE41
:100A5000205A23EE223A21EE066A35EE433A33EE6F
:100A6000063A21EE033A22EE222A32EE032A21EE42
:100A7000021A34EE011AB5EE400AB1EE412AF1EE47
:100A800010FAB8BFB0EE421A80ED001A80BD00BF68
:100A9000610B363B00000044DB0F49BCDB0F493CD7
:100AA000014801F02BBB00003037002070B5044630
:100AB00000688168C1F3400504F048FB48B345BBBA
:100AC0002068816801F00D01012914D18168124A62
:100AD0001140891C816021680320086002F034F90C
:100AE000054612E002F030F9401B02280DD92068BB
:100AF0008068C00709D0E06D40F01000E065206E0E
:100B000040F001002066012070BD20688068C007A9
:100B1000E8D1002070BD0000C0FFFF7FF8B504469B
:100B200000200090206804F011FBE8BB2068816879
:100B3000264A114237D18168D6433140491C816031
:100B40002068B0F1A04F02D02149884201D121484C
:100B500000E02148806800F0E07000020DD51F48D9
:100B60001F490068B0FBF1F0401C00EB4000800022
:100B700000E0401E00900028FBD102F0E5F8054699
:100B80001DE004F0E3FA20B9206881683140491C77
:100B9000816002F0D9F8401B022810D92068006853
:100BA000C043C0070BD000E00EE0E06D40F0100045
:100BB000E065206E40F0010020660120F8BD20684D
:100BC0000168C943C907DCD10020F8BD3F0000809F
:100BD000000100500003005000070050BC0000203E
:100BE000400D0300FEE7000090ED000ADFED070A6C
:100BF00080ED030A9FED061A20EE200AD0ED010ACF
:100C000000EE810A80ED040A704700003ACD133FE0
:100C10003ACD933F10B504462DED048B0B46D1ED34
:100C2000002A90ED050A32EEC00A81ED020A91ED2C
:100C3000012AD0ED060A72EE600AC1ED030A91EDB9
:100C4000061A31EE001A81ED061AD1ED071A11EEDF
:100C5000100A71EEA01AC1ED071A4949884203DD56
:100C60009FED481A83ED061A47499869884203D9CF
:100C70009FED461A83ED061A11EE900A4449884208
:100C800003DD9FED441A83ED071A4349D869884272
:100C900003D99FED421A83ED071A93ED051AD3EDA0
:100CA000041A93ED063A61EE206AD3ED070A61EE6D
:100CB000007A9FED3B1A41EEA06AD4ED140A9FED35
:100CC0003C9A41EE837A60EE810AB1EE001A39480F
:100CD00020EE816ADFED330AB0EE491A66EE200A93
:100CE00060EE828ADFED300A66EE200A20EEA27AFC
:100CF000DFED2E0A06EE207AF0EE460A04F0F8FD4B
:100D00002C48B0EE408A93ED030AB0EE491AF0EE9B
:100D1000460A183004F0ECFD77EEA80A36EE871A82
:100D2000254970EE880A31EE000A10EE900AC4EDF3
:100D3000070A84ED080A884203DDF2EE0A0AC4EDD0
:100D4000070A10EE900A1D49884203D9FAEE0A0AF2
:100D5000C4ED070A10EE100A1949884203DDB3EE0C
:100D6000040A84ED080A10EE100A1649884203D9D5
:100D7000BBEE040A84ED080ABDEC048B10BD000034
:100D80000000164400001644000016C4000016C4FB
:100D90000080A2440080A2440080A2C40080A2C4BB
:100DA0005077D63DB40158B97F8722394260E53B80
:100DB00017B7D138C400002000005041000050C1D6
:100DC0000000A0410000A0C1014801F0D7BD000013
:100DD000003800200D4902688A4201D20C4901E026
:100DE0000B492031D2B21423083AB2FBF3F2436C20
:100DF00002F01F0223F00303194481640449803187
:100E0000C16401219140016570470000080402405F
:100E1000000802400179074A02EB81024265054A57
:100E20004432491E826501F01F0201219140C165D3
:100E300070470000FC08024030B5D0E913456560FA
:100E4000446D14B1D0E91645656090F8444004F053
:100E50001F050124AC40056C6C6004686360836806
:100E6000102B036803D099600068C26030BD9A609F
:100E70000068C16030BD00000648016841F0807123
:100E80000160054800214160016841F001010160F5
:100E900070470000FCED00E0001000E0002802D0E8
:100EA0000149496801607047001000E0002812D035
:100EB000094949680268DFED090A891A00EE101A2B
:100EC0004160B8EE400A20EE200ADFED050A80EE10
:100ED000201A80ED021A7047001000E000247449C7
:100EE000B083054D704772B6FEE70000F8B50025E7
:100EF0000446009590F858000E4601280BD00120BA
:100F000084F858002046FFF7D1FD0200E06D04D0C0
:100F100040F010002AE00220F8BD20F4885040F094
:100F20000200E06520688168134B194006F0804399
:100F3000194341F000418160104B20680EE0009998
:100F4000491C0091994209D3E06D20F0020040F065
:100F50001000E06584F858500120F8BD8168C90F81
:100F6000EDD1E06D20F0020040F00100E06584F872
:100F700058501046F8BD0000C0FFFF3F02DE0400DD
:100F8000704700002DE9F84F4FF000090446CDF8F6
:100F900000900D4694F85820DFF8008461694F46B0
:100FA0004846012A0AD00126FD4A84F8586041B11A
:100FB000296A012905D0A36EEBB129E00220BDE822
:100FC000F88F6868092838D1A96A4FF4785041B180
:100FD0002B6801F07C0100EA53400843E96A0843AA
:100FE00002E0296800EA51402168CB6C13400343BA
:100FF000CB64606621E0C4E91971A96A286A31B13D
:1010000001F07C01401E0843E96A084300E0401EED
:101010002968C1F38463297901F01F018B40A16E17
:101020000343491EA166606E40EA0300606604D176
:101030002168CB6C13400343CB64206804F082F832
:1010400058B995F8250098B12068C16895F8262010
:1010500021F4401141EA4251C160206804F082F855
:101060008246206804F06EF85AEA00010DD0FAE0DA
:1010700095F8260095F82410400540EA01512068B3
:10108000C26822F440121143E6E7A86A30B1E86A68
:1010900020B195F8250001285DD003E095F82500E2
:1010A000012804D02068C16821F0007103E02068A5
:1010B000C16841F00071C16095F83000012851D03D
:1010C0002068016921F002010161AA68296820688D
:1010D000B2F1004F37D004F060F82068416921F088
:1010E0000041416120686969C268C2F3C1025200CF
:1010F00091402A69042A43D000EB82002B68026EDB
:10110000DFF8A0C203F0F84302EA0C020B431A43D3
:1011100042F00041016622682869A96902EB80005B
:10112000026E22F080720A430266297F22682869D3
:10113000012922D0002102EB8000026E22F0007211
:101140000A4302668FE0002204F027F82068416914
:1011500041F00041C5E7E06D40F02000E0654FF050
:101160000109A9E7D5E90D1001432068026922F4BD
:10117000FF7242F002021143A6E74FF00071DAE776
:10118000002103F0D5FF400320684FF0000171D02B
:1011900003F0CEFF90FAA0F0B0FA80F12868420385
:1011A0006DD090FAA0F0B0FA80F0814204D1002214
:1011B0001146206804F008F80121206803F0B8FF08
:1011C000400320684FF001015CD003F0B1FF90FABA
:1011D000A0F0B0FA80F12868420358D090FAA0F04D
:1011E000B0FA80F0814204D100220121206803F08E
:1011F000EBFF0221206803F09BFF400320684FF0C3
:10120000020147D003F094FF90FAA0F0B0FA80F109
:101210002868420343D090FAA0F0B0FA80F08142EF
:1012200004D100220221206803F0CEFF03212068B0
:1012300003F07EFF400320684FF0030132D003F03B
:1012400077FF90FAA0F0B0FA80F1286842032ED020
:1012500090FAA0F0B0FA80F0814204D1002203217C
:10126000206803F0B1FF206803F074FF10B3B3E00F
:1012700000E004E003F05CFFC0F384618EE7C0F39C
:10128000846092E703F054FFC0F38461A3E7C0F3E6
:101290008460A7E703F04CFFC0F38461B8E7C0F3B4
:1012A0008460BCE703F044FFC0F38461CDE7C0F382
:1012B0008460D1E721682A7B286851F8B03FC0F3E9
:1012C000120C23EA0C0302F0180C374A22FA0CF233
:1012D000024013430B60E96841457DD12868410312
:1012E0001AD090FAA0F1B1FA81F1491C01F01F0166
:1012F00009294FEA403130D8002910D090FAA0F1E6
:10130000B1FA81F101F1010101F01F0106FA01F6C4
:1013100008D1C0F3846109E0C0F38461E5E7C0F35C
:101320008461EFE790FAA0F1B1FA81F101F10101D6
:1013300001F01F0146EA816102D1C0F3846003E03D
:1013400090FAA0F0B0FA80F000F1010000F01F0068
:1013500000EB400041EA00513AE000290DD090FA3C
:10136000A0F1B1FA81F101F1010101F01F0106FACA
:1013700001F605D1C0F3846106E0C0F38461F2E7B1
:1013800090FAA0F1B1FA81F101F1010101F01F0120
:1013900046EA81610BD1C0F384600CE000007F401D
:1013A0000040100400F0FF03FFFF070014E090FA74
:1013B000A0F0B0FA80F000F1010000F01F003A4AFE
:1013C00000EB400002EB005041EA000141F00071E7
:1013D000AA68206803F0E1FE34482A6802425ED021
:1013E00020684FF0A04C324B324E334D604501D057
:1013F000A84201D1194600E031468968DFF8BC8077
:1014000001F0E071424503D0DFF8B480424520D1BD
:101410005FEA01281DD4604505D02A4A90423ED19A
:10142000A84200D0334641F40000996821F0E071F1
:1014300001439960244825490068B0FBF1F0801C05
:1014400000EB4000800000E0401E00900028FBD12F
:1014500025E0DFF87C8042450FD15FEAC1180CD44B
:10146000A84202D11B4A904219D0604502D0A8423E
:1014700000D0334641F080700CE0DFF85C804245DC
:101480000DD14A020BD4A84209D0604500D03346A2
:1014900041F48000996821F0E0710143996084F87B
:1014A000587048468BE50000000020FE00000880D0
:1014B000000300500007005000010050000021C34D
:1014C0001000C09000060050BC000020400D03003A
:1014D000000052C700050050000084CB2DE9F04702
:1014E00080462DED028BF748FFF7D8FCF64EF74902
:1014F000F748D6ED041A96ED031AD6ED0A0A96EDD2
:10150000090A04F0CDFAF34CDFF8C0A384ED0C0A0D
:101510009AED070A84ED0D0ADFEDEF0A04F1900061
:1015200003F05AFE84ED0E0A86ED140A9FEDEB1AC5
:10153000DFEDEB0A40EE010A10EE900AC4ED170A47
:10154000B0F17F5F02DAB7EE080A09E010EE900A08
:10155000E449884202DC94ED170A03E0B2EE0E0A79
:1015600084ED170ADA48E0490025DFF8809380ED22
:10157000020A01279FEDDE8A88457BD12078E8B3F7
:10158000086850F8801F89B22181426892B2628156
:10159000806880B2A081E389C91A00EE101AB8EE03
:1015A000C00A9FEDD41A60EE010AC4ED060A218A32
:1015B000F0EEE00A511A00EE101AB8EEC00A20EE62
:1015C000010A84ED070A618A401A01EE900A10EEC2
:1015D000901AC948F8EEE11A814221EE811A84ED91
:1015E000081A0DDCB0EEC00A10EE101A814207DCBA
:1015F000B0EEC10A10EE101A814200E011E000DDE9
:10160000A770A078B8B3657004F078F884ED1A8AF2
:1016100025716571E5826566A582BDEC028BBDE82A
:10162000F087E078401CC3B2E370086850F8802F60
:101630002281416861818068A081B4F80EC00A2BC4
:10164000624492B2E281B4F810C0614489B221824E
:10165000B4F812C0604480B260825FD30A23B2FB48
:10166000F3F2B1FBF3F1B0FBF3F0E281218260828F
:10167000277051E052E0FFE794ED160AB5EEC00A7C
:10168000F1EE10FA02D16078012807D0B5EEC00A59
:10169000F1EE10FA42DD607878B142E0657004F056
:1016A0002DF825716571E5826566A58284ED1A8A3B
:1016B00084ED098A89F80E50AFE7A078002848D158
:1016C0009FED8E0A002184ED0A0A6566A582E582F7
:1016D000257184ED098A84ED1A8A86ED148A94EDC9
:1016E000140A874884ED150A89F80E5003F062F950
:1016F0000421834803F05EF90821814803F05AF978
:1017000000217F4802F0BEFC04217D4802F0BAFCB3
:1017100008217B4802F0B6FC677002E06078002880
:1017200017D0A08AF1EE068AB0F5FA6F12D2401CEB
:10173000A08284ED098A94ED140A04F118029FED49
:10174000712A70EE281A92EC030A6F495E4803F082
:1017500029FA12E194ED090AD4ED0A0A30EE200AC2
:1017600084ED090A04F008F884ED090AB4F864006D
:10177000D4ED0C0A81B25D4803F036FA84ED0F0A0D
:1017800099F80E00DFF88481B0EE402A03281DD0BE
:10179000606E42F21071884201D9F0EE488A94EDF1
:1017A000140A04F11802584970EE281A92EC030A40
:1017B000454803F0F7F9606E401C60662571E582CC
:1017C000657184ED1A8A88ED048A72E02079D8B1B7
:1017D0006079401CC0B260710A286FD36571D4ED86
:1017E0001A0A94ED160AB6EE001AF4EEC00AF1EEEB
:1017F00010FA64D270EE810AC4ED1A0AF4EEC00A3F
:10180000F1EE10FA5CDC9BE094ED0B0A32EE000A7C
:1018100003F0B2FF04F11802B0EE402A92EC030A82
:10182000D4ED141A3849284804F012F99AED050A43
:101830003749B0EEC00A10EE100A884225DAE08A75
:10184000401C80B2E082B0F5487F1FD327716571DC
:1018500096ED140A2F4A84ED1A0A70EE400A88EDBC
:10186000000A4046C8ED010A98ED020A10EE101A6F
:1018700091420CDDD0ED031A94ED141A01EEE01A3A
:10188000C1EE000AC0ED040A03E0E58275E080EDD8
:10189000048A214A0169914203DD9FED200A80ED0F
:1018A000040A1F4A0169914203D99FED1E0A88ED7F
:1018B000040A94ED140A84ED150A5EE049E033E071
:1018C0003CE0000010020020903900204001002080
:1018D00008010020040000208FC2753C4B59063CD3
:1018E000516B5A3E00007041303700206C010020DF
:1018F0000000000023B900BC00009041BC74133C00
:1019000060380020E4CB9640E4390020043A0020FF
:101910009A99193FBD37863500803B4600803B468B
:1019200000803BC600803BC60ADD70EEC10AC4EDF4
:101930001A0AF4EEC00AF1EE10FA01D284ED1A0A86
:1019400094ED1A0A204A88ED000A2049204804F044
:101950004FFA94ED0F0AD4ED0B0A30EE200A03F093
:101960000BFF04F11802B0EE402A92EC030AD4ED0A
:10197000151A1849164804F06BF81748FFF796FA3D
:1019800096ED070A104884ED1C0A96ED080A2C30E3
:1019900084ED1D0A96ED090A84ED1E0A96ED0A0AE9
:1019A00084ED1F0A96ED050A80ED000A96ED060A01
:1019B00080ED010A96ED030A80ED020A96ED040A15
:1019C00080ED030A29E6000058000020043A0020B8
:1019D00090390020E43900201002002070470000F8
:1019E0002DE9F041044600684FF0A0464C4FB0424C
:1019F00001D0B84201D14B4900E04B49896801F060
:101A00001F0503F09FFB08BB2068C168C06C01F094
:101A1000004110F4C07F00D191B194F85800012822
:101A200014D0012084F858002046FFF777F8010011
:101A30004FF000020CD084F858200846BDE8F08131
:101A4000E06D40F02000E0650120F7E70220F5E7B7
:101A5000E06DC00504D5206E20F00800206600E08F
:101A60002266E06D42F20103984340F48050E06545
:101A700020682E4BDFF8B8C0B84201D1B64604E06A
:101A8000984201D1E64600E08646864500D02DB951
:101A9000D4F85CE02EF4801EC4F85CE04FF0600ED9
:101AA000C0F800E084F858202068C268920203D58C
:101AB000426842F480624260A06908282068426857
:101AC00007D022F0400242602068426842F02002C3
:101AD00006E022F0200242602068426842F04002A4
:101AE00042602068B84204D0984201D1664600E0C6
:101AF0000646864209D045B1062D06D0072D04D0F2
:101B0000E06D40F48010E06597E7C26812F0007F56
:101B100093D18268074B1A4042F0080282608CE73A
:101B20000001005000030050000700500005005065
:101B300000040050C0FFFF7F704770472DE9F04F51
:101B4000044690F858009BB00D464FF0000B01285A
:101B500012D0012084F858000027179718972068A2
:101B60004FF0A048DFF80C91DFF80CA1434E404540
:101B700006D13046009608E002201BB0BDE8F08F89
:101B800048450AD15046CDF800A003F0EBFA00908A
:101B9000206803F0E7FA40B109E0E06D40F0200072
:101BA000E06584F858700120E7E7009848B1E06DDF
:101BB00040F02000E0654FF0010B84F85870584663
:101BC000DBE72068C446604501D0B04201D12C4813
:101BD00000E02C4829682C4B0029816840F61F72D0
:101BE00021F4604128D094F8388041EA4831D5F892
:101BF000048041EA080181602168614501D0B14259
:101C000005D1DCF80810B368C1F3000109E0D9F888
:101C10000810DAF80860C1F30001C6F300069B68FB
:101C20003143C3F300031943C7D1AB682968194393
:101C30008368934319431BE081602168614501D0AB
:101C4000B14205D1DCF80810B368C1F3000109E026
:101C5000D9F80810DAF80850C1F30001C5F30005FF
:101C60009B682943C3F300031943A6D181689143BC
:101C70008160A2E700040050000500500001005000
:101C80000003005000070050000600502DE9F84FF7
:101C900000270446009790F85800DFF814840D469A
:101CA000B946012810D0012684F85860206803F056
:101CB00055FA58B1E06D40F02000E065012784F846
:101CC00058903846BDE8F88F0220FBE7D5E90020A0
:101CD0000C23216803EA901319440B6B00F01F00DA
:101CE0004FF01F0C0CFA00FCC2F3846223EA0C03D1
:101CF000824013430B63206803F030FA8246206869
:101D000003F01CFA5AEA00013CD1AA68296820684D
:101D1000B2F1004F37D003F031FA2068416921F069
:101D20000041416120686A69C168C1F3C10149008D
:101D30008A402969042931D000EB81002B68016EAB
:101D4000DFF870C303F0F84301EA0C0113431943B1
:101D500041F00041016620682A69A96900EB820010
:101D6000026E22F080720A430266297F2268286987
:101D7000012910D0002102EB8000026E22F00072D7
:101D80000A4302667DE0002203F0F8F92068416909
:101D900041F00041C5E74FF00071ECE7002103F08E
:101DA000C1F9400320684FF0000171D003F0BAF987
:101DB00090FAA0F0B0FA80F1286842036DD090FA52
:101DC000A0F0B0FA80F0814204D1002211462068D0
:101DD00003F0F2F90121206803F0A4F94003206820
:101DE0004FF001015CD003F09DF990FAA0F0B0FA39
:101DF00080F12868420358D090FAA0F0B0FA80F041
:101E0000814204D100220121206803F0D5F902218A
:101E1000206803F087F9400320684FF0020147D0A3
:101E200003F080F990FAA0F0B0FA80F1286842033C
:101E300043D090FAA0F0B0FA80F0814204D10022A1
:101E40000221206803F0B8F90321206803F06AF941
:101E5000400320684FF0030132D003F063F990FA99
:101E6000A0F0B0FA80F1286842032ED090FAA0F0DA
:101E7000B0FA80F0814204D100220321206803F0EF
:101E80009BF9206803F062F910B3AAE000E004E0D7
:101E900003F048F9C0F384618EE7C0F3846092E7F1
:101EA00003F040F9C0F38461A3E7C0F38460A7E7BF
:101EB00003F038F9C0F38461B8E7C0F38460BCE78D
:101EC00003F030F9C0F38461CDE7C0F38460D1E75B
:101ED00021682A7B286851F8B03FC0F3120C23EA2E
:101EE0000C0302F0180C744A22FA0CF2024013435D
:101EF0000B60E968414574D1286841031AD090FA13
:101F0000A0F1B1FA81F1491C01F01F0109294FEA42
:101F1000403130D8002910D090FAA0F1B1FA81F107
:101F200001F1010101F01F0106FA01F608D1C0F329
:101F3000846109E0C0F38461E5E7C0F38461EFE701
:101F400090FAA0F1B1FA81F101F1010101F01F0154
:101F500046EA816102D1C0F3846003E090FAA0F008
:101F6000B0FA80F000F1010000F01F0000EB40002B
:101F700041EA005131E000290DD090FAA0F1B1FA08
:101F800081F101F1010101F01F0106FA01F605D10D
:101F9000C0F3846106E0C0F38461F2E790FAA0F137
:101FA000B1FA81F101F1010101F01F0146EA8161FD
:101FB00002D1C0F3846003E090FAA0F0B0FA80F0A0
:101FC00000F1010000F01F003C4A00EB400002EB72
:101FD000005041EA000141F00071AA68206803F056
:101FE000CDF837482A6802423FF469AE20684FF0C6
:101FF000A04C344B344E354D604501D0A84201D140
:10200000194600E031468968DFF8C48001F0E071CC
:10201000424503D0DFF8BC80424521D15FEA012868
:102020001ED4604506D02C4A90427FF448AEA842A8
:1020300000D0334641F40000996821F0E07101437B
:102040009960264826490068B0FBF1F0401C00EB7F
:102050004000800000E0401E00900028FBD12EE6EA
:10206000DFF8808042450FD15FEAC1180CD4A84246
:1020700002D11D4A9042F2D0604502D0A84200D061
:10208000334641F080700CE0DFF860804245E6D1D5
:102090004A02E4D4A842E2D0604500D0334641F47D
:1020A0008000996821F0E0710143996007E6000023
:1020B00000007F4000F0FF03FFFF0700000020FE4C
:1020C000000008800003005000070050000100508D
:1020D000000021C31000C09000060050BC0000208A
:1020E000400D0300000052C700050050000084CBE3
:1020F000704770470068006C704700002DE9F84F8A
:1021000004460068066845684FF0A048DFF89092E2
:10211000404501D0484501D1A24800E0A24880686E
:1021200000F01F07B0070ED5A8070CD5E06DC0065C
:1021300003D4E06D40F40060E0652046FEF720FF28
:10214000216802200860DFF864B2DFF864A270073B
:1021500001D5680703D430073FD528073DD5E06D8A
:10216000C00603D4E06D40F40070E065206802F022
:10217000FDFF60B32068484501D1414604E0584561
:1021800001D1514600E00146814208D03FB1052F00
:1021900005D0092F03D0484503D1414606E0C16868
:1021A00005E0584501D1514600E00146C96889045F
:1021B0000DD4016809070AD502F0D0FF58B3E06DCD
:1021C00040F01000E065206E40F0010020662046DF
:1021D000FFF78EFF21680C200860B00601D5A80625
:1021E00003D470065FD568065DD5E06DC00603D4E4
:1021F000E06D40F40050E0652068C16C11F4C07FD0
:102200001AD00021009102F0B1FF02462068484533
:1022100014D1414617E02068416821F00C0141606B
:10222000E06D20F48070E065E06DC004CFD4E06D17
:1022300040F00100E065CAE70121E3E7584501D11C
:10224000514600E00146814208D03FB1062F05D03B
:10225000072F03D0484503D1414606E0C16805E099
:10226000584501D1514600E00146C968009BA3B121
:102270008B0102D58AB18A040FD4026852060CD5AC
:1022800089020AD402F05AFFF0B3E06D40F010006A
:10229000E065206E40F0010020662046FFF71EF941
:1022A00021686020086030060BD5280609D5E06D4E
:1022B00040F48030E065204600F096F921688020E7
:1022C0000860F0050CD5E8050AD5E06D40F4003053
:1022D000E0652046FFF730FC21684FF4807008600D
:1022E000B0050CD5A8050AD5E06D40F48020E06566
:1022F0002046FFF722FC21684FF400700860F006CA
:1023000031D5E8062FD500E009E0E06BE8B12068A0
:10231000EFB3404501D0484512D1224811E0206872
:10232000416821F060014160E06D20F48050E0657B
:10233000E06DC005B1D4E06D40F00100E065ACE7B0
:102340001948806800F4604050B1E06D40F480604E
:10235000E065206E40F0020020662046FFF7C9FECF
:10236000216810200860700517D5680515D5E06D47
:1023700040F48040E065206E40F00800206621684F
:102380004FF4806008602046BDE8F84F00E001E0AF
:10239000FFF724BBC068C007D6E7BDE8F88F000090
:1023A00000010050000300500007005000050050DD
:1023B00000040050F8B54FF0000504002E460095CB
:1023C00002D0E06D10B107E00120F8BD204600F01A
:1023D0000DF9266684F8586020688168C1F3407161
:1023E00019B18168744A1140816020688168C1F325
:1023F000007189B98168714A114041F08051816052
:102400006F4870490068B0FBF1F04000801C00E0AC
:10241000401E00900028FBD120688168C1F3007144
:1024200041B9E16D41F01001E165216E41F001011A
:102430002166012502F092FEE16DC90600D430B19B
:10244000E06D40F01000E06501252846F8BDE06D24
:1024500020F4807040F00200E065206802F076FE13
:1024600040BB20684FF0A043574A984201D09042A9
:1024700004D199689668C1F300010AE0534989685C
:10248000534EC1F30001B668C6F300063143514E06
:10249000B668C6F3000631430CD1984201D0904291
:1024A00001D14D4800E04D486168826822F47C12F9
:1024B0000A438260E168E06B627F0843A16841EAF9
:1024C0004231084394F8241040EA0140012904D124
:1024D000218D434A02EB41410843E16A29B101F4ED
:1024E0007871226B014342EA01002168CA683D4BC2
:1024F0001A400243CA6020680169626B21F04061A2
:1025000011430161206802F019FE70BB207F94F82E
:102510003810800340EA41012068C26844F2020397
:102520009A430A43C26020690028206801690AD0E2
:1025300041F480310161206850F8C01F22696FF3B7
:102540000D01114307E021F480310161206850F84A
:10255000C01F6FF30D01016094F84000012813D0F3
:102560002068016921F0010101616069012820688A
:10257000016B19D021F00F010163E06D20F0020022
:1025800040F00100E06560E7D4E911200243D4E99E
:102590001301084302432068016940F2FC73994328
:1025A0000A4342F00101DFE721F00F02216A491ED0
:1025B0000A430263E1E70000C0FFFF5FC0FFFF7F47
:1025C000BC000020400D030000010050000400503A
:1025D00000050050000600500003005000070050A6
:1025E0000000FEFF0740F0FF7047000030B59BB0D1
:1025F0000446142115A8FDF786FE54216846FDF710
:1026000082FE2068B0F1A04F3ED14FF40040009010
:1026100080031190684600F0F7FC08B1FEF763FCF8
:102620001A48C16C41F40051C164C16C01F40051FD
:102630001A91C16C41F00401C164C16C01F0040144
:102640001A91C16C41F00101C164C06C002400F01A
:1026500001001A900E2003251794CDE9150515A940
:102660000B4800F08FFA08201794CDE9150515A93D
:102670004FF0904000F086FA00221146122000F040
:10268000F9FB122000F0E8FB1BB030BD0010024047
:10269000000800482DE9F04704460F4600684FF057
:1026A000A0494549454BDFF818A1484501D05045A0
:1026B00001D10A4600E01A46926802F01F06A2699C
:1026C000082A14D0AEB1052E13D0092E11D04845DA
:1026D00002D0504500D01946886800F4604058B1D7
:1026E000E06D40F02000E0650120BDE8F08708259E
:1026F00003E0C068C007F2E7042500F025FB804630
:1027000015E0781C13D000F01FFBA0EB0800B842C6
:1027100000D867B920680068284208D1E06D40F011
:102720000400E065002084F858000320DDE72068FD
:1027300000682842E5D0E06D40F40070E065206854
:1027400002F014FD80B1607F70B920680068000756
:102750000AD5E06D20F48070E065E06DC00403D41C
:10276000E06D40F00100E0652068164C16495045C8
:1027700001D14A4604E0A04201D10A4600E00246E7
:10278000824208D03EB1052E05D0092E03D0504517
:1027900003D1494604E0C16803E0A04200D00146ED
:1027A000C968082D05D0490401D40C21016000201E
:1027B0009BE70821FAE700000003005000070050E3
:1027C0000001005000050050000400502DE9F041C8
:1027D000044600684FF0A046444FB04201D0B842D2
:1027E00001D1434900E04349896801F01F0502F027
:1027F000B5FC18B102210846BDE8F08194F85800F4
:1028000001280CD0012084F858002046FEF786F9F4
:1028100001004FF0000304D084F85830EBE70220A9
:10282000EAE7E06D40F60162904340F48070E065B5
:102830002068314ADFF8C4C0B84201D1B64604E08E
:10284000904201D1E64600E08646864500D02DB98B
:10285000D4F85CE02EF4801EC4F85CE0D4F85CE0B0
:102860005FEACE4E06D5D4F860E02EF0060EC4F82E
:1028700060E000E023664FF01C0EC0F800E084F832
:1028800058302068B84201D1334604E0904201D16B
:10289000634600E0034683420ED06DB1052D0BD098
:1028A000092D09D0E36D43F48013E365B84213D0DA
:1028B000904210D166460FE0C268920105D5E26DE4
:1028C00022F4005242F48052E26582680C4B1A40B6
:1028D000121D82608FE70646F06880018BD5E06D9F
:1028E00020F4005040F48050E06584E7000100507F
:1028F0000003005000070050000500500004005085
:10290000C0FFFF7F70B590F82510002401222346F8
:10291000022907D00421C16380F8252080F82430E3
:10292000012429E001680D6825F00E050D6001689D
:102930000D6825F001050D60816C0D6825F480752A
:102940000D6090F84410154601F01F018A40016C9B
:102950004A60D0E913124A60416D31B10A6822F42D
:1029600080720A60D0E916124A6080F8255080F81B
:102970002430816B01B18847204670BDF0B4016CF2
:102980000B6801680A6890F84440042504F01F04AD
:1029900005FA04F61E4211D056070FD50A689206B2
:1029A00003D40A6822F004020A6090F8441001F08F
:1029B0001F018D40016C4D60016B1DE0022606FA7F
:1029C00004F71F424FF0000C4FF0010518D0970795
:1029D00016D50A68920605D40A6822F00A020A602F
:1029E00080F8255090F8441001F01F018E40016CD2
:1029F0004E6080F824C0C16A00291AD0F0BC084794
:102A00000826A6401E4214D0120712D50A6822F0EA
:102A10000E020A6090F84410026C01F01F0105FAE2
:102A200001F15160C56380F8255080F824C0416BE6
:102A3000E2E7F0BC7047000070B504000CD02B4AF0
:102A400020681421904209D2294A0244B2FBF1F1D4
:102A50008900616427490AE0012070BD234A52427F
:102A60000244B2FBF1F18900616420490839216414
:102A7000022184F82510016847F6F0729143D4E9E9
:102A800002231A43D4E904352B431A43A3691A439A
:102A9000E3691A43236A1A430A4302602046FEF799
:102AA00099F9A0680025B0F5804F00D16560A16C50
:102AB00020790860D4E9130141606068401E032852
:102AC00008D82046FEF7A6F9606D0560D4E9160126
:102AD000416002E06565A565E565E563012084F870
:102AE000250084F82450002070BD00000804024036
:102AF000F8FFFDBF0000024070B5044690F82400C6
:102B0000002501280CD0012084F8240094F82560C9
:102B10000020012E06D084F824000225284670BD2E
:102B2000022070BD022684F82560E06320680668F4
:102B300026F0010606602046FEF77EF9206B00288D
:102B40002068016802D041F00E0106E021F0040186
:102B500001602068016841F00A010160A06C016811
:102B6000C90303D5016841F480710160606D18B13B
:102B7000016841F4807101602068016841F0010141
:102B80000160CBE72DE9F84FDFF888910022A9F129
:102B9000040B03274FF00F0C09F1040AABF1040EEC
:102BA000B1E0012595402B4073D00C7904F003046B
:102BB000012C01D0022C15D18668540007FA04F8C4
:102BC00026EA0806D1F80C8008FA04F848EA060854
:102BD000C0F808804468AC430D79C5F300159540F2
:102BE000254345600C79E443A40708D0C568540028
:102BF00007FA04F6B5438E68A6402E43C6600C79EA
:102C000004F00304022C11D1D40800EB8406356AC9
:102C10005407E40E0CFA04F825EA0805D1F81080F0
:102C200008FA04F848EA0508C6F820800568540048
:102C300007FA04F6B5430E7906F00306A6402E43C4
:102C400006604C6814F4403F5CD0334C256E45F070
:102C500001052566246E22F0030504F001040094AA
:102C60002E4C05EB0408D8F808509407260F0CFAF0
:102C700006F4A543B0F1904F04D0294CA04203D1F3
:102C8000012417E0002415E0264CA04202D10224C2
:102C900010E037E0244CA04201D103240AE0234C89
:102CA000A04201D1042405E0214CA04201D1052419
:102CB00000E00624B4402C43C8F80840D9F800408E
:102CC0004D464E689C43F60200D51C432C60DAF852
:102CD000004055464E689C43B60200D51C432C600C
:102CE000DBF800405D464E689C43B60300D51C43AC
:102CF0002C60DEF8004075464E689C43F60300D514
:102D00001C432C60521C0B6833FA02F47FF449AF69
:102D1000BDE8F88F080401400010024000000140A7
:102D20000004004800080048000C0048001000485B
:102D3000001400480069084000D0012070470AB123
:102D40008161704781627047014880687047000068
:102D5000B0000020024881684268114481607047D9
:102D6000B000002010B50024032000F0A3F80F20CD
:102D700000F008F808B1012401E000F047F820460F
:102D800010BD000030B505461B4887B0816D41F08D
:102D900010018165806D05A900F01000069068465D
:102DA00000F0ACFB00F0CAFB1449154AB0FBF1F18E
:102DB0001448491E0260416040F2E7320021C0E938
:102DC0000321816001F0FBF9040012D10D4801F0EC
:102DD00091FA04000DD1362000F03EF8102D07D2F4
:102DE00000222946362000F045F80748056000E03B
:102DF000012407B0204630BD0010024040420F00C1
:102E00000010004044390020B0000020114808B5EF
:102E1000016E41F001010166016E01F001010091B6
:102E2000816D41F080518165806D002200F08050FD
:102E300000900F21901E00F01DF80121002208468D
:102E400000F018F8012000F007F8BDE8084000F095
:102E5000A1B8000000100240002809DB00F01F02AA
:102E6000012191404009800000F1E020C0F80011EC
:102E700070470000F0B40E4B1B68C3F30223C3F18C
:102E80000704042C00D904241D1D072D01D20023A2
:102E900000E0DB1E012606FA04F56D1E0D409D4084
:102EA0009E40761E164045EA0601F0BC03F00EBDBA
:102EB0000CED00E0064A00F0070110684FF6FF0332
:102EC000184040EA012003490843106070470000A1
:102ED0000CED00E00000FA052B492C4B0A6832216A
:102EE0004A432B4940B1B0F5007F086829D020F44F
:102EF000C06040F480602CE00868C0F341200228E4
:102F000004D051F8800F20F4807022E0D1F88000C6
:102F100020F48070C1F88000086820F4C06040F49C
:102F200000700860B2FBF3F0401C00E0401E4A69EC
:102F3000520501D50028F9D1486940050AD503207A
:102F40007047C0F34120022806D051F8800F40F4AA
:102F50008070086000207047D1F8800040F48070D5
:102F6000C1F88000086820F4C06040F40070086078
:102F7000B2FBF3F0401C00E0401E4A695205DBD56D
:102F80000028F9D1D8E70000BC00002040420F0023
:102F9000007000400248816841F4804181607047C0
:102FA0000070004010B5144C2068C00304D500F038
:102FB00029F84FF4803020600F4C2034206800073F
:102FC00003D500F01BF8082020602068C00603D558
:102FD00000F015F8102020602068800603D500F06E
:102FE0000FF8202020602068400603D500F009F883
:102FF0004020206010BD000014040140704770475D
:1030000070477047704700002DE9F84F04460026CE
:103010000068C14D374600035DD5A86D4FF000092B
:10302000C00009D4A86D40F08050A865A86D4FF08D
:10303000010900F080500090DFF8E0A2DAF80010FB
:1030400041F48071CAF80010FFF77EFE804607E069
:10305000FFF77AFEA0EB0800022801D9032632E030
:10306000DAF80000C005F3D56EBBD5F8900010F477
:10307000407014D0216D814211D0D5F89000D5F860
:10308000901020F4407041F48031C5F89010D5F8CC
:10309000901021F48031C5F89010C5F89000C00759
:1030A0007ED0FFF751FE804641F2883A05E0FFF7F7
:1030B0004BFEA0EB08015145D0D8D5F89000800711
:1030C000F5D5002E6CD03746B9F1000F03D0A86DAE
:1030D00020F08050A8652078C00707D0D5F8880078
:1030E000616820F003000843C5F888002078800755
:1030F00007D5D5F88800A16820F00C000843C5F872
:1031000088002078400707D5D5F88800E16820F0CE
:1031100030000843C5F888002078000707D5D5F8A7
:103120008800216920F0C0000843C5F88800207895
:10313000C00607D5D5F88800616920F440700843BF
:10314000C5F888002078800607D5D5F88800A169E1
:1031500020F440600843C5F888002078400607D571
:10316000D5F88800E16920F440500843C5F888008C
:103170002078000607D5D5F88800216A20F4404061
:103180000843C5F888002088C00507D5D5F8880011
:10319000616A20F440300843C5F88800206800E0E8
:1031A00024E0800307D5D5F89C00A16A20F0030035
:1031B0000843C5F89C002088800507D5D5F888000D
:1031C000E16A20F440200843C5F8880020884005C3
:1031D00019D5D5F88800216B20F440100843C5F8B4
:1031E0008800206BB0F5801F09D00CE0D5F8900066
:1031F000216D20F440700843C5F8900064E7E8684A
:1032000040F48010E860208800050FD5D5F88800CC
:10321000616B20F440000843C5F88800606BB0F58E
:10322000800F03D1E86840F48010E8602088C00473
:103230000FD5D5F88800A16B20F040700843C5F881
:103240008800A06BB0F1807F03D1E86840F4801063
:10325000E860208881044FF000600ED5D5F8881012
:10326000E26B21F040611143C5F88810E16B8142A7
:1032700003D1E96841F48011E960218849040ED541
:10328000D5F88810226C21F040611143C5F88810F0
:10329000216C814203D1E86840F48010E860208806
:1032A00000040FD5D5F88800616C20F04050084329
:1032B000C5F88800606CB0F1805F03D1E86840F425
:1032C0008030E8602068C0030FD5D5F88800A16C75
:1032D00020F040400843C5F88800A06CB0F1804F52
:1032E00003D1E86840F48030E860206840030FD5DF
:1032F000D5F89C00E16C20F440100843C5F89C0010
:10330000E06CB0F5001F03D1E86840F48010E8607D
:103310003846BDE8F88F0000001002400070004001
:103320002DE9F0470D4604004FF0000725D0DFF8E7
:10333000AC91D9F8000000F00F00A8420CD2D9F8E7
:10334000001021F00F012943C9F80010D9F800003E
:1033500000F00F00A84210D12168614EC80741F269
:10336000883A58D06068DFF87C81032808D00228AA
:1033700030682CD0400500282BDB0120BDE8F08709
:1033800030688001F9D5F06800F00302F068C0F3FE
:103390000310401C032A18D0534AB2FBF0F0F26825
:1033A000C2F306225043F268C2F34162521C52003B
:1033B000B0FBF2F0404517D9B06810F0F00F0CD018
:1033C000880711D5A06840B10EE0484AE5E78003C0
:1033D000D1E700F0C5F8404506D9B06820F0F0000C
:1033E00040F08000B0608027B068616820F0030082
:1033F0000843B060FFF7A8FC804605E0FFF7A4FC97
:10340000A0EB080151453BD8B068616800F00C00A2
:10341000B0EB810FF2D12068810714D5400703D5A6
:10342000B06840F4E060B0602078000705D5B0686F
:1034300020F4605040F4E060B060B068A16820F013
:10344000F000084304E0802F03D1B06820F0F000C2
:10345000B060D9F80010484601F00F01A94217D911
:103460000168C84621F00F0129430160FFF76CFC99
:103470000746D14606E0FFF767FCC11B494501D965
:1034800003207BE7D8F8000000F00F00A842F2D13B
:103490002078400705D5B068E16820F4E060084373
:1034A000B0602078000706D5B068216920F460502C
:1034B00040EAC100B06000F053F8B1680C4AC1F3B3
:1034C0000311515C01F01F01C8400A4908600A4815
:1034D0000068BDE8F047FFF755BC0000002002403F
:1034E0000010024000B4C4040024F40000127A006A
:1034F000A0930008BC000020B00000200F22026052
:103500000C4A936803F003034360936803F0F003ED
:103510008360936803F4E063C36092684FF4E063F0
:1035200003EAD20202610448006800F00F0008605C
:103530007047000000100240002002400548064984
:1035400000688968054AC1F30221515C01F01F013E
:10355000C8407047BC00002000100240B093000833
:10356000184A10B59068C0F38101174801290BD0A3
:1035700091684410C1F38101022906D09168C1F31A
:103580008101032903D0002010BD204610BDD16861
:1035900001F00303D168C1F30311491C032B02D0CE
:1035A000B0FBF1F001E0B4FBF1F0D168C1F306210A
:1035B0004843D168C1F34161491C4900B0FBF1F0B7
:1035C00010BD0000001002400024F4002DE9F84373
:1035D000040078D02078F54DC00745D0A868E96888
:1035E00000F00C0001F003010C2802D0082817D0CD
:1035F00001E0032914D06068B0F5803F17D0B0F522
:10360000A02F286817D020F480302860286820F484
:10361000802028606068D8B1FFF796FB064613E06B
:103620002868800320D560680028D2D01CE0286874
:1036300040F48030EDE740F480202860F7E7FFF7A2
:1036400083FB801B64286ED828688003F7D50BE0C5
:10365000FFF77AFB064604E0FFF776FB801B642841
:10366000F1D828688003F7D4207880074BD5A86864
:10367000E96800F00C0001F003010C2802D00428D6
:103680000DD001E002290AD0E068002828682BD07C
:1036900040F480702860FFF757FB064619E0286861
:1036A000400502D5E068002893D06868217C20F0AE
:1036B000FE4040EA01606860BD480068FFF762FBB9
:1036C000002800D11FE06DE1FFF73EFB801B0228C0
:1036D000B9D828684005F7D56868217C20F0FE40FD
:1036E00040EA016068600EE020F480702860FFF717
:1036F0002BFB064604E0FFF727FB801B0228A2D81D
:1037000028684005F7D42078000728D5606900288C
:10371000D5F8940012D040F00100C5F89400FFF7EE
:1037200013FB064605E08FE0FFF70EFB801B022827
:1037300089D8D5F894008007F6D510E020F0010074
:10374000C5F89400FFF700FB064604E0FFF7FCFA1B
:10375000801B022878D8D5F894008007F6D420780A
:10376000400761D5A86D0027C00008D4A86D40F0BF
:103770008050A865A86D012700F0805000908D480A
:103780000168C90511D40168804641F48071016067
:10379000FFF7DAFA064604E0FFF7D6FA801B0228A4
:1037A00052D8D8F80000C005F6D5A068012815D079
:1037B0000528D5F8900016D020F00100C5F890003B
:1037C000D5F8900020F00400C5F89000A06841F200
:1037D0008838B8B1FFF7B8FA06460EE0D5F8900081
:1037E00040F00100F0E740F00400C5F89000F5E774
:1037F000FFF7AAFA811B414526D8D5F8900080072B
:10380000F6D50CE0FFF7A0FA064604E0FFF79CFAB5
:10381000811B414518D8D5F890008007F6D41FB118
:10382000A86D20F08050A8652078800628D5A06972
:103830000028D5F8980012D040F00100C5F8980093
:10384000FFF782FA064605E072E0FFF77DFA801B7B
:1038500002286DD8D5F898008007F6D510E020F042
:103860000100C5F89800FFF76FFA064604E0FFF77D
:103870006BFA801B02285BD8D5F898008007F6D435
:10388000E069E8B3A968C1F3810103295BD002288C
:10389000286820F08070286003D0FFF755FA0446AE
:1038A00049E0FFF751FA064604E0FFF74DFA801BA6
:1038B00002283DD828688001F7D4F4E908016FF0A8
:1038C0000F0202EB01110843218A5204490802EB5E
:1038D0004151A26841EA02210843217D4FF07E4216
:1038E000490802EB41610843217B40EAC160E96875
:1038F000314A11400843E860286840F0807000E0D9
:1039000052E02860E86840F08070E860FFF71CFA39
:10391000044604E0FFF718FA001B022808D82868BC
:103920008001F7D540E0FFF70FFA001B022802D90B
:103930000320BDE8F88328688001F4D4E8681F49B3
:103940000840E86030E00128F3D0E868226A00F01F
:103950000301914226D1616A00F0F0020901103999
:1039600091421FD1A26A00F4FE41B1EB022F19D19E
:1039700094F82C2000F07841B1EBC26F12D1218E67
:1039800000F4C00249084905A1F50011914209D18E
:1039900094F8341000F0C06049084906A1F10071A4
:1039A000814201D00120C4E70020C2E7001002409C
:1039B000B0000020007000400C809F01FCFFEEFE74
:1039C0007047000038B5016804464A688868C043FB
:1039D000430606D5C30704D1D3435B0601D4E16C8B
:1039E00005E0830708D4D3431B0605D4216D01B03D
:1039F0002046BDE830400847830603D5430601D57D
:103A0000C30551D4D3439B064ED443060AD494F83D
:103A10005D30032B49D0236E43F004032366CB684B
:103A20008B680093830609D4236E43F00103236659
:103A30008B6800930B6823F040030B60C00506D42D
:103A4000206E40F008002066206880680090206E9C
:103A5000002829D02068416821F0E0014160012060
:103A600084F85D00900701D4D00722D02068416817
:103A700021F003014160114DA06D40B18563A06D3F
:103A8000FEF740FF18B1206E40F040002066606DE8
:103A9000002809D08563606DFEF734FF002803D04D
:103AA000206E40F04000206638BDC86888680090ED
:103AB00038BD2046FFF784FF38BD0000715B000869
:103AC00070B5040009D0606A002540B125616561C8
:103AD000A56294F85D0040B10CE0012070BD606803
:103AE000B0F5827FF4D0E561F2E784F85C502046BF
:103AF00000F05CF8022084F85D002068016821F085
:103B000040010160E0684FF4E062904201D9002179
:103B100001E04FF48051B0F5706F02D0904200D0B8
:103B2000A562A088228900F4827002F40442104346
:103B3000227C02F002021043227D02F001021043B7
:103B4000228B02F400721043227F02F038021043ED
:103B500094F8202002F080021043228D02F40052DB
:103B6000104322681060A069042202EA104094F811
:103B7000242001F4805102F01002104394F8342004
:103B800002F008021043A28902F470621043084355
:103B9000216848602068C16921F40061C16125661F
:103BA000012084F85D00002070BD000070B586B073
:103BB000064614216846FCF7A6FB21493068884276
:103BC0003BD12049086E40F480500866086E00F42E
:103BD00080500590C86C40F00200C864C86C002595
:103BE00000F002000590282000900220CDE9010598
:103BF0000520CDE9035069461348FEF7C3FF144C76
:103C0000124820600B2060601020C4E9020580206B
:103C1000C4E90405A561E56120462562FEF70CFFB5
:103C200008B1FDF760F97465002206212320A66221
:103C3000FFF720F92320FFF70FF906B070BD000051
:103C4000003001400010024000040048080002401B
:103C5000003800202DE9F84F044690F85C0000265B
:103C60001D4690468A4601280ED04FF0010984F87F
:103C70005C90FFF769F8074694F85D004146B3464B
:103C8000012804D00226A8E00220BDE8F88FBAF18E
:103C9000000F78D0B8F1000F75D0032084F85D00D4
:103CA000C4F860B0C4F838A0A4F83C80A4F83E8002
:103CB000C4F840B0A4F844B0A4F846B0C4F850B07A
:103CC000C4F84CB0A068B0F5004F09D12068026874
:103CD00022F0400202602068026842F480420260E2
:103CE00020680268520603D4026842F04002026073
:103CF000E068B0F5E06F606824D908B101291BD1F4
:103D0000A06B21680088C86006E020688168890788
:103D100009D5A16B0988C160A06B801CA063E08FEE
:103D2000401EE08708E0FFF70FF8C01BA84202D34F
:103D3000681C01D004E01DB1E08F0028E5D138E017
:103D4000032648E008B1012930D1E08F0128A06B9B
:103D500003D921680088C8600FE0216800780873E3
:103D600014E0E08722E020688168890714D5E18F9C
:103D70000129A16B08D90988C160A06B801CA063D0
:103D8000E08F801EEDE724E009780173A06B401CF2
:103D9000A063E08F401EE4E7FEF7D6FFC01BA842F9
:103DA00002D3681C02D0CBE7002DC9D0E08F0028D9
:103DB000D9D13A462946204601F02BFF08B12020F0
:103DC0002066A06818B92068C16880680090206EDD
:103DD00008B1012601E084F85D9084F85CB03046BB
:103DE00053E7000070B5044690F85C0000250128F8
:103DF00009D0012384F85C3094F85D000026012886
:103E000003D002256CE0022070BD99B192B103206D
:103E100084F85D002666A163A287E2872664266592
:103E2000E664A4F84460A4F84660A068B0F5004FCA
:103E300002D00BE0012553E02068016821F0400129
:103E400001602068016841F480410160616D26488D
:103E50000863616D2548C862616D25484863606DDF
:103E600086632068416821F480414160E068B0F5D4
:103E7000E06F10D8606D8069B0F5806F0BD1E08F76
:103E8000C0072068416813D041F480414160E08F51
:103E900003EB5000E087E38F2268A16B0C32606D6A
:103EA000FEF72AFE50B1206E40F010002066C1E7F8
:103EB00021F480414160E08F4008EBE72068016811
:103EC000490603D4016841F040010160206841685F
:103ED00041F0200141602068416841F002014160E9
:103EE00084F85C60284670BDA55B0008AF5B0008E5
:103EF000835B000800680549884205D104480068D2
:103F0000002801D003F076BB70470000003001406C
:103F100088010020704770477047704730B590F8AF
:103F20003C20012A45D0012280F83C20CA688B68D9
:103F300022F440721A434B6822F480621A430B68E1
:103F400022F400621A430B6922F480521A434B692F
:103F500022F400521A430B6B22F480421A430B8B5B
:103F600022F4702242EA0342CB6922F080521A43C3
:103F7000114D03680024AB4205D0104DAB4202D076
:103F80000F4DAB4210D10D8D22F4700242EA055262
:103F90000D6A22F080722A434D6A22F000722A4391
:103FA000C96A22F000520A435A6480F83C4000205B
:103FB00030BD022030BD0000002C01400034014023
:103FC000005001407047704770470000F0B590F80E
:103FD0003C20012A43D0012580F83C50022280F881
:103FE0003D2003685A689C681E4E1F4FDFF87CC056
:103FF000B34203D0BB4201D0634504D122F4700E1A
:104000004A6842EA0E02DFF868E002EA0E02D1F8DE
:1040100000E04EEA020EC3F804E00268B24212D099
:10402000B2F1804F0FD0134B9A420CD0124B9A42F0
:1040300009D0124B9A4206D0BA4204D0104B9A4291
:1040400001D0624504D1896824F08003194391604E
:1040500080F83D50002180F83C100846F0BD022059
:10406000F0BD0000002C0140003401400050014030
:104070008FFFFFFD0004004000080040000C0040DE
:104080000040014010B5044649B104290AD008296E
:104090000BD094F8470001280AD0012010BD94F8F5
:1040A0004400F8E794F84500F5E794F84600F2E795
:1040B0000220A9B3042937D0082938D084F8470052
:1040C0000422206802F0E9F92068416C41F40041C3
:1040D000416418492068884214D0B0F1804F11D053
:1040E000154988420ED0154988420BD014498842A0
:1040F00008D01449884205D01349884202D0134998
:10410000884207D18168124A1140062906D0B1F5CC
:10411000803F03D0016841F001010160002010BD23
:10412000FFE784F84400CBE784F84500C8E784F84B
:104130004600C5E7002C0140000400400008004094
:10414000000C00400034014000400140005001409C
:104150000700010070B504460D460068002202F019
:104160009CF92068026A41F211131A4244F2444158
:1041700006D1026A0A4203D1426C22F40042426430
:104180002068026A1A4206D1026A0A4203D1016813
:1041900021F00101016001203DB1042D08D0082D5E
:1041A00009D084F84700002070BD84F84400FAE785
:1041B00084F84500F7E784F84600F4E7704710B547
:1041C000040003D094F83D0010B107E0012010BDB9
:1041D000002084F83C00204600F022F8022084F8F9
:1041E0003D00211D206802F0D9F8012084F8480024
:1041F00084F83E0084F83F0084F8400084F84100D1
:1042000084F8420084F8430084F8440084F84500B0
:1042100084F8460084F8470084F83D00002010BD73
:1042200008B50068104A1149904208D1086E40F460
:1042300000600866086E00F40060009008BD0C4A3B
:104240009042FBD1886D40F020008865886D002287
:1042500000F02000009002213720FEF70BFEBDE8A1
:1042600008403720FEF7F8BD002C01400010024046
:104270000014004090F83D10012901D00120704742
:10428000022180F83D1000681249884214D0B0F134
:10429000804F11D0104988420ED0104988420BD06F
:1042A0000F49884208D00F49884205D00E498842FC
:1042B00002D00E49884207D181680D4A1140062973
:1042C00006D0B1F5803F03D0016841F001010160E3
:1042D00000207047002C014000040040000800400E
:1042E000000C0040003401400040014000500140FB
:1042F0000700010090F83D10012901D0012070470E
:10430000022180F83D100168CA6842F00102CA60CB
:1043100000681349884214D0B0F1804F11D0114980
:1043200088420ED0104988420BD01049884208D0EC
:104330000F49884205D00F49884202D00E49884271
:1043400007D181680D4A1140062906D0B1F5803F9A
:1043500003D0016841F001010160002070470000B6
:10436000002C01400004004000080040000C004008
:1043700000340140004001400050014007000100AE
:104380002DE9F041044690F83C0000250F46012835
:104390001CD0012684F83C60022084F83D0020688F
:1043A0008168324A114021F47F4181603968B1F55A
:1043B000005F2DD017DC402948D00ADCD9B1102984
:1043C00019D0202917D0302948D114E00220BDE8A7
:1043D000F081502928D060292ED070290DD0B1F558
:1043E000805F3BD13BE011F00F0F37D10811A0F5F2
:1043F0008030072832D8206825E0D7E90121FB6802
:10440000206802F057F82068816841F0770109E0E0
:10441000D7E90121FB68206802F04CF82068816828
:1044200041F4804181601AE0FA687968206802F0FE
:1044300015FA5021206806E0FA687968206802F0D1
:104440001EFA6021206802F03FF808E0FA687968F7
:10445000206802F003FA40212068F4E7012584F87F
:104460003D60002084F83C002846B0E788FFCEFF7E
:104470002DE9F0410D46040003D094F83D0018B139
:1044800008E00120BDE8F081002084F83C002046CF
:1044900000F042F8022084F83D00206881681D4A3F
:1044A00011408160211D206801F078FF206881683B
:1044B0008269066A2B68AF690B4340F203318A4375
:1044C00042EA0722A968EF6911434FF6FC42914383
:1044D000EA6841EA07210A4329692F6A090141EA8A
:1044E000073111436A686D6926F0AA0646EA051588
:1044F0002A4383602068816154F8480B02620120DE
:1045000004F81F096075A075E076207720750020FB
:10451000B8E70000F8BFFEFF10B586B004461421CE
:104520006846FBF7F0FE16492068884225D11548F9
:10453000816D41F002018165816D01F002010591FB
:10454000C16C41F00101C164C06C002100F00100A8
:104550000590C02000900220CDE90101CDE90310B3
:1045600069464FF09040FEF70DFB002201211D200F
:10457000FEF780FC1D20FEF76FFC06B010BD0000AA
:10458000000400400010024030B5044600680D00F1
:1045900023D0042D04D00022114601F071FF2068C1
:1045A0000022042101F06CFF2068016A41F211121F
:1045B000114207D1016A9200114203D1016821F032
:1045C0000101016001205DB1042D0CD004F83E0F03
:1045D0006070A071E071002030BD00221146E1E75B
:1045E00004F83E0F01E004F83F0FA071F3E77047B5
:1045F0002DE9F04104460068C66805694FF00007E0
:10460000A90713D5B10711D5F91E01610120207743
:10461000206880698007204602D0FFF7E8FF04E0A9
:1046200000F002F9204600F0C4F92777680716D594
:10463000700714D521686FF004000861022020770C
:104640002068806910F4407F204602D0FFF7CFFF3A
:1046500004E000F0E9F8204600F0ABF927772807DE
:1046600015D5300713D521686FF0080008610420C4
:1046700020772068C0698007204602D0FFF7B7FF87
:1046800004E000F0D1F8204600F093F92777E8061F
:1046900016D5F00614D521686FF0100008610820C7
:1046A00020772068C06910F4407F204602D0FFF7D1
:1046B0009EFF04E000F0B8F8204600F07AF9277772
:1046C000E80708D0F00706D021686FF00100086104
:1046D000204600F05BFA280601D4A80408D530066D
:1046E00006D521686FF4025008612046FFF714FCDC
:1046F000E80508D5300606D521686FF4807008619A
:104700002046FFF708FC680608D5700606D5216824
:104710006FF040000861204600F042FAA80608D574
:10472000B00606D521686FF0200008612046FFF72B
:10473000F4FBE80208D5F00206D521686FF480107A
:1047400008612046FFF73FFCA80208D5B00206D555
:1047500021686FF4001008612046FFF733FC6802FF
:1047600008D5700206D521686FF4800008612046E4
:10477000FFF72AFC28020AD5300208D521686FF419
:10478000000008612046BDE8F041FFF717BDBDE815
:10479000F0810000F0B587B0044614216846FBF7AD
:1047A000B2FD1E492068884236D11D48C16C41F0D7
:1047B0000201C164C16C01F002010591C16C41F0BC
:1047C0000101C164C06C022500F0010005904FF4A6
:1047D000C04000900024CDE901540626114FCDE9D8
:1047E000034669463846FEF7CDF9A8030090CDE9A7
:1047F00001540420CDE9034069463846FEF7C2F96A
:104800004FF4E0600090CDE90154CDE903466946DC
:104810004FF09040FEF7B6F907B0F0BD002C014014
:104820000010024000040048704770B5044690F83C
:104830003C0000260D4601280BD0012084F83C00E6
:104840000C2A4AD007DC82B1042A20D0082A06D1DB
:1048500031E0022070BD102A53D0142A63D0012603
:10486000002084F83C00304670BD206801F036FE20
:104870002068816941F0080181612068816921F027
:1048800004018161206881692A69114311E020686F
:1048900001F07AFE2068816941F40061816120683D
:1048A000816921F480618161206881692A6941EA16
:1048B00002218161D4E7206801F0B6FE2068C16959
:1048C00041F00801C1612068C16921F00401C161A2
:1048D0002068C1692A69114311E0206801F0F4FEE3
:1048E0002068C16941F40061C1612068C16921F497
:1048F0008061C1612068C1692A6941EA0221C16100
:10490000AEE7206801F030FF2068016D41F008013A
:1049100001652068016D21F0040101652068016DC9
:104920002A69114311E0206801F05AFF2068016DE7
:1049300041F4006101652068016D21F48061016529
:104940002068016D2A6941EA0221016588E710B5F6
:10495000040003D094F83D0010B107E0012010BD21
:10496000002084F83C00204600F022F8022084F861
:104970003D00211D206801F011FD012084F8480050
:1049800084F83E0084F83F0084F8400084F8410039
:1049900084F8420084F8430084F8440084F8450019
:1049A00084F8460084F8470084F83D00002010BDDC
:1049B0007047704770B5044669B104290ED00829C4
:1049C0000FD00C2910D0102911D094F843000128E1
:1049D00010D0012070BD94F83E00F8E794F83F0035
:1049E000F5E794F84000F2E794F84100EFE794F817
:1049F0004200ECE70220E9B304294AD008294BD051
:104A00000C294CD010294DD084F843000122206895
:104A100001F036FD25492068254A264B264D88425F
:104A20000BD0904209D0984207D0244EB04204D017
:104A3000234EB04201D0A84203D1466C46F4004652
:104A400046642068884211D0B0F1804F0ED01D49D5
:104A500088420BD01C49884208D01C49884205D0A6
:104A6000904203D0984201D0A84209D18168184AE7
:104A7000114000E00AE0062906D0B1F5803F03D0DE
:104A8000016841F001010160002070BD84F83E0022
:104A9000BCE784F83F00B9E784F84000B6E784F843
:104AA0004100B3E784F84200B0E70000002C014069
:104AB00000340140004001400050014000440140EA
:104AC000004801400004004000080040000C004085
:104AD0000700010030B504460D460068002201F0D1
:104AE000CFFC244841F2111122688B0082420ED083
:104AF000214882420BD02148824208D0204882427D
:104B000005D02048824202D01F48824209D1106A53
:104B1000084206D1106A184203D1506C20F40040BC
:104B200050642068026A0A4206D1016A194203D120
:104B3000016821F00101016001205DB1042D0CD05C
:104B4000082D0DD00C2D0ED0102D0FD084F8430061
:104B5000002030BD84F83E00FAE784F83F00F7E714
:104B600084F84000F4E784F84100F1E784F842005B
:104B7000EEE70000002C01400034014000400140FD
:104B800000440140004801400050014000680349D2
:104B9000884201D1FEF7DEB87047000000100040E7
:104BA0007047FEE770B50D462DED028BB0EE428AE0
:104BB000044680EC030AC1ED011AFCF715F8B0EECB
:104BC000480A204600F01AFF29462046FCF722F842
:104BD000B0EE480A204600F07DF8BDEC028B20467E
:104BE000BDE8704001F0A6BA70B50D462DED028B00
:104BF000F0EE608AB0EE408ADFED330A38EEC80A84
:104C0000044630EE200ADFED310A01F06FFEDFEDE1
:104C1000300AA07B30EE601A30B101280BD0022898
:104C200022D003284AD147E084ED058AE088A842D3
:104C300044D8012014E084ED058AD4ED000AB0EEDA
:104C4000C10A0021B4EEE00AF1EE10FA0AD260893E
:104C5000401C80B26081A28890422FD361810220E3
:104C6000A0732BE0618129E0A089401C80B200EE96
:104C7000100AA0812089F8EE400A00EE100AF8EE32
:104C8000401A80EEA10A10EE101A84ED040AB1F168
:104C90007E5F06DBB7EE000A84ED040AA0810320E4
:104CA000A073D4ED040AB0EE480A00EE810A00F0C9
:104CB00063FD84ED050A01E0C4ED058A94ED050A63
:104CC000BDEC028B70BD0000E4CB1641DB0FC94088
:104CD000DB0F49401CB5DFED120A0446CDED000A9A
:104CE000CDED010ADFED0F0A01A9684620EE200A8A
:104CF000FBF744FED4ED070ADDED011A9DED001A25
:104D000094ED080A20EEA12A60EE810A00EE412A05
:104D100040EE210A84ED092AC4ED0A0A1CBD0000F8
:104D200000000000E12E654230B5010A41EA002092
:104D3000F9B081B2002001AD25F81010401CF02818
:104D4000FADB0024A3B2A1B2EF220020009500F00C
:104D500063F8641CF02CF5DB79B030BD2DE9F04F21
:104D60009B468146DDE909301C0A44EA03230025FD
:104D70009CB2030A43EA002083B2284602FB0BF6EA
:104D800002E021F81030401C8642FADC3CE005F1DC
:104D9000100E96453CD8203BDFB25E2F00D900278D
:104DA0000023BBEB430F2BD91A484FF0800A00EBCE
:104DB000071010F8038000202AFA00F616EA080F00
:104DC00016D003FB02F605EB460606EB400605EBA4
:104DD000400C21F8164001EB46067480012606EBD4
:104DE000430606FB02C621F8164001EB4606748016
:104DF000401CC0B20828DFD35B1CDBB2102BD0D321
:104E00001FFA8EF509F1010999F80030002BBED187
:104E1000BDE8F08FB89300082DE9F047141A5D1A29
:104E2000641C6D1C04FB05F807460E4615461C461F
:104E30002A20DDF8209000F035F9380A00F052F908
:104E4000F8B200F04FF9280A00F04CF9E8B200F08F
:104E500049F92B2000F026F9300A00F043F9F0B2AE
:104E600000F040F9200A00F03DF9E0B200F03AF914
:104E70002C2000F017F9012210211048FDF75FFFE8
:104E80000F4E4FF48065002229463046FDF757FF4C
:104E90004FF6FF7000EA480249460A48FEF7A2FFB3
:104EA00009484FF0FF31006802F026FB29463046E2
:104EB000BDE8F0470122FDF742BF000000040048B2
:104EC000000C00489C3700208801002070B50022AB
:104ED0001146012002F03EFB7049714D4FF4807481
:104EE0000860002221462846FDF729FF0122910291
:104EF0002846FDF724FF6600002231462846FDF7CC
:104F00001EFF322002F09EFA012231462846FDF7AC
:104F100016FF782002F096FA112000F0C3F87820EE
:104F200002F090FA362000F0BDF8002000F0DAF828
:104F30003A2000F0B7F8652000F0D4F8B22000F075
:104F4000B1F80C2000F0CEF80C2000F0CBF80020D7
:104F500000F0C8F8332000F0C5F8332000F0C2F8A4
:104F6000B72000F09FF8722000F0BCF8BB2000F0E2
:104F700099F83D2000F0B6F8C02000F093F82C20FE
:104F800000F0B0F8C22000F08DF8012000F0AAF87F
:104F9000C32000F087F8192000F0A4F8C42000F026
:104FA00081F8202000F09EF8C62000F07BF80F204A
:104FB00000F098F8D02000F075F8A42000F092F8E6
:104FC000A12000F08FF8E02000F06CF8D02000F075
:104FD00089F8042000F086F80D2000F083F81120F5
:104FE00000F080F8132000F07DF82B2000F07AF814
:104FF0003F2000F077F8542000F074F84C2000F0C7
:1050000071F8182000F06EF80D2000F06BF80B20FE
:1050100000F068F81F2000F065F8232000F062F827
:10502000E12000F03FF8D02000F05CF8042000F010
:1050300059F80C2000F056F8112000F053F8132016
:1050400000F050F82C2000F04DF83F2000F04AF816
:10505000442000F047F8512000F044F82F2000F0E1
:1050600041F81F2000F03EF81F2000F03BF8202000
:1050700000F038F8232000F035F8212000F012F875
:10508000292000F00FF80A2002F0DCF9214628461A
:10509000BDE870400122FDF752BE000088010020EB
:1050A000000C004831B5002210210B48FDF747FEE7
:1050B0000A4D4FF48064002221462846FDF73FFE4A
:1050C0006423012269460648FEF7C4FD01222146F9
:1050D0002846FDF734FE38BD00040048000C0048A7
:1050E0009C37002031B5012210210B48FDF727FE27
:1050F0000A4D4FF48064002221462846FDF71FFE2A
:105100006423012269460648FEF7A4FD01222146D8
:105110002846FDF714FE38BD00040048000C004886
:105120009C37002000EB8100006E00F0F8407047D3
:1051300000EB8100006E00F0F84070478068C0F31B
:10514000C00070478068C0F3C00070478068C0F33B
:10515000000070478068C0F3000070478068C0F3AB
:10516000800070478068C0F380007047C06810F40A
:10517000406F01D00020704701207047042303EAEC
:10518000D15310B518444369C1F3045107248C402E
:10519000A3438A401343436110BD042303EAD15360
:1051A00010B518444369C1F3045107248C40A3434C
:1051B0008A401343436110BD00EB8100016E21F072
:1051C000004111430166704700EB8100016E21F040
:1051D000004111430166704700281ED0F5EEC00A59
:1051E000B7EE001AF1EE10FA02D2DFED0F0A06E078
:1051F00010EE901AB1F17E5F01DDF0EE410A017907
:1052000061B131EE601AD0ED001A21EE211A00EEE4
:10521000801A80ED001AB0EE410A704780ED000A56
:1052200001210171704700000000000070B59AB0C4
:1052300000241794189420210FA81994FBF763F801
:105240003C216846FBF75FF837484FF0A041042542
:1052500001604FF44031C0E9011485610121C4604F
:10526000C0E9044104774177016280F82440C462B8
:10527000046380F83840C46380F84040FDF79AF832
:1052800008B1FBF730FE17A927481794FCF756FC26
:1052900008B1FBF728FE25480F9010A906207F26AD
:1052A00081E85100CDE913540FA91F48FCF7EEFC2B
:1052B00008B1FBF718FE1E4800900920019002205B
:1052C000CDE90206CDE904540320089084200A9019
:1052D0008DF8244080208DF825400B908DF82640D5
:1052E0008DF8304069461048FBF74CFE08B1FBF7DB
:1052F000FAFD1048009040F20F10019069460A48EC
:10530000FBF740FE08B1FBF7EEFD0B48009040F2C2
:105310001520019069460448FBF734FE002801D0AF
:10532000FBF7E1FD1AB070BD303700201000C0104F
:105330008000501D000180210002B0250D4808B5F5
:10534000816C41F004018164816C01F004010091E1
:10535000816C41F001018164806C002200F0010049
:10536000009006210B20FDF785FDBDE808400B20CD
:10537000FDF772BD0010024010B50B4A00210B482A
:1053800002F062F90A4C084A0021206024320948E0
:1053900002F05AF9044A606048320021064802F0DF
:1053A00053F9A06010BD000034930008815E00082E
:1053B000A40000206D5F00087D5F00082DE9F04328
:1053C00087B014216846FAF79EFF3F48C16C41F050
:1053D0002001C164C16C01F020010591C16C41F054
:1053E0000401C164C16C01F004010591C16C41F07C
:1053F0000101C164C16C01F001010591C16C41F072
:105400001001C164C16C01F010010591C16C41F043
:105410000201C164C16C01F002010591C16C41F04F
:105420000801C164C06C294F00F0080005900122FA
:105430004FF4E0613846FDF782FCDFF894800122EA
:1054400010214046FDF77BFCDFF888900022032105
:105450004846FDF774FC4FF4E0400025CDE9000517
:105460000124694602944846FDF78CFB20028DE832
:105470003100694638460395FDF784FB6002CDE9AB
:1054800000040220CDE9024069463846FDF77AFB68
:10549000A002CDE900040326CDE90246694638465C
:1054A000FDF770FB10208DE8710069464046FDF75E
:1054B00069FBCDE9006469464846CDE90245FDF740
:1054C00061FB07B0BDE8F08300100240000C00480B
:1054D0000004004800100048124810B5104901604F
:1054E0004FF48271416000214FF4E062C0E9021282
:1054F0000222026101224261520282611022C0E94D
:10550000072107224162C0E90A1201634163FEF7E5
:10551000D7FA002803D0BDE81040FBF7E4BC10BD6B
:10552000003001409C37002070B59CB000241994D5
:105530001A9417941894149415941C216846169480
:10554000FAF7E1FE342107A8FAF7DDFE3B483A49B5
:1055500040F6AB52016001216025C260C0E901152F
:10556000C0E904418461FEF72AFE08B1FBF7BBFCE9
:105570004FF48050179017A93048FEF701FF08B18B
:10558000FBF7B1FC2D48FFF7E2F908B1FBF7ABFCE4
:105590007026CDE9146414A928481694FEF716FD68
:1055A00008B1FBF7A0FCCDE90054029403940494E5
:1055B00005940022694621480694FFF736F908B1A0
:1055C000FBF791FC042269461C48FFF72EF908B14D
:1055D000FBF789FC082269461848FFF726F908B14D
:1055E000FBF781FC40F6AA50CDE900600C22694629
:1055F0001248FFF71AF908B1FBF775FC0794282049
:105600000894CDE909404FF40050CDE90B400D94CA
:1056100000030E94CDE90F401194129407A9074896
:105620001394FEF77BFC08B1FBF75DFC0348FFF722
:10563000B1F81CB070BD0000002C014060380020A3
:1056400010B58CB024216846FAF75DFE0024174897
:1056500009940A9414490B94C0E900144FF47A6138
:10566000C0E90241046184610320CDE90004012006
:10567000CDE9020405210491CDE90540CDE90741BA
:1056800069460A48FEF7F4FE08B1FBF72CFC0994C2
:1056900009A906480B94FEF799FC002801D0FBF7F6
:1056A00022FC0CB010BD000000040040AC3800200B
:1056B0003EB500240F48009401940D490294016006
:1056C0001321C0E9011441F658318461C160FEF72D
:1056D00076FD08B1FBF707FC009469460548029483
:1056E000FEF774FC002801D0FBF7FDFB3EBD000077
:1056F00000140040F8380020FEE7000010B500213B
:105700001748FFF7E7F904211548FFF7E3F90821E7
:105710001348FFF7DFF900211148FEF71BFD0421B4
:105720000F48FEF717FD08210D48FEF713FD0E4840
:105730009FED0C0A0E4980ED150A80ED160A80EDEA
:105740000A0A0A4880ED000A80ED010A81ED000A8C
:1057500080ED060A80ED070A81ED040A10BD000005
:10576000603800200000000004000020E439002020
:10577000043A0020FEE7000010EE100A0849DFEDB1
:10578000070A884202DB30EE600A7047B5EEC00AB5
:10579000F1EE10FAF9D230EE200A7047DB0FC94063
:1057A000DB0FC94010B504462DED028B82B0B0EE80
:1057B000608AF0EE408A9FED420A8DED000A8DED81
:1057C000010A90ED080ADFED3F0A01A9684620EEC4
:1057D000200AFBF7D3F89DED010ADDED000A28EE63
:1057E000C00A08EE600A84ED050A28EEA80A08EE51
:1057F000080A01F0D3F89FED341AD4ED050A3349B5
:1058000030EE011A80EE810A10EE100A84ED050ACE
:10581000884201DD9FED2E0A2E4910EE100A84ED1C
:10582000050A884201D99FED2C0A2C4984ED050A0E
:10583000D4ED000A20EE201A84ED021AD4ED030AFA
:10584000D4ED011A40EE210A10EE900AC4ED030ACD
:10585000DFED230A884201DDC4ED030A214AE06836
:10586000DFED211A904201D9C4ED031A94ED030A29
:1058700031EE000A10EE100A84ED060A884201DDBE
:10588000C4ED060AA069904201D9C4ED061AD4ED10
:10589000060A9FED160A20EE800A84ED070A94EDB1
:1058A000080A94ED041A00EE810A84ED080AFFF755
:1058B00063FF84ED080A02B0BDEC028B10BD00004E
:1058C00000000000E12E65426F12833AA60A063FEF
:1058D000A60A063FA60A06BFA60A06BF00401C4548
:1058E00000401C4500401CC500401CC59CC418401D
:1058F000B0EE405AB0EEE00AF1EE080A3A4A20EE65
:10590000200ADFED3A4A10EE101A914206DB90EDC4
:10591000002A374A12EE101A914202DAB0EE640AF7
:10592000704760EE001A21EE010AF7EE000AB1EEB0
:10593000004A3049C0EE802A80EE810A90ED011ABB
:1059400022EE843A61EE043A22EE044AF0EE430A73
:1059500024EE014A43EE800A64EE005A03EEC03A98
:1059600070EEA10A85EEA04AF9EE005A22EE252A31
:1059700022EE011A21EE002A33EE210A82EE201ACD
:10598000B0EE002A61EE825AB2EE002A42EEC25A0E
:10599000D0ED032A85EEA02AC0EE201A24EE050AD7
:1059A000D0ED020A04EEA00A01EE220A90ED041ADC
:1059B00002EE410A90ED052AC0ED030A80ED025A7D
:1059C00080ED051A01EEC20A80ED040A10EE100AFD
:1059D000884201DDB0EE080A10EE100A10F17F5F78
:1059E0009ED9B8EE080A7047000070410000000020
:1059F000CDCCCC3D00004040FDF7D4BA1CB5DFED66
:105A0000120A0446CDED000ACDED010ADFED0F0AC2
:105A100001A9684620EE200AFAF7B0FFD4ED030A88
:105A2000DDED011A94ED040A9DED001A20EEA12A85
:105A300000EE012A20EE210A00EEC10A84ED052ABB
:105A400084ED060A1CBD000000000000E12E654246
:105A500070B50D462DED028BB0EE428A044680EC07
:105A6000030A9FED0E0AC1ED011A81ED000AFBF752
:105A7000BBF8B0EE480A2046FFF7C0FF2946204693
:105A8000FBF7C8F8B0EE480A2046FFF723F9BDEC53
:105A9000028B2046BDE8704000F04CBB00000000C7
:105AA00070B5B0EE402A2DED048BB0EE618AF0EEB9
:105AB000608A90ED070A0D46044630EE410A02F076
:105AC0005DFAD4ED020A9FED259A254820EE200AC2
:105AD00084ED0C0AD4ED000A94ED071A32EE402A48
