:020000040800F2
:10000000E0070020F1010008C9440008F73D00089E
:100010004D440008E9080008A35000080000000053
:10002000000000000000000000000000B9480008C7
:10003000210B000800000000A1470008FD4A00084D
:100040000B0200080B0200080B0200080B0200085C
:100050000B0200080B0200080B0200080B0200084C
:100060000B0200080B0200080B0200080B0200083C
:100070000B0200080B0200080B0200080B0200082C
:100080000B0200080B020008A50700080B0200087D
:100090000B0200080B0200080B0200080B0200080C
:1000A0000B0200080B0200080B0200080B020008FC
:1000B0000B020008794B00080B0200080B02000835
:1000C0000B0200080B0200080B0200080B020008DC
:1000D0000B0200080B0200080B0200080B020008CC
:1000E0000B0200080B0200080B0200080B020008BC
:1000F0000B0200080B0200080B0200080B020008AC
:100100000B0200080B0200080B0200080B0200089B
:100110000B0200080B020008854B0008914B0008F9
:100120000B0200080B0200080B0200080B0200087B
:100130000B0200080B0200080B0200080B0200086B
:100140000B0200080B0200080B0200080B0200085B
:100150000B0200080B0200080B0200080B0200084B
:100160000B0200080B0200080B0200080B0200083B
:100170000B0200080B0200080B0200080B0200082B
:100180000B0200080B0200080B0200080B0200081B
:100190000B020008000000000B0200080B02000820
:1001A0000B0200080B0200080B0200080B020008FB
:1001B0000B0200080B0200080B0200080B020008EB
:1001C0000B0200080B0200080B0200080B020008DB
:1001D0000B0200080B020008DFF810D000F002FA52
:1001E00000480047ED510008AFF30080E007002011
:1001F0000648804706480047FEE7FEE7FEE7FEE7C1
:10020000FEE7FEE7FEE7FEE7FEE7FEE7694B0008D4
:10021000D9010008D2B201E000F8012B491EFBD23F
:1002200070470022F6E710B513460A460446194601
:10023000FFF7F0FF204610BD2DE9FE4F81EA0304D1
:1002400004F0004421F0004100944FF0000B23F033
:10025000004350EA01045ED052EA03045BD0C3F3CA
:100260000A54C1F30A552C44A4F2F3340194A0FBC0
:100270000254C1F3130141F48011C3F3130343F497
:10028000801301FB024400FB034E840A970A44EAF0
:10029000815447EA8357A4FB076802958D0A05FB42
:1002A00007854FEA932C04FB0C542705029D4FEA67
:1002B000065847EA1637B5EB08056EEB070C870EB4
:1002C000920E47EA811742EA8312A7FB0201B6EBBE
:1002D0000B0164EB00042B0D43EA0C335E1844EB76
:1002E0001C50DA465146E7FB0201C5F313044FEAFE
:1002F0000B3343EA14534FEA0432019C43EA0603EA
:10030000A4F10C040294009CCDE900B400F01CF9A7
:1003100003B0BDE8F08F00200146F9E72DE9F04D6C
:1003200081EA030404F0004B21F0004514464FF02D
:10033000000A23F0004150EA050220D054EA0102ED
:100340001DD0C5F30A570246C5F31303C1F31300CA
:10035000C1F30A5640F4801543F48013A7EB060856
:10036000101BD64608F2FD3873EB050002D308F1E6
:10037000010801E092185B41B8F1000F03DA002098
:100380000146BDE8F08D00204FF4801106468446FA
:100390000EE0171B73EB050705D3121B63EB050378
:1003A00006434CEA010C49084FEA300092185B41C1
:1003B00050EA0107EDD152EA030012D082EA0400AC
:1003C00083EA0501084305D0101BAB4106D2012288
:1003D000002306E000224FF0004302E06FF001022C
:1003E00053101AEB06004CEB085110EB0A0041EBDE
:1003F0000B01BDE8F04D00F098B80EB540F2334166
:1004000002910021CDE900110A460B4600F09CF84C
:1004100003B000BD01F0004330B421F0004150EAC8
:10042000010206D00A0DA2F56072C1F31301002A81
:1004300002DC30BC00207047440F44EAC104C10014
:10044000E01830BC00EBC25000F00FB8202A04DBEB
:10045000203A00FA02F1002070479140C2F12003D7
:1004600020FA03F31943904070470029A8BF704752
:10047000401C490008BF20F00100704710B4B0FADA
:1004800080FC00FA0CF050EA010404BF10BC704775
:1004900049B1CCF1200421FA04F411FA0CF118BF8F
:1004A000012121430843A3EB0C01CB1D4FEA00615E
:1004B0004FEA102042BF002010BC704700EBC35031
:1004C00010440029A4BF10BC7047401C490008BF5D
:1004D00020F0010010BC7047F0B400F0004221F0A1
:1004E000004120F00040CE0DC30DC1F3160141F4D0
:1004F0000001C0F316004C42154640F40000761E81
:1005000009E010EB440002D582F0004240428842EC
:10051000F7D840005B1EB342F9DA18B1F0BC0021F5
:10052000FFF7ACBF2846F0BC704710B5141E73F13E
:10053000000408DA401C41F1000192185B411A43A3
:1005400001D120F0010010BD2DE9F04D92469B46EF
:1005500011B1B1FA81F202E0B0FA80F22032904695
:10056000FFF774FF04460F4640EA0A0041EA0B0118
:1005700053465A46084313D0114653EA010019D096
:10058000C8F14002504600F03FF805460E4650467E
:1005900059464246FFF75AFF084305D0012004E0C0
:1005A00020463946BDE8F08D0020054346EAE07656
:1005B0002C4337430A986305E40AA0EB08000022A5
:1005C000FD0A44EA47540A3002D500200146E9E713
:1005D000010510196941DDE9084500196941BDE8C7
:1005E000F04DA2E7064C074D06E0E06840F001033D
:1005F00094E8070098471034AC42F6D3FFF7F0FDBB
:10060000645B0008845B0008202A04DB203A21FA9E
:1006100002F00021704721FA02F3D040C2F120021B
:10062000914008431946704770B58C1810F8015B6B
:1006300015F0070301D110F8013B2A1106D110F87B
:10064000012B03E010F8016B01F8016B5B1EF9D17F
:100650002B0705D40023521E0DD401F8013BFAE705
:1006600010F8013BCB1A921C03E013F8015B01F870
:10067000015B521EF9D5A142D8D3002070BD000005
:1006800080B59FED441A9FED443A20EE011AB0EE7A
:10069000C11ABDEEC12AB8EEC22A31EE421A21EECD
:1006A000031ABDEEC12A12EE102A02F1800E6FF37A
:1006B0005F2245F2603CC0F6000C02EE102A6FF398
:1006C0005F2E0CEB8203B8EE422A0CEB8E0231EE69
:1006D000421A92ED002A92ED013A93ED004A93ED11
:1006E000015A9FED2E7A33EE426A74EE050A20EE2F
:1006F000877A76EE060A74EE041ADFED292A37EEC1
:10070000607AF0EE080A75EE211A26EE206A61EE94
:10071000A21A21EE077A36EE216A36EE076A21EE3A
:10072000066A24EE227A36EE476A21EE066A32EE37
:10073000066A81ED006A35EE445A32EE036A26EE0F
:10074000226A35EE057A36EE476A32EE027A33EEE9
:10075000073A25EE205A23EE223A21EE066A35EEBC
:10076000433A33EE063A21EE033A22EE222A32EEE3
:10077000032A21EE021A34EE011AB5EE400AB1EE58
:10078000412AF1EE10FAB8BFB0EE421A80ED001A1D
:1007900080BD00BF610B363B00000044DB0F49BC4D
:1007A000DB0F493C014801F0AFBA00009401002082
:1007B00070B5044600688168C1F3400503F0F2FBA0
:1007C00048B345BB2068816801F00D01012914D1AF
:1007D0008168124A1140891C8160216803200860E9
:1007E00001F0D8FE054612E001F0D4FE401B0228BD
:1007F0000DD920688068C00709D0E06D40F0100076
:10080000E065206E40F001002066012070BD206888
:100810008068C007E8D1002070BD0000C0FFFF7FE6
:10082000F8B5044600200090206803F0BBFBE8BB4D
:1008300020688168264A114237D18168D643314009
:10084000491C81602068B0F1A04F02D02149884244
:1008500001D1214800E02148806800F0E0700002EA
:100860000DD51F481F490068B0FBF1F0401C00EB9C
:100870004000800000E0401E00900028FBD101F005
:1008800089FE05461DE003F08DFB20B920688168D4
:100890003140491C816001F07DFE401B022810D9C7
:1008A00020680068C043C0070BD000E00EE0E06D98
:1008B00040F01000E065206E40F00100206601204D
:1008C000F8BD20680168C943C907DCD10020F8BD24
:1008D0003F0000800001005000030050000700505E
:1008E000B0000020400D0300FEE7000090ED000A7C
:1008F000DFED070A80ED030A9FED061A20EE200ABD
:10090000D0ED010A00EE810A80ED040A7047000074
:100910003ACD133F3ACD933F10B504462DED048BED
:100920000B46D1ED002A90ED050A32EEC00A81EDAA
:10093000020A91ED012AD0ED060A72EE600AC1EDBD
:10094000030A91ED061A31EE001A81ED061AD1ED77
:10095000071A11EE100A71EEA01AC1ED071A4549E7
:10096000884203DD9FED441A83ED061A43499869D6
:10097000884203D99FED421A83ED061A11EE900AC0
:100980004049884203DD9FED401A83ED071A3F4935
:10099000D869884203D99FED3E1A83ED071AD3ED3B
:1009A000051A93ED041A93ED063A61EEA06A61EE22
:1009B000807AD3ED070A9FED3B9A3B4841EE206ACF
:1009C00041EE037AD4ED140A9FED321A60EE810AEB
:1009D000B1EE001A20EE816ADFED2F0AB0EE491A5F
:1009E00066EE200A60EE828ADFED2C0A66EE200AAF
:1009F00020EEA27ADFED2A0A06EE207AF0EE460A11
:100A000003F020FE2848B0EE408A93ED030AB0EED2
:100A1000491AF0EE460A183003F014FE77EEA80AE1
:100A200036EE871A214970EE880A31EE000A10EE80
:100A3000900AC4ED070A84ED080AF2EE0A0A884219
:100A400001DDC4ED070A1A4AE069BAEE0A1A9042BB
:100A500001D984ED071A10EE100A884201DDC4EDB9
:100A6000080A206A904201D984ED081ABDEC048B73
:100A700010BD000000801D4400801D4400801DC486
:100A800000801DC40000484400004844000048C4E1
:100A9000000048C45077D63DB40158B97F87223949
:100AA0004260E53B17B7D138B40000200000504148
:100AB000000050C10648016841F08071016005489E
:100AC00000214160016841F00101016070470000B0
:100AD000FCED00E0001000E0002802D00149496868
:100AE00001607047001000E0002812D009494968F1
:100AF0000268DFED090A891A00EE101A4160B8EEAB
:100B0000400A20EE200ADFED050A80EE201A80ED73
:100B1000021A7047001000E000247449B083054DAC
:100B2000704700002DE9F041314D2DED028B2B78FF
:100B30008B4254D11388002633B103EB4304C4EB3A
:100B4000C31300EB431016806860AA680446871A36
:100B50004FF47A60B0FBF1F0EF60FFF74EFC9FEDD1
:100B6000251B53EC112BFFF767FB41EC180B3846A4
:100B7000FFF743FC53EC182BFFF75EFB9FED1F1BA9
:100B800053EC112BFFF7CAFBFFF744FC1D4A6978B1
:100B900042F82100491CC9B26970AC600A291DD114
:100BA0000A2300205B1E0EE002EB800191EC020A9A
:100BB000B4EEE00AF1EE10FA03DDC1ED000A81EDBA
:100BC000010A401CC0B29842EEDB13F0FF03E8D1EB
:100BD0000220401CC0B20828FBD36E702E7028780B
:100BE000401C287095ED040ABDEC028BBDE8F08135
:100BF000700100200000000000004E4000000000D6
:100C00000040AF40B803002072B6FEE7F8B50025FB
:100C10000446009590F858000E4601280BD001209C
:100C200084F858002046FFF7C3FD0200E06D04D0B1
:100C300040F010002AE00220F8BD20F4885040F077
:100C40000200E06520688168134B194006F080437C
:100C5000194341F000418160104B20680EE000997B
:100C6000491C0091994209D3E06D20F0020040F048
:100C70001000E06584F858500120F8BD8168C90F64
:100C8000EDD1E06D20F0020040F00100E06584F855
:100C900058501046F8BD0000C0FFFF3F02DE0400C0
:100CA000704700002DE9F84F4FF000090446CDF8D9
:100CB00000900D4694F85820DFF8008461694F4693
:100CC0004846012A0AD00126FD4A84F8586041B1FD
:100CD000296A012905D0A36EEBB129E00220BDE805
:100CE000F88F6868092838D1A96A4FF4785041B163
:100CF0002B6801F07C0100EA53400843E96A08438D
:100D000002E0296800EA51402168CB6C134003439C
:100D1000CB64606621E0C4E91971A96A286A31B11F
:100D200001F07C01401E0843E96A084300E0401ED0
:100D30002968C1F38463297901F01F018B40A16EFA
:100D40000343491EA166606E40EA0300606604D159
:100D50002168CB6C13400343CB64206803F01EF979
:100D600058B995F8250098B12068C16895F82620F3
:100D700021F4401141EA4251C160206803F01EF99C
:100D80008246206803F00AF95AEA00010DD0FAE021
:100D900095F8260095F82410400540EA0151206896
:100DA000C26822F440121143E6E7A86A30B1E86A4B
:100DB00020B195F8250001285DD003E095F82500C5
:100DC000012804D02068C16821F0007103E0206888
:100DD000C16841F00071C16095F83000012851D020
:100DE0002068016921F002010161AA682968206870
:100DF000B2F1004F37D003F0FCF82068416921F0D0
:100E00000041416120686969C268C2F3C1025200B1
:100E100091402A69042A43D000EB82002B68026EBD
:100E2000DFF8A0C203F0F84302EA0C020B431A43B6
:100E300042F00041016622682869A96902EB80003E
:100E4000026E22F080720A430266297F22682869B6
:100E5000012922D0002102EB8000026E22F00072F4
:100E60000A4302668FE0002203F0C3F8206841695C
:100E700041F00041C5E7E06D40F02000E0654FF033
:100E80000109A9E7D5E90D1001432068026922F4A0
:100E9000FF7242F002021143A6E74FF00071DAE759
:100EA000002103F071F8400320684FF0000171D079
:100EB00003F06AF890FAA0F0B0FA80F128684203D3
:100EC0006DD090FAA0F0B0FA80F0814204D10022F7
:100ED0001146206803F0A4F80121206803F054F8BB
:100EE000400320684FF001015CD003F04DF890FA08
:100EF000A0F0B0FA80F12868420358D090FAA0F030
:100F0000B0FA80F0814204D100220121206803F070
:100F100087F80221206803F037F8400320684FF07B
:100F2000020147D003F030F890FAA0F0B0FA80F157
:100F30002868420343D090FAA0F0B0FA80F08142D2
:100F400004D100220221206803F06AF803212068FE
:100F500003F01AF8400320684FF0030132D003F089
:100F600013F890FAA0F0B0FA80F1286842032ED06E
:100F700090FAA0F0B0FA80F0814204D1002203215F
:100F8000206803F04DF8206803F010F810B3B3E0C8
:100F900000E004E002F0F8FFC0F384618EE7C0F3E4
:100FA000846092E702F0F0FFC0F38461A3E7C0F32E
:100FB0008460A7E702F0E8FFC0F38461B8E7C0F3FC
:100FC0008460BCE702F0E0FFC0F38461CDE7C0F3CA
:100FD0008460D1E721682A7B286851F8B03FC0F3CC
:100FE000120C23EA0C0302F0180C374A22FA0CF216
:100FF000024013430B60E96841457DD128684103F5
:101000001AD090FAA0F1B1FA81F1491C01F01F0148
:1010100009294FEA403130D8002910D090FAA0F1C8
:10102000B1FA81F101F1010101F01F0106FA01F6A7
:1010300008D1C0F3846109E0C0F38461E5E7C0F33F
:101040008461EFE790FAA0F1B1FA81F101F10101B9
:1010500001F01F0146EA816102D1C0F3846003E020
:1010600090FAA0F0B0FA80F000F1010000F01F004B
:1010700000EB400041EA00513AE000290DD090FA1F
:10108000A0F1B1FA81F101F1010101F01F0106FAAD
:1010900001F605D1C0F3846106E0C0F38461F2E794
:1010A00090FAA0F1B1FA81F101F1010101F01F0103
:1010B00046EA81610BD1C0F384600CE000007F4000
:1010C0000040100400F0FF03FFFF070014E090FA57
:1010D000A0F0B0FA80F000F1010000F01F003A4AE1
:1010E00000EB400002EB005041EA000141F00071CA
:1010F000AA68206802F07DFF34482A6802425ED068
:1011000020684FF0A04C324B324E334D604501D039
:10111000A84201D1194600E031468968DFF8BC8059
:1011200001F0E071424503D0DFF8B480424520D1A0
:101130005FEA01281DD4604505D02A4A90423ED17D
:10114000A84200D0334641F40000996821F0E071D4
:1011500001439960244825490068B0FBF1F0801CE8
:1011600000EB4000800000E0401E00900028FBD112
:1011700025E0DFF87C8042450FD15FEAC1180CD42E
:10118000A84202D11B4A904219D0604502D0A84221
:1011900000D0334641F080700CE0DFF85C804245BF
:1011A0000DD14A020BD4A84209D0604500D0334685
:1011B00041F48000996821F0E0710143996084F85E
:1011C000587048468BE50000000020FE00000880B3
:1011D000000300500007005000010050000021C330
:1011E0001000C09000060050B0000020400D030029
:1011F000000052C700050050000084CB2DE9F047E5
:1012000007462DED028BE348FFF766FCE24EE3490B
:10121000E348D6ED041A96ED031AD6ED0A0A96EDC8
:10122000090A03F0E7FADF4CDFF8709384ED100A47
:1012300099ED070A84ED110ADFEDDB0A04F19C0049
:1012400002F0F6FE84ED120A86ED140A9FEDD71A1D
:10125000DFEDD70AD74940EE010A10EE900AC4ED3F
:101260001B0AB0F17F5F02DAB7EE080A08E010EE61
:10127000900A884202DC94ED1B0A03E0B2EE0E0AEB
:1012800084ED1B0AC648002580ED020ACA489FED7E
:10129000CB8A4FF0010887427AD12278EAB30068FE
:1012A00050F8802F92B2628143689BB2A38180681C
:1012B00080B2E081278AD21B00EE102AB8EEC00A65
:1012C0009FEDBF1A20EE010A84ED090A628AB0EE92
:1012D000C00A9A1A00EE902AF8EEE00A60EE810A3F
:1012E000C4ED0A0AA28A801A01EE900A10EE100AD2
:1012F000F8EEE11A884221EE811A84ED0B1A0BDC1C
:10130000B0EEE00A10EE100A884205DCB0EEC10A29
:1013100010EE100A884203DD00E00FE084F803803D
:10132000E078A0B303F094F884ED1D8A6571A5718F
:1013300065832583BDEC028BBDE8F0872179491CCC
:10134000CBB22371006850F8802F62814168A1817F
:101350008068E081278A0A2B3A4492B22282678A07
:10136000394489B26182A78A384480B2A0820FD3FF
:101370000A23B2FBF3F2B1FBF3F1B0FBF3F02282EC
:101380006182A08284F8008084F8018003E0FFE796
:10139000607800287ED0A07800287BD194ED0C0ADC
:1013A000D4ED0D0A30EE200A84ED0C0A03F08EF81D
:1013B00084ED0C0A218BD4ED100A824802F03EFD28
:1013C000804884ED130A804F807BB0EE402A0328CA
:1013D00014D004F12402D4ED181A7C496E4892EC22
:1013E000030A02F009FD208B401C20836571658390
:1013F000A57184ED1D8A87ED048A74E06079D8B107
:10140000A079401CC0B2A0710A2871D3A571D4ED97
:101410001D0A94ED1A0AB7EE001AF4EEC00AF1EEB6
:1014200010FA66D270EE810AC4ED1D0AF4EEC00A0D
:10143000F1EE10FA67DC68E094ED0E0A32EE000A75
:1014400003F044F804F12402B0EE402A92EC030ABF
:10145000D4ED181A5D49504803F0A4F999ED050A36
:101460005B49B0EEC00A10EE100A884227DA608BA2
:10147000401C80B26083B0F5966F64D384F8058019
:10148000A57196ED140A84ED1D0A87ED000A70EE31
:10149000400A00E057E0C7ED010A97ED020A4D4906
:1014A00010EE100A88420CDDD7ED031A94ED181ADD
:1014B00001EEE01AC1EE000AC7ED040A03E06583FD
:1014C00041E087ED048A44493869884203DD9FED95
:1014D000430A87ED040A42493869884203D99FEDDF
:1014E000410A87ED040A94ED180A84ED190A2AE0EE
:1014F00015E00ADD70EEC10AC4ED1D0AF4EEC00A63
:10150000F1EE10FA01D284ED1D0A94ED1D0A254A70
:1015100087ED000A64322C491F4803F0CFF994ED9F
:10152000130AD4ED0E0A30EE200A02F0CFFF04F1C8
:101530002402B0EE402A92EC030AD4ED191A234992
:10154000154803F02FF91348FFF7CEFA96ED070A76
:10155000144884ED1F0A96ED080A803080ED000AD9
:1015600096ED090A80ED010A96ED0A0A80ED020A5D
:1015700096ED050A80ED030A96ED060A80ED040A51
:1015800096ED030A80ED050A96ED040A80ED060A41
:10159000D0E6000088010020300300202C0100204C
:1015A000F4000020000000208FC2753C4B59063C1F
:1015B000516B5A3E00007041940100200000000071
:1015C00023B900BC58010020A4030020840300209C
:1015D0009A99193FBD37863500803B4600803B46CF
:1015E00000803BC600803BC6704700002DE9F041FB
:1015F000044600684FF0A0464C4FB04201D0B842BC
:1016000001D14B4900E04B49896801F01F0502F008
:10161000C5FC08BB2068C168C06C01F0004110F433
:10162000C07F00D191B194F85800012814D0012056
:1016300084F858002046FFF7F3F801004FF000024D
:101640000CD084F858200846BDE8F081E06D40F0E9
:101650002000E0650120F7E70220F5E7E06DC00516
:1016600004D5206E20F00800206600E02266E06DC0
:1016700042F20103984340F48050E06520682E4B0D
:10168000DFF8B8C0B84201D1B64604E0984201D1B3
:10169000E64600E08646864500D02DB9D4F85CE0E9
:1016A0002EF4801EC4F85CE04FF0600EC0F800E03D
:1016B00084F858202068C268920203D5426842F438
:1016C00080624260A06908282068426807D022F042
:1016D000400242602068426842F0200206E022F0A8
:1016E000200242602068426842F040024260206866
:1016F000B84204D0984201D1664600E006468642D0
:1017000009D045B1062D06D0072D04D0E06D40F478
:101710008010E06597E7C26812F0007F93D182687D
:10172000074B1A4042F0080282608CE7000100502B
:101730000003005000070050000500500004005056
:10174000C0FFFF7F704770472DE9F04F044690F8C7
:1017500058009BB00D464FF0000B012812D001201D
:1017600084F8580000271797189720684FF0A04872
:10177000DFF80C91DFF80CA1434E404506D130460E
:10178000009608E002201BB0BDE8F08F48450AD162
:101790005046CDF800A002F011FC0090206802F045
:1017A0000DFC40B109E0E06D40F02000E06584F8F8
:1017B00058700120E7E7009848B1E06D40F0200044
:1017C000E0654FF0010B84F858705846DBE720685D
:1017D000C446604501D0B04201D12C4800E02C48FD
:1017E00029682C4B0029816840F61F7221F4604162
:1017F00028D094F8388041EA4831D5F8048041EA8D
:10180000080181602168614501D0B14205D1DCF851
:101810000810B368C1F3000109E0D9F80810DAF83C
:101820000860C1F30001C6F300069B683143C3F3AF
:1018300000031943C7D1AB682968194383689343F0
:1018400019431BE081602168614501D0B14205D197
:10185000DCF80810B368C1F3000109E0D9F80810FA
:10186000DAF80850C1F30001C5F300059B6829436D
:10187000C3F300031943A6D1816891438160A2E7B5
:10188000000400500005005000010050000300500B
:1018900000070050000600502DE9F84F00270446CD
:1018A000009790F85800DFF814840D46B9460128D7
:1018B00010D0012684F85860206802F07BFB58B1F4
:1018C000E06D40F02000E065012784F8589038462C
:1018D000BDE8F88F0220FBE7D5E900200C23216842
:1018E00003EA901319440B6B00F01F004FF01F0C1C
:1018F0000CFA00FCC2F3846223EA0C038240134317
:101900000B63206802F056FB8246206802F042FB1F
:101910005AEA00013CD1AA6829682068B2F1004F58
:1019200037D002F057FB2068416921F00041416146
:1019300020686A69C168C1F3C10149008A40296908
:10194000042931D000EB81002B68016EDFF870C3F1
:1019500003F0F84301EA0C011343194341F000413D
:10196000016620682A69A96900EB8200026E22F0F4
:1019700080720A430266297F22682869012910D0F3
:10198000002102EB8000026E22F000720A43026620
:101990007DE0002202F01EFB2068416941F0004119
:1019A000C5E74FF00071ECE7002102F0E7FA4003D1
:1019B00020684FF0000171D002F0E0FA90FAA0F038
:1019C000B0FA80F1286842036DD090FAA0F0B0FA26
:1019D00080F0814204D100221146206802F018FBF9
:1019E0000121206802F0CAFA400320684FF001018B
:1019F0005CD002F0C3FA90FAA0F0B0FA80F1286847
:101A0000420358D090FAA0F0B0FA80F0814204D19D
:101A100000220121206802F0FBFA0221206802F076
:101A2000ADFA400320684FF0020147D002F0A6FA59
:101A300090FAA0F0B0FA80F12868420343D090FAFF
:101A4000A0F0B0FA80F0814204D100220221206887
:101A500002F0DEFA0321206802F090FA40032068C9
:101A60004FF0030132D002F089FA90FAA0F0B0FAF8
:101A700080F1286842032ED090FAA0F0B0FA80F0EE
:101A8000814204D100220321206802F0C1FA2068BB
:101A900002F088FA10B3AAE000E004E002F06EFA67
:101AA000C0F384618EE7C0F3846092E702F066FAC7
:101AB000C0F38461A3E7C0F38460A7E702F05EFA95
:101AC000C0F38461B8E7C0F38460BCE702F056FA63
:101AD000C0F38461CDE7C0F38460D1E721682A7B3D
:101AE000286851F8B03FC0F3120C23EA0C0302F04F
:101AF000180C744A22FA0CF2024013430B60E96896
:101B0000414574D1286841031AD090FAA0F1B1FA86
:101B100081F1491C01F01F0109294FEA403130D8F9
:101B2000002910D090FAA0F1B1FA81F101F1010180
:101B300001F01F0106FA01F608D1C0F3846109E043
:101B4000C0F38461E5E7C0F38461EFE790FAA0F1A8
:101B5000B1FA81F101F1010101F01F0146EA816151
:101B600002D1C0F3846003E090FAA0F0B0FA80F0F4
:101B700000F1010000F01F0000EB400041EA0051BD
:101B800031E000290DD090FAA0F1B1FA81F101F114
:101B9000010101F01F0106FA01F605D1C0F38461CD
:101BA00006E0C0F38461F2E790FAA0F1B1FA81F1A6
:101BB00001F1010101F01F0146EA816102D1C0F388
:101BC000846003E090FAA0F0B0FA80F000F1010028
:101BD00000F01F003C4A00EB400002EB005041EADD
:101BE000000141F00071AA68206802F0F3F937485B
:101BF0002A6802423FF469AE20684FF0A04C344B93
:101C0000344E354D604501D0A84201D1194600E05F
:101C100031468968DFF8C48001F0E071424503D0A5
:101C2000DFF8BC80424521D15FEA01281ED460451F
:101C300006D02C4A90427FF448AEA84200D03346EA
:101C400041F40000996821F0E07101439960264851
:101C500026490068B0FBF1F0401C00EB400080001A
:101C600000E0401E00900028FBD12EE6DFF88080C7
:101C700042450FD15FEAC1180CD4A84202D11D4AD7
:101C80009042F2D0604502D0A84200D0334641F0E5
:101C900080700CE0DFF860804245E6D14A02E4D46F
:101CA000A842E2D0604500D0334641F480009968F4
:101CB00021F0E0710143996007E6000000007F40D9
:101CC00000F0FF03FFFF0700000020FE0000088077
:101CD000000300500007005000010050000021C325
:101CE0001000C09000060050B0000020400D03001E
:101CF000000052C700050050000084CB70477047B9
:101D00000068006C704700002DE9F84F0446006839
:101D1000066845684FF0A048DFF89092404501D032
:101D2000484501D1A24800E0A248806800F01F07A2
:101D3000B0070ED5A8070CD5E06DC00603D4E06D42
:101D400040F40060E0652046FEF7AAFF216802200B
:101D50000860DFF864B2DFF864A2700701D5680795
:101D600003D430073FD528073DD5E06DC00603D426
:101D7000E06D40F40070E065206802F023F960B384
:101D80002068484501D1414604E0584501D15146FB
:101D900000E00146814208D03FB1052F05D0092F50
:101DA00003D0484503D1414606E0C16805E05845E7
:101DB00001D1514600E00146C96889040DD401688B
:101DC00009070AD502F0F6F858B3E06D40F01000AC
:101DD000E065206E40F0010020662046FFF78EFF90
:101DE00021680C200860B00601D5A80603D470064F
:101DF0005FD568065DD5E06DC00603D4E06D40F4A4
:101E00000050E0652068C16C11F4C07F1AD0002139
:101E1000009102F0D7F802462068484514D14146A7
:101E200017E02068416821F00C014160E06D20F46A
:101E30008070E065E06DC004CFD4E06D40F001003B
:101E4000E065CAE70121E3E7584501D1514600E0CA
:101E50000146814208D03FB1062F05D0072F03D09D
:101E6000484503D1414606E0C16805E0584501D127
:101E7000514600E00146C968009BA3B18B0102D521
:101E80008AB18A040FD4026852060CD589020AD49A
:101E900002F080F8F0B3E06D40F01000E065206ED5
:101EA00040F0010020662046FFF7A8F92168602075
:101EB000086030060BD5280609D5E06D40F4803067
:101EC000E065204600F096F9216880200860F00562
:101ED0000CD5E8050AD5E06D40F40030E0652046F9
:101EE000FFF730FC21684FF480700860B0050CD516
:101EF000A8050AD5E06D40F48020E0652046FFF794
:101F000022FC21684FF400700860F00631D5E80625
:101F10002FD500E009E0E06BE8B12068EFB3404561
:101F200001D0484512D1224811E02068416821F0D3
:101F300060014160E06D20F48050E065E06DC00517
:101F4000B1D4E06D40F00100E065ACE7194880686D
:101F500000F4604050B1E06D40F48060E065206EB8
:101F600040F0020020662046FFF7C9FE21681020DD
:101F70000860700517D5680515D5E06D40F4804000
:101F8000E065206E40F00800206621684FF4806014
:101F900008602046BDE8F84F00E001E0FFF724BBF1
:101FA000C068C007D6E7BDE8F88F00000001005008
:101FB00000030050000700500005005000040050CE
:101FC000F8B54FF0000504002E46009502D0E06DF4
:101FD00010B107E00120F8BD204600F00DF926669B
:101FE00084F8586020688168C1F3407119B1816834
:101FF000744A1140816020688168C1F3007189B919
:102000008168714A114041F0805181606F48704988
:102010000068B0FBF1F04000801C00E0401E009022
:102020000028FBD120688168C1F3007141B9E16DDE
:1020300041F01001E165216E41F0010121660125A9
:1020400001F0B8FFE16DC90600D430B1E06D40F099
:102050001000E06501252846F8BDE06D20F4807091
:1020600040F00200E065206801F09CFF40BB206862
:102070004FF0A043574A984201D0904204D199684A
:102080009668C1F300010AE053498968534EC1F3D1
:102090000001B668C6F300063143514EB668C6F378
:1020A000000631430CD1984201D0904201D14D48F5
:1020B00000E04D486168826822F47C120A43826025
:1020C000E168E06B627F0843A16841EA423108435E
:1020D00094F8241040EA0140012904D1218D434A9B
:1020E00002EB41410843E16A29B101F47871226BA6
:1020F000014342EA01002168CA683D4B1A4002438D
:10210000CA6020680169626B21F04061114301617E
:10211000206801F03FFF70BB207F94F838108003E7
:1021200040EA41012068C26844F202039A430A432C
:10213000C26020690028206801690AD041F480311A
:102140000161206850F8C01F22696FF30D0111432F
:1021500007E021F480310161206850F8C01F6FF35F
:102160000D01016094F84000012813D02068016936
:1021700021F001010161606901282068016B19D01B
:1021800021F00F010163E06D20F0020040F001003A
:10219000E06560E7D4E911200243D4E91301084364
:1021A00002432068016940F2FC7399430A4342F0FC
:1021B0000101DFE721F00F02216A491E0A43026391
:1021C000E1E70000C0FFFF5FC0FFFF7FB00000201D
:1021D000400D0300000100500004005000050050B5
:1021E0000006005000030050000700500000FEFFF2
:1021F0000740F0FF7047000030B59BB00446142143
:1022000015A8FEF70EF854216846FEF70AF8206874
:10221000B0F1A04F3ED14FF40040009080031190E8
:10222000684600F0B5FA08B1FEF7EEFC1A48C16C3A
:1022300041F40051C164C16C01F400511A91C16CA8
:1022400041F00401C164C16C01F004011A91C16C38
:1022500041F00101C164C06C002400F001001A903B
:102260000E2003251794CDE9150515A90B4800F09C
:10227000B3F808201794CDE9150515A94FF0904043
:1022800000F0AAF800221146122000F0E9F912200D
:1022900000F0D8F91BB030BD001002400008004823
:1022A0002DE9F041044600684FF0A046444FB0428B
:1022B00001D0B84201D1434900E04349896801F0A7
:1022C0001F0501F077FE18B102210846BDE8F08134
:1022D00094F8580001280CD0012084F858002046BA
:1022E000FEF79EFA01004FF0000304D084F8583046
:1022F000EBE70220EAE7E06D40F60162904340F42C
:102300008070E0652068314ADFF8C4C0B84201D16E
:10231000B64604E0904201D1E64600E08646864596
:1023200000D02DB9D4F85CE02EF4801EC4F85CE037
:10233000D4F85CE05FEACE4E06D5D4F860E02EF02B
:10234000060EC4F860E000E023664FF01C0EC0F8F3
:1023500000E084F858302068B84201D1334604E0E8
:10236000904201D1634600E0034683420ED06DB136
:10237000052D0BD0092D09D0E36D43F48013E365DF
:10238000B84213D0904210D166460FE0C268920165
:1023900005D5E26D22F4005242F48052E265826873
:1023A0000C4B1A40121D82608FE70646F0688001D0
:1023B0008BD5E06D20F4005040F48050E06584E758
:1023C00000010050000300500007005000050050BD
:1023D00000040050C0FFFF7F2DE9F84FDFF888911F
:1023E0000022A9F1040B03274FF00F0C09F1040A96
:1023F000ABF1040EB1E0012595402B4073D00C7970
:1024000004F00304012C01D0022C15D1866854007D
:1024100007FA04F826EA0806D1F80C8008FA04F84E
:1024200048EA0608C0F808804468AC430D79C5F353
:1024300000159540254345600C79E443A40708D076
:10244000C568540007FA04F6B5438E68A6402E43CB
:10245000C6600C7904F00304022C11D1D40800EBFF
:102460008406356A5407E40E0CFA04F825EA0805D8
:10247000D1F8108008FA04F848EA0508C6F8208068
:102480000568540007FA04F6B5430E7906F0030612
:10249000A6402E4306604C6814F4403F5CD0334C99
:1024A000256E45F001052566246E22F0030504F033
:1024B000010400942E4C05EB0408D8F8085094074A
:1024C000260F0CFA06F4A543B0F1904F04D0294C26
:1024D000A04203D1012417E0002415E0264CA042BD
:1024E00002D1022410E037E0244CA04201D10324A1
:1024F0000AE0234CA04201D1042405E0214CA04273
:1025000001D1052400E00624B4402C43C8F808405B
:10251000D9F800404D464E689C43F60200D51C4356
:102520002C60DAF8004055464E689C43B60200D550
:102530001C432C60DBF800405D464E689C43B603AC
:1025400000D51C432C60DEF8004075464E689C4365
:10255000F60300D51C432C60521C0B6833FA02F4BE
:102560007FF449AFBDE8F88F080401400010024035
:10257000000001400004004800080048000C00482A
:1025800000100048001400480AB181617047816260
:10259000704700000148806870470000A4000020D8
:1025A000024881684268114481607047A40000209D
:1025B00010B50024032000F073F80F2000F008F895
:1025C00008B1012401E000F025F8204610BD00000C
:1025D00070B50E4E05460024706898B14FF47A71BC
:1025E000B1FBF0F00A490968B1FBF0F000F07AFDA8
:1025F00040B9102D06D200222946501E00F030F8B6
:10260000356000E00124204670BD0000A4000020D9
:10261000B00000200A4882B0016E41F0010101665D
:10262000016E01F001010091816D41F080518165E1
:10263000806D00F08050009002B000F0A1B8000062
:1026400000100240002809DB00F01F020121914028
:102650004009800000F1E020C0F800117047000040
:10266000F0B40E4B1B68C3F30223C3F10704042C20
:1026700000D904241D1D072D01D2002300E0DB1E1C
:10268000012606FA04F56D1E0D409D409E40761E03
:10269000164045EA0601F0BC02F004BD0CED00E076
:1026A000064A00F0070110684FF6FF03184040EAA1
:1026B0000120034908431060704700000CED00E062
:1026C0000000FA052B492C4B0A6832214A432B495A
:1026D00040B1B0F5007F086829D020F4C06040F414
:1026E00080602CE00868C0F34120022804D051F833
:1026F000800F20F4807022E0D1F8800020F48070F8
:10270000C1F88000086820F4C06040F400700860E0
:10271000B2FBF3F0401C00E0401E4A69520501D5AF
:102720000028F9D1486940050AD503207047C0F355
:102730004120022806D051F8800F40F480700860D4
:1027400000207047D1F8800040F48070C1F880000C
:10275000086820F4C06040F400700860B2FBF3F039
:10276000401C00E0401E4A695205DBD50028F9D123
:10277000D8E70000B000002040420F000070004089
:102780000248816841F480418160704700700040D8
:102790002DE9F84F044600260068C14D3746000376
:1027A0005DD5A86D4FF00009C00009D4A86D40F0B8
:1027B0008050A865A86D4FF0010900F0805000908E
:1027C000DFF8E0A2DAF8001041F48071CAF80010D6
:1027D000FFF7E0FE804607E0FFF7DCFEA0EB080015
:1027E000022801D9032632E0DAF80000C005F3D54B
:1027F0006EBBD5F8900010F4407014D0216D81426A
:1028000011D0D5F89000D5F8901020F4407041F424
:102810008031C5F89010D5F8901021F48031C5F8BA
:102820009010C5F89000C0077ED0FFF7B3FE804639
:1028300041F2883A05E0FFF7ADFEA0EB08015145F3
:10284000D0D8D5F890008007F5D5002E6CD037464B
:10285000B9F1000F03D0A86D20F08050A865207852
:10286000C00707D0D5F88800616820F0030008434E
:10287000C5F888002078800707D5D5F88800A168BA
:1028800020F00C000843C5F888002078400707D5E1
:10289000D5F88800E16820F030000843C5F88800CA
:1028A0002078000707D5D5F88800216920F0C000FE
:1028B0000843C5F888002078C00607D5D5F88800F9
:1028C000616920F440700843C5F8880020788006CC
:1028D00007D5D5F88800A16920F440600843C5F801
:1028E00088002078400607D5D5F88800E16920F4F3
:1028F00040500843C5F888002078000607D5D5F871
:102900008800216A20F440400843C5F888002088E8
:10291000C00507D5D5F88800616A20F44030084327
:10292000C5F88800206800E024E0800307D5D5F8CA
:102930009C00A16A20F003000843C5F89C00208891
:10294000800507D5D5F88800E16A20F440200843C7
:10295000C5F888002088400519D5D5F88800216B76
:1029600020F440100843C5F88800206BB0F5801FA4
:1029700009D00CE0D5F89000216D20F44070084398
:10298000C5F8900064E7E86840F48010E8602088AB
:1029900000050FD5D5F88800616B20F4400008438E
:1029A000C5F88800606BB0F5800F03D1E86840F48B
:1029B0008010E8602088C0040FD5D5F88800A16B8E
:1029C00020F040700843C5F88800A06BB0F1807F0C
:1029D00003D1E86840F48010E860208881044FF05B
:1029E00000600ED5D5F88810E26B21F040611143EC
:1029F000C5F88810E16B814203D1E96841F4801188
:102A0000E960218849040ED5D5F88810226C21F0A0
:102A100040611143C5F88810216C814203D1E868F8
:102A200040F48010E860208800040FD5D5F88800B5
:102A3000616C20F040500843C5F88800606CB0F12C
:102A4000805F03D1E86840F48030E8602068C0030C
:102A50000FD5D5F88800A16C20F040400843C5F898
:102A60008800A06CB0F1804F03D1E86840F480305A
:102A7000E860206840030FD5D5F89C00E16C20F495
:102A800040100843C5F89C00E06CB0F5001F03D16E
:102A9000E86840F48010E8603846BDE8F88F000030
:102AA00000100240007000402DE9F0470D46040080
:102AB0004FF0000725D0DFF8AC91D9F8000000F006
:102AC0000F00A8420CD2D9F8001021F00F012943C1
:102AD000C9F80010D9F8000000F00F00A84210D18A
:102AE0002168614EC80741F2883A58D06068DFF823
:102AF0007C81032808D0022830682CD040050028AB
:102B00002BDB0120BDE8F08730688001F9D5F06843
:102B100000F00302F068C0F30310401C032A18D031
:102B2000534AB2FBF0F0F268C2F306225043F26857
:102B3000C2F34162521C5200B0FBF2F0404517D97B
:102B4000B06810F0F00F0CD0880711D5A06840B124
:102B50000EE0484AE5E78003D1E700F093F84045EE
:102B600006D9B06820F0F00040F08000B060802707
:102B7000B068616820F003000843B060FFF70AFD09
:102B8000804605E0FFF706FDA0EB080151453BD864
:102B9000B068616800F00C00B0EB810FF2D12068E2
:102BA000810714D5400703D5B06840F4E060B060F9
:102BB0002078000705D5B06820F4605040F4E0604C
:102BC000B060B068A16820F0F000084304E0802FF6
:102BD00003D1B06820F0F000B060D9F8001048468A
:102BE00001F00F01A94217D90168C84621F00F0171
:102BF00029430160FFF7CEFC0746D14606E0FFF708
:102C0000C9FCC11B494501D903207BE7D8F8000066
:102C100000F00F00A842F2D12078400705D5B06837
:102C2000E16820F4E0600843B0602078000706D532
:102C3000B068216920F4605040EAC100B06000F043
:102C400021F8B1680C4AC1F30311515C01F01F0176
:102C5000C8400A4908600A480068BDE8F047FFF725
:102C6000B7BC0000002002400010024000B4C404C1
:102C70000024F40000127A004E530008B000002037
:102C8000A4000020184A10B59068C0F381011748CD
:102C900001290BD091684410C1F38101022906D0AB
:102CA0009168C1F38101032903D0002010BD2046A3
:102CB00010BDD16801F00303D168C1F30311491CB1
:102CC000032B02D0B0FBF1F001E0B4FBF1F0D168CE
:102CD000C1F306214843D168C1F34161491C490051
:102CE000B0FBF1F010BD0000001002400024F40021
:102CF0002DE9F843040078D02078F54DC00745D081
:102D0000A868E96800F00C0001F003010C2802D06B
:102D1000082817D001E0032914D06068B0F5803F7F
:102D200017D0B0F5A02F286817D020F48030286085
:102D3000286820F4802028606068D8B1FFF72AFC5A
:102D4000064613E02868800320D560680028D2D0AA
:102D50001CE0286840F48030EDE740F480202860D3
:102D6000F7E7FFF717FC801B64286ED828688003FC
:102D7000F7D50BE0FFF70EFC064604E0FFF70AFC70
:102D8000801B6428F1D828688003F7D42078800756
:102D90004BD5A868E96800F00C0001F003010C288D
:102DA00002D004280DD001E002290AD0E0680028F2
:102DB00028682BD040F480702860FFF7EBFB0646B4
:102DC00019E02868400502D5E068002893D06868BB
:102DD000217C20F0FE4040EA01606860BD48006848
:102DE000FFF7F6FB002800D11FE06DE1FFF7D2FBF3
:102DF000801B0228B9D828684005F7D56868217C6F
:102E000020F0FE4040EA016068600EE020F480702F
:102E10002860FFF7BFFB064604E0FFF7BBFB801B03
:102E20000228A2D828684005F7D42078000728D5C2
:102E300060690028D5F8940012D040F00100C5F870
:102E40009400FFF7A7FB064605E08FE0FFF7A2FB23
:102E5000801B022889D8D5F894008007F6D510E0A9
:102E600020F00100C5F89400FFF794FB064604E04B
:102E7000FFF790FB801B022878D8D5F894008007D4
:102E8000F6D42078400761D5A86D0027C00008D48B
:102E9000A86D40F08050A865A86D012700F0805013
:102EA00000908D480168C90511D40168804641F43D
:102EB00080710160FFF76EFB064604E0FFF76AFBD6
:102EC000801B022852D8D8F80000C005F6D5A068AB
:102ED000012815D00528D5F8900016D020F0010063
:102EE000C5F89000D5F8900020F00400C5F89000D7
:102EF000A06841F28838B8B1FFF74CFB06460EE0F7
:102F0000D5F8900040F00100F0E740F00400C5F86B
:102F10009000F5E7FFF73EFB811B414526D8D5F829
:102F200090008007F6D50CE0FFF734FB064604E07E
:102F3000FFF730FB811B414518D8D5F8900080077A
:102F4000F6D41FB1A86D20F08050A86520788006C7
:102F500028D5A0690028D5F8980012D040F00100CB
:102F6000C5F89800FFF716FB064605E072E0FFF78C
:102F700011FB801B02286DD8D5F898008007F6D584
:102F800010E020F00100C5F89800FFF703FB0646AB
:102F900004E0FFF7FFFA801B02285BD8D5F8980001
:102FA0008007F6D4E069E8B3A968C1F38101032979
:102FB0005BD00228286820F08070286003D0FFF7DB
:102FC000E9FA044649E0FFF7E5FA064604E0FFF7B0
:102FD000E1FA801B02283DD828688001F7D4F4E983
:102FE00008016FF00F0202EB01110843218A52041D
:102FF000490802EB4151A26841EA02210843217DC0
:103000004FF07E42490802EB41610843217B40EAD0
:10301000C160E968314A11400843E860286840F01F
:10302000807000E052E02860E86840F08070E8605E
:10303000FFF7B0FA044604E0FFF7ACFA001B0228E1
:1030400008D828688001F7D540E0FFF7A3FA001BF5
:10305000022802D90320BDE8F88328688001F4D44F
:10306000E8681F490840E86030E00128F3D0E868CC
:10307000226A00F00301914226D1616A00F0F00259
:103080000901103991421FD1A26A00F4FE41B1EB4F
:10309000022F19D194F82C2000F07841B1EBC26FC7
:1030A00012D1218E00F4C00249084905A1F5001192
:1030B000914209D194F8341000F0C06049084906E3
:1030C000A1F10071814201D00120C4E70020C2E7D4
:1030D00000100240A4000020007000400C809F01FE
:1030E000FCFFEEFE10B5401EB0F1807F01D3012041
:1030F00010BD4FF0E02460610F21601701F0D2FF96
:103100000020A06107202061002010BD704770479B
:103110007047000030B590F83C20012A45D00122CC
:1031200080F83C20CA688B6822F440721A434B68CE
:1031300022F480621A430B6822F400621A430B697E
:1031400022F480521A434B6922F400521A430B6B4B
:1031500022F480421A430B8B22F4702242EA03428B
:10316000CB6922F080521A43114D03680024AB4210
:1031700005D0104DAB4202D00F4DAB4210D10D8D9A
:1031800022F4700242EA05520D6A22F080722A434C
:103190004D6A22F000722A43C96A22F000520A43A3
:1031A0005A6480F83C40002030BD022030BD000051
:1031B000002C01400034014000500140704770472E
:1031C00070470000F0B590F83C20012A43D001255B
:1031D00080F83C50022280F83D2003685A689C68C1
:1031E0001E4E1F4FDFF87CC0B34203D0BB4201D05C
:1031F000634504D122F4700E4A6842EA0E02DFF8F9
:1032000068E002EA0E02D1F800E04EEA020EC3F8CE
:1032100004E00268B24212D0B2F1804F0FD0134BDB
:103220009A420CD0124B9A4209D0124B9A4206D0C5
:10323000BA4204D0104B9A4201D0624504D1896849
:1032400024F080031943916080F83D50002180F8FC
:103250003C100846F0BD0220F0BD0000002C0140EB
:1032600000340140005001408FFFFFFD000400408A
:1032700000080040000C00400040014010B504462A
:1032800049B104290AD008290BD094F84700012835
:103290000AD0012010BD94F84400F8E794F84500E6
:1032A000F5E794F84600F2E70220A9B3042937D0E5
:1032B000082938D084F847000422206801F0EDFC8A
:1032C0002068416C41F400414164184920688842FB
:1032D00014D0B0F1804F11D0154988420ED0154955
:1032E00088420BD01449884208D01449884205D03E
:1032F0001349884202D01349884207D18168124A93
:103300001140062906D0B1F5803F03D0016841F095
:1033100001010160002010BDFFE784F84400CBE705
:1033200084F84500C8E784F84600C5E7002C014052
:103330000004004000080040000C00400034014040
:1033400000400140005001400700010070B50446F4
:103350000D460068002201F0A0FC2068026A41F2DC
:1033600011131A4244F2444106D1026A0A4203D1BF
:10337000426C22F4004242642068026A1A4206D17A
:10338000026A0A4203D1016821F0010101600120B3
:103390003DB1042D08D0082D09D084F84700002045
:1033A00070BD84F84400FAE784F84500F7E784F834
:1033B0004600F4E7704710B5040003D094F83D00D0
:1033C00010B107E0012010BD002084F83C00204629
:1033D00000F022F8022084F83D00211D206801F051
:1033E000DDFB012084F8480084F83E0084F83F00AB
:1033F00084F8400084F8410084F8420084F84300D7
:1034000084F8440084F8450084F8460084F84700B6
:1034100084F83D00002010BD08B50068194A1A491B
:10342000904208D1086E40F400600866086E00F40F
:103430000060009008BD154A90420ED1886D40F0A2
:1034400010008865886D002200F0100000900221B5
:103450003620FFF705F9362010E00D4A9042E9D1F9
:10346000886D40F020008865886D002200F0200003
:10347000009002213720FFF7F3F83720BDE808401D
:10348000FFF7E0B8002C014000100240001000409F
:103490000014004090F83D10012901D00120704730
:1034A000022180F83D1000681249884214D0B0F122
:1034B000804F11D0104988420ED0104988420BD05D
:1034C0000F49884208D00F49884205D00E498842EA
:1034D00002D00E49884207D181680D4A1140062961
:1034E00006D0B1F5803F03D0016841F001010160D1
:1034F00000207047002C01400004004000080040FC
:10350000000C0040003401400040014000500140E8
:103510000700010090F83D10012901D001207047FB
:10352000022180F83D100168CA6842F00102CA60B9
:1035300000681349884214D0B0F1804F11D011496E
:1035400088420ED0104988420BD01049884208D0DA
:103550000F49884205D00F49884202D00E4988425F
:1035600007D181680D4A1140062906D0B1F5803F88
:1035700003D0016841F001010160002070470000A4
:10358000002C01400004004000080040000C0040F6
:10359000003401400040014000500140070001009C
:1035A0002DE9F041044690F83C0000250F46012823
:1035B0001CD0012684F83C60022084F83D0020687D
:1035C0008168324A114021F47F4181603968B1F548
:1035D000005F2DD017DC402948D00ADCD9B1102972
:1035E00019D0202917D0302948D114E00220BDE895
:1035F000F081502928D060292ED070290DD0B1F546
:10360000805F3BD13BE011F00F0F37D10811A0F5DF
:103610008030072832D8206825E0D7E90121FB68EF
:10362000206801F047FB2068816841F0770109E0DC
:10363000D7E90121FB68206801F03CFB2068816824
:1036400041F4804181601AE0FA687968206801F0ED
:1036500005FD5021206806E0FA687968206801F0CD
:103660000EFD6021206801F02FFB08E0FA68796800
:10367000206801F0F3FC40212068F4E7012584F87C
:103680003D60002084F83C002846B0E788FFCEFF6C
:103690002DE9F0410D46040003D094F83D0018B127
:1036A00008E00120BDE8F081002084F83C002046BD
:1036B00000F042F8022084F83D00206881681D4A2D
:1036C00011408160211D206801F068FA206881683E
:1036D0008269066A2B68AF690B4340F203318A4363
:1036E00042EA0722A968EF6911434FF6FC42914371
:1036F000EA6841EA07210A4329692F6A090141EA78
:10370000073111436A686D6926F0AA0646EA051575
:103710002A4383602068816154F8480B02620120CB
:1037200004F81F096075A075E076207720750020E9
:10373000B8E70000F8BFFEFF10B586B004461421BC
:103740006846FCF76EFD16492068884225D1154869
:10375000816D41F002018165816D01F002010591E9
:10376000C16C41F00101C164C06C002100F0010096
:103770000590C02000900220CDE90101CDE90310A1
:1037800069464FF09040FEF727FE002201211D20E0
:10379000FEF766FF1D20FEF755FF06B010BD0000C6
:1037A000000400400010024030B5044600680D00DF
:1037B00023D0042D04D00022114601F061FA2068C4
:1037C0000022042101F05CFA2068016A41F2111222
:1037D000114207D1016A9200114203D1016821F020
:1037E0000101016001205DB1042D0CD004F83E0FF1
:1037F0006070A071E071002030BD00221146E1E749
:1038000004F83E0F01E004F83F0FA071F3E77047A2
:103810002DE9F04104460068C66805694FF00007CD
:10382000A90713D5B10711D5F91E01610120207731
:10383000206880698007204602D0FFF7E8FF04E097
:1038400000F002F9204600F0C4F92777680716D582
:10385000700714D521686FF00400086102202077FA
:103860002068806910F4407F204602D0FFF7CFFF28
:1038700004E000F0E9F8204600F0ABF927772807CC
:1038800015D5300713D521686FF0080008610420B2
:1038900020772068C0698007204602D0FFF7B7FF75
:1038A00004E000F0D1F8204600F093F92777E8060D
:1038B00016D5F00614D521686FF0100008610820B5
:1038C00020772068C06910F4407F204602D0FFF7BF
:1038D0009EFF04E000F0B8F8204600F07AF9277760
:1038E000E80708D0F00706D021686FF001000861F2
:1038F000204600F05BFA280601D4A80408D530065B
:1039000006D521686FF4025008612046FFF7FFFBDF
:10391000E80508D5300606D521686FF48070086187
:103920002046FFF7F3FB680608D5700606D5216828
:103930006FF040000861204600F05CFAA80608D548
:10394000B00606D521686FF0200008612046FFF719
:10395000DFFBE80208D5F00206D521686FF480107D
:1039600008612046FFF72BFCA80208D5B00206D557
:1039700021686FF4001008612046FFF71FFC680201
:1039800008D5700206D521686FF4800008612046D2
:10399000FFF716FC28020AD5300208D521686FF41B
:1039A000000008612046BDE8F041FFF703BDBDE817
:1039B000F0810000F0B587B0044614216846FCF79A
:1039C00030FC1E492068884236D11D48C16C41F048
:1039D0000201C164C16C01F002010591C16C41F0AA
:1039E0000101C164C06C022500F0010005904FF494
:1039F000C04000900024CDE901540626114FCDE9C6
:103A0000034669463846FEF7E7FCA8030090CDE977
:103A100001540420CDE9034069463846FEF7DCFC3A
:103A20004FF4E0600090CDE90154CDE903466946CA
:103A30004FF09040FEF7D0FC07B0F0BD002C0140E5
:103A40000010024000040048704770B5044690F82A
:103A50003C0000260D4601280BD0012084F83C00D4
:103A60000C2A4AD007DC82B1042A20D0082A06D1C9
:103A700031E0022070BD102A53D0142A63D00126F1
:103A8000002084F83C00304670BD206801F026F923
:103A90002068816941F0080181612068816921F015
:103AA00004018161206881692A69114311E020685D
:103AB00001F06AF92068816941F400618161206840
:103AC000816921F480618161206881692A6941EA04
:103AD00002218161D4E7206801F0A6F92068C1695C
:103AE00041F00801C1612068C16921F00401C16190
:103AF0002068C1692A69114311E0206801F0E4F9E6
:103B00002068C16941F40061C1612068C16921F484
:103B10008061C1612068C1692A6941EA0221C161ED
:103B2000AEE7206801F020FA2068016D41F008013D
:103B300001652068016D21F0040101652068016DB7
:103B40002A69114311E0206801F04AFA2068016DEA
:103B500041F4006101652068016D21F48061016517
:103B60002068016D2A6941EA0221016588E710B5E4
:103B7000040003D094F83D0010B107E0012010BD0F
:103B8000002084F83C00204600F022F8022084F84F
:103B90003D00211D206801F001F8012084F8480053
:103BA00084F83E0084F83F0084F8400084F8410027
:103BB00084F8420084F8430084F8440084F8450007
:103BC00084F8460084F8470084F83D00002010BDCA
:103BD0007047704770B5044669B104290ED00829B2
:103BE0000FD00C2910D0102911D094F843000128CF
:103BF00010D0012070BD94F83E00F8E794F83F0023
:103C0000F5E794F84000F2E794F84100EFE794F804
:103C10004200ECE70220E9B304294AD008294BD03E
:103C20000C294CD010294DD084F843000122206883
:103C300001F026F825492068254A264B264D884262
:103C40000BD0904209D0984207D0244EB04204D005
:103C5000234EB04201D0A84203D1466C46F4004640
:103C600046642068884211D0B0F1804F0ED01D49C3
:103C700088420BD01C49884208D01C49884205D094
:103C8000904203D0984201D0A84209D18168184AD5
:103C9000114000E00AE0062906D0B1F5803F03D0CC
:103CA000016841F001010160002070BD84F83E0010
:103CB000BCE784F83F00B9E784F84000B6E784F831
:103CC0004100B3E784F84200B0E70000002C014057
:103CD00000340140004001400050014000440140D8
:103CE000004801400004004000080040000C004073
:103CF0000700010030B504460D460068002200F0C0
:103D0000BFFF244841F2111122688B0082420ED07D
:103D1000214882420BD02148824208D0204882426A
:103D200005D02048824202D01F48824209D1106A41
:103D3000084206D1106A184203D1506C20F40040AA
:103D400050642068026A0A4206D1016A194203D10E
:103D5000016821F00101016001205DB1042D0CD04A
:103D6000082D0DD00C2D0ED0102D0FD084F843004F
:103D7000002030BD84F83E00FAE784F83F00F7E702
:103D800084F84000F4E784F84100F1E784F8420049
:103D9000EEE70000002C01400034014000400140EB
:103DA00000440140004801400050014070B5044605
:103DB00000680C490C4D88420BD10C480068406AE1
:103DC00005F1160280B2A8830A21FCF7ABFE85ED4F
:103DD0000F0A07492068884202D1E88A401CE8821D
:103DE00070BD000000140040000000204C020020C4
:103DF000000400407047FEE770B50D462DED028BC4
:103E0000B0EE428A044680EC030AC1ED011AFCF7C9
:103E10006DFDB0EE480A204600F098FC2946204689
:103E2000FCF77AFDB0EE480A204600F07DF8BDECC4
:103E3000028B2046BDE8704000F086BD70B50D468F
:103E40002DED028BF0EE608AB0EE408ADFED330A92
:103E500038EEC80A044630EE200ADFED310A01F0E0
:103E600031F9DFED300AA07B30EE601A30B1012865
:103E70000BD0022822D003284AD147E084ED058ADE
:103E8000E088A84244D8012014E084ED058AD4EDEE
:103E9000000AB0EEC10A0021B4EEE00AF1EE10FA19
:103EA0000AD26089401C80B26081A28890422FD3E0
:103EB00061810220A0732BE0618129E0A089401C70
:103EC00080B200EE100AA0812089F8EE400A00EED0
:103ED000100AF8EE401A80EEA10A10EE101A84EDD6
:103EE000040AB1F17E5F06DBB7EE000A84ED040A36
:103EF000A0810320A073D4ED040AB0EE480A00EEBE
:103F0000810A00F0E3FA84ED050A01E0C4ED058AB8
:103F100094ED050ABDEC028B70BD0000E4CB1641A8
:103F2000DB0FC940DB0F49401CB5DFED120A044628
:103F3000CDED000ACDED010ADFED0F0A01A96846BB
:103F400020EE200AFCF79CFBD4ED070ADDED011AF8
:103F50009DED001A94ED080A20EEA12A60EE810A78
:103F600000EE412A40EE210A84ED092AC4ED0A0A36
:103F70001CBD000000000000E12E654200EB810046
:103F8000006E00F0F840704700EB8100006E00F01A
:103F9000F84070478068C0F3C00070478068C0F385
:103FA000C00070478068C0F3000070478068C0F3AD
:103FB000000070478068C0F3800070478068C0F3DD
:103FC00080007047C06810F4406F01D00020704737
:103FD00001207047042303EAD15310B51844436904
:103FE000C1F3045107248C40A3438A401343436127
:103FF00010BD042303EAD15310B518444369C1F33B
:10400000045107248C40A3438A401343436110BDED
:1040100000EB8100016E21F0004111430166704701
:1040200000EB8100016E21F00041114301667047F1
:1040300000281ED0F5EEC00AB7EE001AF1EE10FA15
:1040400002D2DFED0F0A06E010EE901AB1F17E5FAA
:1040500001DDF0EE410A017961B131EE601AD0ED77
:10406000001A21EE211A00EE801A80ED001AB0EE3F
:10407000410A704780ED000A01210171704700007C
:104080000000000070B59AB0002417941894202105
:104090000FA81994FCF7C5F83C216846FCF7C1F855
:1040A00037484FF0A041042501604FF44031C0E98A
:1040B000011485610121C460C0E90441047741779E
:1040C000016280F82440C462046380F83840C4630D
:1040D00080F84040FDF774FF08B1FCF795FD17A983
:1040E00027481794FDF730FB08B1FCF78DFD2548F4
:1040F0000F9010A906207F2681E85100CDE91354C6
:104100000FA91F48FDF7C8FB08B1FCF77DFD1E484D
:104110000090092001900220CDE90206CDE9045467
:104120000320089084200A908DF8244080208DF888
:1041300025400B908DF826408DF830406946104898
:10414000FCF7B0FD08B1FCF75FFD1048009040F2AD
:104150000F10019069460A48FCF7A4FD08B1FCF76E
:1041600053FD0B48009040F2152001906946044829
:10417000FCF798FD002801D0FCF746FD1AB070BD91
:10418000940100201000C0108000501D000180210B
:104190000002B02570B586B014216846FCF741F8DE
:1041A0002248C16C41F02001C164C16C01F02001C2
:1041B0000591C16C41F00401C164C16C01F00401BE
:1041C0000591C16C41F00101C164C16C01F00101B4
:1041D0000591C16C41F01001C164C16C01F0100186
:1041E0000591C16C41F00201C164C06C104E00F039
:1041F00002000590002203213046FEF7C5F94FF476
:10420000E0400025CDE900050124694602943046CE
:10421000FEF7E2F80320CDE9000469463046CDE917
:104220000245FEF7D9F806B070BD0000001002404C
:104230000010004870B59CB0002419941A9417948B
:104240001894149415941C2168461694FBF7E9FF02
:10425000342107A8FBF7E5FF3B483A4940F6AB524B
:10426000016001216025C260C0E90115C0E9044177
:104270008461FFF7A0F808B1FCF7C6FC4FF480504A
:10428000179017A93048FFF78BF908B1FCF7BCFC71
:104290002D48FFF76CFC08B1FCF7B6FC7026CDE9A1
:1042A000146414A928481694FEF78CFF08B1FCF793
:1042B000ABFCCDE9005402940394049405940022CD
:1042C000694621480694FFF7C0FB08B1FCF79CFC47
:1042D000042269461C48FFF7B8FB08B1FCF794FCC0
:1042E000082269461848FFF7B0FB08B1FCF78CFCC0
:1042F00040F6AA50CDE900600C2269461248FFF74B
:10430000A4FB08B1FCF780FC079428200894CDE9B1
:1043100009404FF40050CDE90B400D9400030E947A
:10432000CDE90F401194129407A907481394FEF7A2
:10433000F1FE08B1FCF768FC0348FFF73BFB1CB03B
:1043400070BD0000002C01400002002010B58CB0B0
:1043500024216846FBF765FF0024174809940A9456
:1043600014490B94C0E900144FF47A61C0E902418A
:10437000046184610320CDE900040120CDE9020439
:1043800005210491CDE90540CDE9074169460A4878
:10439000FFF77EF908B1FCF737FC099409A9064834
:1043A0000B94FEF70FFF002801D0FCF72DFC0CB09A
:1043B00010BD0000000400404C0200203EB5002467
:1043C0000F48009401940D49029401600421C0E952
:1043D000011440F6EF218461C160FEF7ECFF08B1E3
:1043E000FCF712FC0094694605480294FEF7EAFEC9
:1043F000002801D0FCF708FC3EBD00000010004082
:10440000980200203EB500240F48009401940D4905
:10441000029401601321C0E9011441F6583184610E
:10442000C160FEF7C8FF08B1FCF7EEFB00946946D7
:1044300005480294FEF7C6FE002801D0FCF7E4FB15
:104440003EBD000000140040E4020020FEE7000032
:1044500010B500211748FFF74DFC04211548FFF760
:1044600049FC08211348FFF745FC00211148FEF7DD
:104470006DFF04210F48FEF769FF08210D48FEF784
:1044800065FF0E489FED0C0A0E4980ED190A80ED7C
:104490001A0A80ED0D0A0A4880ED000A80ED010A33
:1044A00081ED000A80ED060A80ED070A81ED040A1D
:1044B00010BD0000000200200000000000000020ED
:1044C00084030020A4030020FEE7000010EE100A81
:1044D0000849DFED070A884202DB30EE600A7047C8
:1044E000B5EEC00AF1EE10FAF9D230EE200A7047AC
:1044F000DB0FC940DB0FC94010B504462DED028B20
:1045000082B0B0EE608AF0EE408A9FED420A8DEDF7
:10451000000A8DED010A90ED080ADFED3F0A01A9BE
:10452000684620EE200AFCF7ABF89DED010ADDEDB0
:10453000000A28EEC00A08EE600A84ED050A28EE9B
:10454000A80A08EE080A00F015FE9FED341AD4ED13
:10455000050A334930EE011A80EE810A10EE100A86
:1045600084ED050A884201DD9FED2E0A2E4910EEEA
:10457000100A84ED050A884201D99FED2C0A2C49C6
:1045800084ED050AD4ED000A20EE201A84ED021A0B
:10459000D4ED030AD4ED011A40EE210A10EE900A80
:1045A000C4ED030ADFED230A884201DDC4ED030AEE
:1045B000214AE068DFED211A904201D9C4ED031AC7
:1045C00094ED030A31EE000A10EE100A84ED060A9B
:1045D000884201DDC4ED060AA069904201D9C4ED0C
:1045E000061AD4ED060A9FED160A20EE800A84ED25
:1045F000070A94ED080A94ED041A00EE810A84ED8E
:10460000080AFFF763FF84ED080A02B0BDEC028BD5
:1046100010BD000000000000E12E65426F12833AD9
:10462000A60A063FA60A063FA60A06BFA60A06BFB6
:1046300000401C4500401C4500401CC500401CC5F6
:104640009CC41840B0EE405AB0EEE00AF1EE080A01
:104650003A4A20EE200ADFED3A4A10EE101A914253
:1046600006DB90ED002A374A12EE101A914202DA68
:10467000B0EE640A704760EE001A21EE010AF7EE10
:10468000000AB1EE004A3049C0EE802A80EE810A6D
:1046900090ED011A22EE843A61EE043A22EE044AC9
:1046A000F0EE430A24EE014A43EE800A64EE005A1B
:1046B00003EEC03A70EEA10A85EEA04AF9EE005A68
:1046C00022EE252A22EE011A21EE002A33EE210ADB
:1046D00082EE201AB0EE002A61EE825AB2EE002A73
:1046E00042EEC25AD0ED032A85EEA02AC0EE201A6F
:1046F00024EE050AD0ED020A04EEA00A01EE220A19
:1047000090ED041A02EE410A90ED052AC0ED030A6D
:1047100080ED025A80ED051A01EEC20A80ED040A0E
:1047200010EE100A884201DDB0EE080A10EE100A01
:1047300010F17F5F9ED9B8EE080A70470000704103
:1047400000000000CDCCCC3D000040401CB5DFEDAA
:10475000120A0446CDED000ACDED010ADFED0F0A85
:1047600001A9684620EE200AFBF78AFFD4ED030A70
:10477000DDED011A94ED040A9DED001A20EEA12A48
:1047800000EE012A20EE210A00EEC10A84ED052A7E
:1047900084ED060A1CBD000000000000E12E654209
:1047A0007047000070B50D462DED028BB0EE428AC9
:1047B000044680EC030A9FED0E0AC1ED011A81ED5B
:1047C000000AFCF793F8B0EE480A2046FFF7BEFF58
:1047D00029462046FCF7A0F8B0EE480A2046FFF72D
:1047E000A3FBBDEC028B2046BDE8704000F0ACB8E6
:1047F0000000000070B5B0EE402A2DED048BB0EE45
:10480000618AF0EE608A90ED070A0D46044630EEAC
:10481000410A00F087FDD4ED020A9FED259A254854
:1048200020EE200A84ED0C0AD4ED000A94ED071A5C
:1048300032EE402A20EE811AD4ED010A00EE821AEF
:10484000F0EE490A84ED071AFFF7F2FB84ED0C0A3B
:1048500094ED080A30EE480A00F064FDD4ED020A37
:10486000144820EE200A083084ED0D0AD4ED000A29
:1048700094ED081A78EEC01A20EE811AD4ED010AE0
:1048800000EEA11AF0EE490A84ED081AFFF7D0FBFA
:1048900084ED0D0A94ED0C1AF0EE400A2846B0EEB5
:1048A000410AFFF729FE95ED080ABDEC048B70BDA7
:1048B000CDCCCC3EE40000207047000091ED000A12
:1048C000D0ED140A1B4B30EE600A81ED010AD1EDE8
:1048D000040A70EE800A10EE900AC1ED040A9842B4
:1048E00003DDDFED150AC1ED040A10EE900A134B4B
:1048F000984203D9DFED120AC1ED040AD1ED030A93
:1049000091ED041A20EE800AD1ED020A00EE810A30
:1049100010EE100AB0F1824F01DDB2EE000AB5EEE2
:10492000C00AF1EE10FA01D29FED060A82ED000AEC
:104930007047000000606A4700606A4700606AC70D
:1049400000606AC70000000090ED0A0A90ED091AA5
:10495000DFED620AF6EE002A61EE200A40EE620AFE
:10496000DFED5F1AB5EEC00A21EE211A00EE621AE1
:10497000F1EE10FA01DD012100E00021F5EEC00AA0
:10498000F1EE10FA01DD012300E00023B5EEC01ABC
:10499000F1EE10FA01DD012200E00022920002EBAC
:1049A00043021144DFED4F1A20EE212A9FED4E0AFB
:1049B00021EE001A60EE801ADFED4C0A0729B0EEF6
:1049C000600A22D2DFE801F02104090E13181D004D
:1049D000F0EE610AB0EE410A17E0F0EE410AB1EEE6
:1049E000420A12E0F1EE610AB0EE420A0DE0F1EE89
:1049F000420AB0EE610A08E0F0EE420AB1EE410A66
:104A000003E0F1EE410AB1EE610A394B30EE801A53
:104A1000DFED381A11EE102A9A4209DD20EEA12AA4
:104A2000C2EE010A20EE211A30EE802A81EE020A3F
:104A300031EEE01AF5EE001A072931EE401A21EEA8
:104A4000211AF0EE411A40EEA21AB0EE612A00EEF1
:104A5000222A28D2DFE801F027040B10151A2100C2
:104A6000C0ED0B1A80ED0C1A80ED0D2A1BE080EDD5
:104A70000B1A80ED0C2A0DE000F12C0181EC031AD9
:104A800011E080ED0B2AC0ED0C1A0AE080ED0B2A34
:104A900080ED0C1AC0ED0D1A05E0C0ED0B1A80ED8B
:104AA0000C2A80ED0D1A90ED0B0A1349BCEEC00ADA
:104AB0000B6810EE102A5A6390ED0C0A0B68BCEEDE
:104AC000C00A10EE102A9A6390ED0D0A0968BCEE38
:104AD000C00A10EE100AC86370470000D7B35D3FEC
:104AE000D7B35DBF3B977C433B977CC3000000007E
:104AF00000C05A4500C05A4500020020FDF750BDD5
:104B000010B594B038216846FBF78BFB14210EA832
:104B1000FBF787FB4FF40070FDF7D4FD012108047B
:104B2000CDE900100324CDE9084102202321CDE97D
:104B30000A1007900C900D906846FEF7D9F808B15E
:104B400072B6FEE70F20CDE90E0400201090119000
:104B5000129004210EA8FDF7A7FF002801D072B61D
:104B6000FEE714B010BD00000248016841F4700176
:104B70000160704788ED00E00148FEF749BE000083
:104B80004C0200200148FEF743BE000098020020BE
:104B90000148FEF73DBE0000E40200202DE9F04F81
:104BA00002682E4D2E4E2F4FDFF8BCC02F4B304CDD
:104BB0004FF0804BA8420BD0584509D0B04207D0E7
:104BC000B84205D0604503D0984201D0A04204D13C
:104BD00022F070084A6842EA0802DFF89880DFF89D
:104BE0009890DFF898A0A84211D058450FD0B04255
:104BF0000DD0B8420BD0604509D0984207D040454F
:104C000005D0484503D0504501D0A04203D122F43D
:104C10004076CA6832434E6922F080023243026015
:104C20008A68C2620A688262A84209D0984207D0A4
:104C3000404505D0484503D0504501D0A04201D1A0
:104C400009690163012141610169C90703D0016953
:104C500021F001010161BDE8F08F0000002C01404E
:104C60000004004000080040000C004000340140F7
:104C70000050014000400140004401400048014014
:104C800010B501F01F010123046A8B409C430462AC
:104C9000036A8A401343036210BD10B501F00F018F
:104CA0000423046A8B409C430462036A8A401343D2
:104CB000036210BD10B5846842EA032224F47F44E5
:104CC0000A432243826010BD8268034B1A400A43A4
:104CD00042F00701816070478FFFCFFF2DE9F04759
:104CE000056A026A22F001020262426883691F4C6F
:104CF00025F0020523400C6823F003031C438B6856
:104D00001C4E2B431A4D1C4FDFF870C0DFF870901B
:104D1000DFF870A0A84209D0B04207D0B84205D051
:104D2000604503D0484501D0504506D123F008081E
:104D3000CB6843EA080323F00403A84209D0B04239
:104D400007D0B84205D0604503D0484501D0504552
:104D500005D14D6922F4407215438A692A434260A5
:104D60008461496841630362BDE8F0878FFFFEFFFD
:104D7000002C01400034014000400140004401404B
:104D80000048014000500140F0B5056A026A22F077
:104D900010020262426883691C4C1E4E23400C685C
:104DA00023F4407343EA042425F020038D681A4F4E
:104DB00043EA0513164DA84203D0B04201D0B842D1
:104DC00007D1D1F80CC023F0800343EA0C1323F081
:104DD0004003A8420CD0B0420AD0104DA84207D0E0
:104DE0000F4DA84204D00F4DA84201D0B84207D1C0
:104DF0004D6922F4406242EA85028D6942EA8502E9
:104E000042608461496881630362F0BDFF8FFFFEE9
:104E1000002C01400034014000500140004001409E
:104E20000044014000480140F0B5056A026A22F4DE
:104E3000807202624268C3691C4C1E4E23400C689B
:104E400023F003031C4325F400738D681A4F43EAD3
:104E50000523174DA84203D0B04201D0B84207D174
:104E6000D1F80CC023F4006343EA0C2323F48063DD
:104E7000A8420CD0B0420AD0104DA84207D0104D25
:104E8000A84204D00F4DA84201D0B84207D14D69C5
:104E900022F4405242EA05128D6942EA051242604C
:104EA000C4614968C1630362F0BD00008FFFFEFF6B
:104EB000002C0140003401400050014000400140FE
:104EC0000044014000480140F0B5056A026A22F43E
:104ED000805202624268C3691C4C1E4E23400C681B
:104EE00023F4407343EA042425F400538D681A4FD9
:104EF00043EA0533164DA84203D0B04201D0B84270
:104F000007D1D1F80CC023F4004343EA0C3323F457
:104F10008043A8420CD0B0420AD0104DA84207D01E
:104F20000F4DA84204D00F4DA84201D0B84207D17E
:104F30004D6922F4404242EA85128D6942EA8512A7
:104F40004260C461496801640362F0BDFF8FFFFEE7
:104F5000002C01400034014000500140004001405D
:104F6000004401400048014030B5056A026A22F45D
:104F7000803202624268036D124C23400C681C436D
:104F800025F400330D8943EA05430F4DA8420ED0A6
:104F90000E4DA8420BD00E4DA84208D00D4DA84290
:104FA00005D00D4DA84202D00C4DA84204D14D6948
:104FB00022F4803242EA0522426004654968816435
:104FC000036230BD8FFFFEFF002C01400034014022
:104FD00000400140004401400048014000500140B1
:104FE00030B5056A026A22F4801202624268036DDB
:104FF000134C23400C6843EA042425F400130D8964
:1050000043EA05530F4DA8420ED00F4DA8420BD0D6
:105010000E4DA84208D00E4DA84205D00D4DA84215
:1050200002D00D4DA84204D14D6922F4802242EAFB
:105030008522426004654968C164036230BD000096
:10504000FF8FFFFE002C0140003401400040014072
:1050500000440140004801400050014010B5046A7E
:10506000036A23F001030362836923F0F00343EA38
:10507000021324F00A020A438361026210BD10B5D4
:10508000036A046A24F010040462846923F0A00314
:1050900024F4704444EA023243EA0111826101625D
:1050A00010BDFEE70907090E002804DB00F1E0202F
:1050B00080F80014704700F00F0000F1E02080F845
:1050C000141D704710B52DED028BF0EE408A18EEDE
:1050D000900AB0EE608A20F00040C0F1FF40C00F9F
:1050E00007D118EE100A20F00040C0F1FF40C00FB9
:1050F0002BD018EE101A18EE900AFBF7EDF900EE1F
:10510000100A10EE100A6FEAD05010F0FF0F04BF23
:10511000BDEC028B10BD18EE900A00F0004110EEBD
:10512000100A00F00040814204BFBDEC028B10BDAC
:1051300018EE101A10EE100ABDEC028B61F31E007F
:1051400000EE900A30EE600A10BD18EE900A4FF0A3
:105150007F41B1EB400F1CBF18EE100A5FEA400020
:10516000C7D1012000F03CF8BDEC028BBDE8104037
:1051700000F01EB810B52DED028BB1EEC08A18EE0E
:10518000100A20F00040C0F1FF40C00F0AD010EE1E
:10519000100A20F00040C0F1FF40C00F04BF012002
:1051A00000F01EF8B0EE480ABDEC028B10BD000006
:1051B000DFED020A80EEA00A704700000000000048
:1051C00002E008C8121F08C1002AFAD170477047D0
:1051D000002001E001C1121F002AFBD1704700002E
:1051E0000149086070470000840100202DED028B0A
:1051F000FDF7DEF9FFF784FCFEF7CCFFFEF742FF78
:10520000FFF718F8FFF7DAF8FFF7A0F8FFF7FAF85A
:10521000FBF750FC384C012211462046FDF7B4F94B
:10522000012202212046FDF7AFF93448202102680F
:1052300011600068042101607F213048FBF7E6FC23
:105240002E48FCF7D3F92E48FEF764F93C212D488F
:10525000FEF7AAFA2B490020096848622A48FEF79F
:1052600019F90C212848FEF7B5FC00212648FEF765
:10527000B1FC04212448FEF7ADFC08212248FEF7CA
:10528000A9FC00212048FDF7F9FF04211E48FDF785
:10529000F5FF08211C48FDF7F1FF1C4C1C4D1D4E6D
:1052A0001D4FDFF878809FED1E8A94ED140A134895
:1052B00085ED050A94ED150A85ED040A94ED160AAC
:1052C00086ED030A94ED170A86ED020A94ED1C0A96
:1052D00087ED000A88ED000AFCF7E2FF0748FCF7BB
:1052E0000FFD80B200EE100A2081B8EE400A20EED9
:1052F000080A84ED080AD8E700100048940100204D
:10530000980200204C020020000200200000002033
:1053100084030020A4030020B4000020CC0000205F
:10532000BBCC903C10EE100AB0F17C5F02DDB7EE12
:10533000000A704710EE100AB0F13F4F02D9BFEEDD
:10534000000A7047F0EE000A20EE200A70470000C5
:105350000000000000000102030406070809000025
:1053600000000000920E493CB10AC93C2BC3163D17
:105370002EFB483D752B7B3D04A9963D80B6AF3D85
:1053800036BDC83D2FBCE13D73B2FA3D87CF093E23
:105390008340163EB5AB223EA2102F3ECF6E3B3E61
:1053A000C2C5473E0115543E135C603E7F9A6C3E79
:1053B000CCCF783EC07D823E938E883E229A8E3E30
:1053C00032A0943E86A09A3EE59AA03E128FA63E59
:1053D000D47CAC3EEF63B23E2A44B83E491DBE3E8B
:1053E00015EFC33E53B9C93ECA7BCF3E4136D53EC9
:1053F00080E8DA3E4F92E03E7533E63EBBCBEB3EB3
:10540000EA5AF13ECBE0F63E275DFC3EE4E7003F82
:105410003D9C033F824B063F9BF5083F6B9A0B3F39
:10542000DA390E3FCDD3103F2A68133FD9F6153F26
:10543000C07F183FC6021B3FD17F1D3FCBF61F3FE9
:105440009967223F25D2243F5636273F1594293F9E
:105450004AEB2B3FDE3B2E3FBB85303FC9C8323F76
:10546000F304353F233A373F4268393F3B8F3B3F98
:10547000F9AE3D3F67C73F3F70D8413F01E2433F30
:1054800003E4453F65DE473F12D1493FF8BB4B3F40
:10549000029F4D3F207A4F3F3D4D513F4918533FAA
:1054A00031DB543FE595563F5348583F6AF2593F28
:1054B0001A945B3F532D5D3F05BE5E3F2146603F22
:1054C00097C5613F5A3C633F59AA643F880F663FC6
:1054D000D86B673F3CBF683FA7096A3F0C4B6B3FE7
:1054E0005E836C3F93B26D3F9ED86E3F73F56F3F06
:1054F0000809713F5213723F4714733FDD0B743F2D
:105500000BFA743FC6DE753F07BA763FC58B773F0F
:10551000F853783F9812793F9DC7793F02737A3FDD
:10552000BE147B3FCDAC7B3F283B7C3FC9BF7C3F5B
:10553000AC3A7D3FCCAB7D3F23137E3FB0707E3FC6
:105540006DC47E3F580E7F3F6D4E7F3FAB847F3FE3
:105550000FB17F3F97D37F3F43EC7F3F11FB7F3FEE
:105560000000803F11FB7F3F43EC7F3F97D37F3F9D
:105570000FB17F3FAB847F3F6D4E7F3F580E7F3F23
:105580006DC47E3FB0707E3F23137E3FCCAB7D3F2A
:10559000AC3A7D3FC9BF7C3F283B7C3FCDAC7B3FD5
:1055A000BE147B3F02737A3F9DC7793F9812793FC3
:1055B000F853783FC58B773F07BA763FC6DE753F15
:1055C0000BFA743FDD0B743F4714733F5213723F65
:1055D0000809713F73F56F3F9ED86E3F93B26D3FE0
:1055E0005E836C3F0C4B6B3FA7096A3F3CBF683F33
:1055F000D86B673F880F663F59AA643F5A3C633FA8
:1056000097C5613F2146603F05BE5E3F532D5D3F1C
:105610001A945B3F6AF2593F5348583FE595563F0D
:1056200031DB543F4918533F3D4D513F207A4F3FA6
:10563000029F4D3FF8BB4B3F12D1493F65DE473FCC
:1056400003E4453F01E2433F70D8413F67C73F3F16
:10565000F9AE3D3F3B8F3B3F4268393F233A373FEE
:10566000F304353FC9C8323FBB85303FDE3B2E3F98
:105670004AEB2B3F1594293F5636273F25D2243F2E
:105680009967223FCBF61F3FD17F1D3FC6021B3FCC
:10569000C07F183FD9F6153F2A68133FCDD3103F7E
:1056A000DA390E3F6B9A0B3F9BF5083F824B063F62
:1056B0003D9C033FE4E7003F275DFC3ECBE0F63E28
:1056C000EA5AF13EBBCBEB3E7533E63E4F92E03EED
:1056D00080E8DA3E4136D53ECA7BCF3E53B9C93E5B
:1056E00015EFC33E491DBE3E2A44B83EEF63B23EAD
:1056F000D47CAC3E128FA63EE59AA03E86A09A3E90
:1057000032A0943E229A8E3E938E883EC07D823E89
:10571000CCCF783E7F9A6C3E135C603E0115543EC0
:10572000C2C5473ECF6E3B3EA2102F3EB5AB223ED8
:105730008340163E87CF093E73B2FA3D2FBCE13D50
:1057400036BDC83D80B6AF3D04A9963D752B7B3D67
:105750002EFB483D2BC3163DB10AC93C920E493C75
:1057600000000000920E49BCB10AC9BC2BC316BD93
:105770002EFB48BD752B7BBD04A996BD80B6AFBD81
:1057800036BDC8BD2FBCE1BD73B2FABD87CF09BE1F
:10579000834016BEB5AB22BEA2102FBECF6E3BBE5D
:1057A000C2C547BE011554BE135C60BE7F9A6CBE75
:1057B000CCCF78BEC07D82BE938E88BE229A8EBE2C
:1057C00032A094BE86A09ABEE59AA0BE128FA6BE55
:1057D000D47CACBEEF63B2BE2A44B8BE491DBEBE87
:1057E00015EFC3BE53B9C9BECA7BCFBE4136D5BEC5
:1057F00080E8DABE4F92E0BE7533E6BEBBCBEBBEAF
:10580000EA5AF1BECBE0F6BE275DFCBEE4E700BF7E
:105810003D9C03BF824B06BF9BF508BF6B9A0BBF35
:10582000DA390EBFCDD310BF2A6813BFD9F615BF22
:10583000C07F18BFC6021BBFD17F1DBFCBF61FBFE5
:10584000996722BF25D224BF563627BF159429BF9A
:105850004AEB2BBFDE3B2EBFBB8530BFC9C832BF72
:10586000F30435BF233A37BF426839BF3B8F3BBF94
:10587000F9AE3DBF67C73FBF70D841BF01E243BF2C
:1058800003E445BF65DE47BF12D149BFF8BB4BBF3C
:10589000029F4DBF207A4FBF3D4D51BF491853BFA6
:1058A00031DB54BFE59556BF534858BF6AF259BF24
:1058B0001A945BBF532D5DBF05BE5EBF214660BF1E
:1058C00097C561BF5A3C63BF59AA64BF880F66BFC2
:1058D000D86B67BF3CBF68BFA7096ABF0C4B6BBFE3
:1058E0005E836CBF93B26DBF9ED86EBF73F56FBF02
:1058F000080971BF521372BF471473BFDD0B74BF29
:105900000BFA74BFC6DE75BF07BA76BFC58B77BF0B
:10591000F85378BF981279BF9DC779BF02737ABFD9
:10592000BE147BBFCDAC7BBF283B7CBFC9BF7CBF57
:10593000AC3A7DBFCCAB7DBF23137EBFB0707EBFC2
:105940006DC47EBF580E7FBF6D4E7FBFAB847FBFDF
:105950000FB17FBF97D37FBF43EC7FBF11FB7FBFEA
:10596000000080BF11FB7FBF43EC7FBF97D37FBF99
:105970000FB17FBFAB847FBF6D4E7FBF580E7FBF1F
:105980006DC47EBFB0707EBF23137EBFCCAB7DBF26
:10599000AC3A7DBFC9BF7CBF283B7CBFCDAC7BBFD1
:1059A000BE147BBF02737ABF9DC779BF981279BFBF
:1059B000F85378BFC58B77BF07BA76BFC6DE75BF11
:1059C0000BFA74BFDD0B74BF471473BF521372BF61
:1059D000080971BF73F56FBF9ED86EBF93B26DBFDC
:1059E0005E836CBF0C4B6BBFA7096ABF3CBF68BF2F
:1059F000D86B67BF880F66BF59AA64BF5A3C63BFA4
:105A000097C561BF214660BF05BE5EBF532D5DBF18
:105A10001A945BBF6AF259BF534858BFE59556BF09
:105A200031DB54BF491853BF3D4D51BF207A4FBFA2
:105A3000029F4DBFF8BB4BBF12D149BF65DE47BFC8
:105A400003E445BF01E243BF70D841BF67C73FBF12
:105A5000F9AE3DBF3B8F3BBF426839BF233A37BFEA
:105A6000F30435BFC9C832BFBB8530BFDE3B2EBF94
:105A70004AEB2BBF159429BF563627BF25D224BF2A
:105A8000996722BFCBF61FBFD17F1DBFC6021BBFC8
:105A9000C07F18BFD9F615BF2A6813BFCDD310BF7A
:105AA000DA390EBF6B9A0BBF9BF508BF824B06BF5E
:105AB0003D9C03BFE4E700BF275DFCBECBE0F6BE24
:105AC000EA5AF1BEBBCBEBBE7533E6BE4F92E0BEE9
:105AD00080E8DABE4136D5BECA7BCFBE53B9C9BE57
